:020000040800F2
:10000000C8120020D9090008450A0008450A00085E
:10001000450A0008450A0008450A000800000000DB
:10002000000000000000000000000000450A000879
:10003000450A000800000000450A0008691D000884
:10004000450A0008450A0008450A0008450A000854
:10005000450A0008450A0008450A0008450A000844
:10006000450A0008450A0008450A0008450A000834
:10007000450A0008450A0008450A0008450A000824
:10008000450A0008450A0008450A0008450A000814
:10009000450A0008450A0008450A0008450A000804
:1000A000450A0008450A0008450A0008450A0008F4
:1000B000C93100084D0A0008D5310008450A00087A
:1000C000450A0008450A0008450A0008450A0008D4
:1000D000450A0008450A0008450A0008450A0008C4
:1000E000450A0008450A0008450A0008450A0008B4
:1000F000450A0008450A0008450A0008450A0008A4
:10010000450A0008450A0008450A0008450A000893
:10011000450A0008450A0008450A0008450A000883
:10012000450A0008450A0008450A0008450A000873
:10013000450A0008450A0008450A0008450A000863
:10014000450A0008450A0008450A0008450A000853
:10015000450A0008450A0008450A0008450A000843
:10016000450A0008450A0008450A0008450A000833
:10017000450A0008450A0008450A0008450A000823
:10018000450A0008450A000880B58AB000AF7860CB
:1001900039604FF000037B624FF000033B624FF089
:1001A0000003FB614FF00003BB617B681B8A9BB2BD
:1001B0007B627B6A23F440537B623B68DB887A6A0C
:1001C00013437B627B6A9AB27B681A827B689B8945
:1001D0009BB27B627B6A23F4B05323F00C037B62F7
:1001E0003B689A883B681B8913439AB23B685B89DA
:1001F00013439BB27A6A13437B627B6A9AB27B6831
:100200009A817B689B8A9BB27B627B6A23F44073F2
:100210007B623B689B897A6A13437B627B6A9AB2F2
:100220007B689A8207F10803184600F017FD7A6888
:100230004FF48053C4F201039A4206D07A684FF417
:10024000A053C4F201039A4202D17B693B6201E0F0
:100250003B693B627B689B899BB29BB21BB2002BC4
:100260000FDA3A6A13464FEA83039B184FEA830278
:100270009A183B681B684FEA4303B2FBF3F3FB6138
:100280000EE03A6A13464FEA83039B184FEA830253
:100290009A183B681B684FEA8303B2FBF3F3FB61D8
:1002A000FA6948F21F53C5F2EB13A3FB02134FEA9E
:1002B00053134FEA03137B627B6A4FEA13134FF029
:1002C000640202FB03F3FA69D31ABB617B689B8962
:1002D0009BB29BB21BB2002B12DABB694FEAC3037D
:1002E00003F1320248F21F53C5F2EB13A3FB0213D2
:1002F0004FEA531303F007037A6A13437B6211E05A
:10030000BB694FEA031303F1320248F21F53C5F2EF
:10031000EB13A3FB02134FEA531303F00F037A6AA4
:1003200013437B627B6A9AB27B681A8107F12807C4
:10033000BD4680BD80B485B000AF786039604FF0B5
:100340000003FB607B681B8A9BB2FB60FB6823F4A5
:100350007063FB603B681A883B685B8813439AB202
:100360003B689B8813439AB23B68DB8813439BB27C
:10037000FA681343FB60FB689AB27B681A8207F144
:100380001407BD4680BC704780B483B000AF78606E
:100390000B46FB70FB78002B08D07B689B899BB2D7
:1003A00043F400539AB27B689A8107E07B689B898B
:1003B0009BB223F400539AB27B689A8107F10C0731
:1003C000BD4680BC704700BF80B483B000AF78608A
:1003D0000B467B807B884FEAC3534FEAD3539AB2D4
:1003E0007B689A8007F10C07BD4680BC704700BF50
:1003F00080B485B000AF78600B467B804FF000037F
:10040000FB737B681B889AB27B8813409BB2002BDE
:1004100003D04FF00103FB7302E04FF00003FB73C6
:10042000FB7B184607F11407BD4680BC704700BF30
:1004300080B500AF40F2B673C2F200031B78002B08
:1004400002D0012B0AD013E000F048F803461A4608
:1004500040F2B673C2F200031A700AE000F02AF903
:1004600003461A4640F2B673C2F200031A7000E067
:1004700000BF80BD80B500AF40F2B473C2F200038C
:100480001B8803F101039AB240F2B473C2F2000375
:100490001A8040F2B473C2F200031B88B3F5FA6FFE
:1004A0001AD140F29870C2F2000001F04BFC0246F3
:1004B00040F2B073C2F200031A6040F29870C2F2C8
:1004C00000004FF47A7101F009FC40F2B473C2F2FB
:1004D00000034FF000021A8080BD00BF90B5ABB0A2
:1004E00000AF4FF00003C7F8A43043F62453C0F622
:1004F000000307F148011A464FF05A030846114617
:100500001A4603F06BF84FF00003C7F8A43024E05C
:1005100043F60853C0F60003D7F8A42053F822305E
:1005200043F61450C0F600004FF003011A4602F0E3
:100530004FF807F14801D7F8A42013464FEA0313F8
:100540009B1A4FEA4303CB18184602F041F8D7F83C
:10055000A43003F10103C7F8A430D7F8A430022B6C
:10056000D6D943F61450C0F600004FF004014FF006
:10057000140202F02DF84FF00003C7F8A4300BE08E
:1005800043F62050C0F6000002F022F8D7F8A4305D
:1005900003F10103C7F8A430D7F8A4302C2BEFD90E
:1005A0004FF00003C7F8A43079E040F20003C2F234
:1005B0000003D7F8A4204FF05C0101FB02F29B1866
:1005C00003F158031B78012B63D107F1040318468C
:1005D0004FF000014FF0110203F0A2F8D7F8A43059
:1005E00003F105031A4643F60853C0F600031B68DF
:1005F00043F61450C0F6000011461A4601F0E8FF19
:10060000D7F8A4304FF05C0202FB03F240F2000383
:10061000C2F20003D318184601F0DAFFD7F8A4306D
:1006200003F105031A4643F60853C0F600035B685E
:1006300043F61450C0F6000011461A4601F0C8FFF8
:1006400040F20003C2F20003D7F8A4204FF05C018F
:1006500001FB02F29B1803F154031C6840F20003F3
:10066000C2F20003D7F8A4204FF05C0101FB02F2B4
:100670009B1803F118039B791A4607F104034FF006
:10068000000011461A46A04707F10403184601F07E
:100690009FFFD7F8A43003F10103C7F8A430D7F8BF
:1006A000A430082B81D94FF00103184607F1AC079D
:1006B000BD4690BD90B591B000AF4FF0000387F8F4
:1006C0003F304FF00003BB634FF00003BB63CFE04C
:1006D00040F20003C2F20003BA6B4FF05C0101FB71
:1006E00002F29B1803F158031B78012B40F0BC80E9
:1006F0003B4618464FF000014FF0320203F010F86D
:1007000040F20003C2F20003BA6B4FF05C0101FB40
:1007100002F29B1803F154031C6840F20003C2F27A
:100720000003BA6B4FF05C0101FB02F29B1803F16E
:1007300018039B791A463B464FF0010011461A46B2
:10074000A047BB6B4FF05C0202FB03F303F11802FE
:1007500040F20003C2F20003D31803F107043B4642
:10076000184603F073F803463A46204611461A46E7
:1007700003F0E0F80346002B76D0BB6B4FF05C0231
:1007800002FB03F303F1180240F20003C2F200037C
:10079000D31803F107043B46184603F057F8034605
:1007A0003A46204611461A4603F054F93B4618468D
:1007B00003F04CF80446BB6B4FF05C0202FB03F302
:1007C00003F1180240F20003C2F20003D31803F150
:1007D0000703184603F03AF80346E31A7B637B6B82
:1007E000002B2CDA4FF0000387F83F3020E03B4627
:1007F000184603F02BF80346322B0DD03B46184623
:1008000003F024F803463A46D21843F68053C0F664
:1008100000031B88138005E07B6BDBB2C3F1000390
:1008200087F83F3097F83F3003F1010387F83F30F6
:1008300097F83F207B6BC3F100039A42D7DBBB6B79
:1008400003F105031A4643F60853C0F600039B68FC
:1008500043F61450C0F6000011461A4601F0B8FEE7
:100860003B46184601F0B4FEBB6B03F10103BB63CA
:10087000BB6B082B7FF62CAF4FF00103184607F136
:100880004407BD4690BD00BF80B586B000AF0B46A3
:100890003A600246FA71BB71FB79002B47D0012BFD
:1008A00043D101F043FA78617A6940F2E7339A4222
:1008B0003FD97A6944F6D353C1F26203A3FB021312
:1008C0004FEA93133B613B693B2B24D93A6948F6C5
:1008D0008903C8F68803A3FB02134FEA5313FB6096
:1008E0003A6948F68903C8F68803A3FB02134FEA66
:1008F00053110B464FEA03135B1A4FEA8303D31AD3
:100900003B61FA683B69386843F68451C0F60001E0
:1009100001F074FE0DE03B69386843F69051C0F673
:1009200000011A4601F06AFE03E000BF02E000BFCA
:1009300000E000BF07F11807BD4680BD80B582B05A
:1009400000AF0B463A600246FA71BB71FB79002B8F
:100950003CD0012B38D140F2B073C2F200031A68C8
:1009600040F69F739A4215D940F2B073C2F2000369
:100970001A6844F6D353C1F26203A3FB02134FEA91
:10098000D313386843F69C51C0F600011A4601F0B3
:1009900035FE1CE040F2B073C2F200031B684FF456
:1009A0007A7202FB03F244F6D353C1F26203A3FB53
:1009B00002134FEAD313386843F6A451C0F600017E
:1009C0001A4601F01BFE02E000BF00E000BF07F185
:1009D0000807BD4680BD00BF80B582B000AF44F2BD
:1009E0007473C0F600037B6040F20003C2F20003A0
:1009F0003B600BE07B681A683B681A603B6803F158
:100A000004033B607B6803F104037B603A6840F2B7
:100A10009873C2F200039A42ECD3084808494FF099
:100A200000028842B8BF40F8042BFFF6FAAF00F08E
:100A3000DBF807F10807BD4680BD000098070020DD
:100A4000C40A002080B400AFFEE700BF80B500AF4D
:100A500040F2B873C2F200031B78012B4AD14FF465
:100A60008060C4F2000002F089FD024640F2BC73CF
:100A7000C2F200031A604FF48060C4F200004FF02D
:100A800008014FF0000202F085FD40F2C073C2F28F
:100A900000031A6840F2BC73C2F200031B689A425A
:100AA00010D940F2C073C2F200031A6840F2BC735E
:100AB000C2F200031B68D21A40F6C023C2F2000340
:100AC0001A600FE040F2BC73C2F200031A6840F2F1
:100AD000C073C2F200031B68D21A40F6C023C2F2F0
:100AE00000031A6040F2B873C2F200034FF0000234
:100AF0001A7018E040F2B873C2F200031B7803F1D9
:100B00000103DAB240F2B873C2F200031A704FF474
:100B10008060C4F2000002F031FD024640F2C07372
:100B2000C2F200031A6080BD80B483B000AF0346F8
:100B30003960FB7197F90730002B10DA4FF46D43E1
:100B4000CEF20003FA7902F00F02A2F104013A6832
:100B5000D2B24FEA0212D2B25B181A760DE04FF40D
:100B60006143CEF2000397F907103A68D2B24FEA18
:100B70000212D2B25B1883F8002307F10C07BD46BE
:100B800080BC704780B582B000AF78607A686FF043
:100B90007F439A4202D94FF001031FE04EF2100347
:100BA000CEF200037A6822F07F4202F1FF325A60EF
:100BB0004FF0FF304FF00F01FFF7B6FF4EF210037A
:100BC000CEF200034FF000029A604EF21003CEF214
:100BD00000034FF007021A604FF00003184607F1B8
:100BE0000807BD4680BD00BF80B586B000AF4FF09E
:100BF00000033B704FF003037B704FF000037B60FA
:100C00004FF00003BB604FF00003FB604FF00003A8
:100C10003B614FF000037B6100F03AFC40F28473CB
:100C2000C2F200031A6844F6D353C1F26203A3FB75
:100C300002134FEA93131846FFF7A4FF01F044FD97
:100C40007B78032B07D13B4618464FF0320101F069
:100C500045F8FFF7EDFBFFF70DFCEFE780B489B037
:100C600000AF78604FF00003BB614FF000037B6181
:100C70004FF00003FB614FF002033B614FF00003B4
:100C8000FB604FF00203BB604FF46053C4F20203F9
:100C90009B6803F00C03BB61BB69042B0AD0082BD3
:100CA0000FD0002B60D17A684FF41053C0F2F403D8
:100CB000136060E07A684FF49053C0F27A031360D7
:100CC00059E04FF46053C4F202035B6803F48003FD
:100CD0004FEA9353FB604FF46053C4F202035B6826
:100CE00003F03F03BB60FB68002B14D04FF490531C
:100CF000C0F27A03BA68B3FBF2F24FF46053C4F265
:100D00000203596847F6C0730B404FEA931303FB85
:100D100002F3FB6113E04FF41053C0F2F403BA681E
:100D2000B3FBF2F24FF46053C4F20203596847F682
:100D3000C0730B404FEA931303FB02F3FB614FF4C4
:100D40006053C4F202035B6803F440334FEA134379
:100D500003F101034FEA43033B61FA693B69B2FBCC
:100D6000F3F27B681A6006E07A684FF41053C0F221
:100D7000F403136000BF4FF46053C4F202039B6896
:100D800003F0F003BB61BB694FEA1313BB6140F290
:100D90003C33C2F20003BA699B181B78DBB27B615B
:100DA0007B681A687B6922FA03F27B685A604FF409
:100DB0006053C4F202039B6803F4E053BB61BB6958
:100DC0004FEA9323BB6140F23C33C2F20003BA699D
:100DD0009B181B78DBB27B617B685A687B6922FABF
:100DE00003F27B689A604FF46053C4F202039B687D
:100DF00003F46043BB61BB694FEA5333BB6140F20C
:100E00003C33C2F20003BA699B181B78DBB27B61EA
:100E10007B685A687B6922FA03F27B68DA6007F123
:100E20002407BD4680BC704780B483B000AF7860B3
:100E30000B46FB70FB78002B0CD04FF46053C4F2D0
:100E400002034FF46052C4F20202116B7A680A4343
:100E50001A630DE04FF46053C4F202034FF4605282
:100E6000C4F20202116B7A686FEA02020A401A6346
:100E700007F10C07BD4680BC704700BF80B483B04B
:100E800000AF78600B46FB70FB78002B0CD04FF462
:100E90006053C4F202034FF46052C4F20202516C78
:100EA0007A680A435A640DE04FF46053C4F20203B7
:100EB0004FF46052C4F20202516C7A686FEA020287
:100EC0000A405A6407F10C07BD4680BC704700BF5A
:100ED00080B58AB000AF0B463A600246FA71BB712A
:100EE0004FF0000387F8273043F6FC62C0F600029B
:100EF00007F118031068516803C307F108034FF0A6
:100F000000021A6003F104034FF000021A6003F1BB
:100F100004034FF000021A6003F104034FF00002D3
:100F20001A6003F104033B68BB60F97943F6AC52E5
:100F3000C0F600020B464FEAC3035B1A4FEA830375
:100F4000D31803F118031A684FF48053C4F2010355
:100F50009A4241D0F97943F6AC52C0F600020B46F2
:100F60004FEAC3035B1A4FEA8303D31803F1180354
:100F70001A684FF48843C4F200039A422CD0F979DE
:100F800043F6AC52C0F600020B464FEAC3035B1AAD
:100F90004FEA8303D31803F118031A684FF4904300
:100FA000C4F200039A4217D0F97943F6AC52C0F666
:100FB00000020B464FEAC3035B1A4FEA8303D318C0
:100FC00003F118031A684FF4A053C4F201039A42C4
:100FD00002D04FF0050375E1F97943F6AC52C0F643
:100FE00000020B464FEAC3035B1A4FEA8303D31890
:100FF00003F118031B68184600F010FA034619465F
:1010000040F2C472C2F200020B464FEA43035B187F
:101010004FEA8303D3181B78012B02D14FF006034C
:1010200050E1FB79002B6FD0BB79002B6CD04FF0D7
:101030000C037B82F97943F6AC52C0F600020B46F2
:101040004FEAC3035B1A4FEA8303D31803F1180373
:101050001868B97943F6AC52C0F600020B464FEA65
:10106000C3035B1A4FEA8303D31803F118031B6809
:10107000984202D04FF0020324E1F97943F6AC52D2
:10108000C0F600020B464FEAC3035B1A4FEA830324
:10109000D31803F118031B68184600F0BFF9034684
:1010A000194640F2C472C2F200020B464FEA4303F3
:1010B0005B184FEA8303D31803F10803FA799A7097
:1010C000B97943F6AC52C0F600020B464FEAC303AF
:1010D0005B1A4FEA8303D31803F118031B68184601
:1010E00000F09CF90346194640F2C472C2F20002B5
:1010F0000B464FEA43035B184FEA8303D31803F10F
:101100000803BA795A7016E0FB79002B06D0FB79F8
:1011100087F827304FF008037B820CE0BB79002B67
:1011200006D0BB7987F827304FF004037B8202E0BA
:101130004FF00303C6E0F97943F6AC52C0F6000263
:101140000B464FEAC3035B1A4FEA8303D31803F13C
:1011500018031B68184600F01BF997F8271043F690
:10116000AC52C0F600020B464FEAC3035B1A4FEACB
:101170008303D31803F118031B681A4607F1080309
:1011800010461946FFF700F897F8271043F6AC52BF
:10119000C0F600020B464FEAC3035B1A4FEA830313
:1011A000D31803F118031B681A4607F118031046F9
:1011B0001946FFF7BFF8BB79002B25D0B97943F664
:1011C000AC52C0F600020B464FEAC3035B1A4FEA6B
:1011D0008303D31803F110031B79012B14D14FF0B3
:1011E000470387F820304FF0000387F821304FF095
:1011F000000387F822304FF0010387F8233007F10E
:101200002003184601F09EFD97F8271043F6AC52D4
:10121000C0F600020B464FEAC3035B1A4FEA830392
:10122000D31803F118031B6818464FF00101FFF7AC
:10123000ABF897F8271043F6AC52C0F600020B4605
:101240004FEAC3035B1A4FEA8303D31803F1180371
:101250001B68184600F0E2F80346194640F2C472D3
:10126000C2F200020B464FEA43035B184FEA8303C6
:10127000D3184FF001021A7097F8271043F6AC52BA
:10128000C0F600020B464FEAC3035B1A4FEA830322
:10129000D31803F118031B68184600F0BFF8034683
:1012A000194640F2C472C2F200020B464FEA4303F1
:1012B0005B184FEA8303D31803F104033A681A60FA
:1012C0004FF00003184607F12807BD4680BD00BF58
:1012D00080B584B000AF396013460246FA71BB8016
:1012E0004FF00003FB8149E048F2A063C0F2010324
:1012F000BB6003E0BB6803F1FF33BB60F97943F6E1
:10130000AC52C0F600020B464FEAC3035B1A4FEA29
:101310008303D31803F118031B6818464FF08001AC
:10132000FFF766F80346012B02D0BB68002BE1D122
:10133000BB68002B02D14FF0040324E0F97943F697
:10134000AC52C0F600020B464FEAC3035B1A4FEAE9
:101350008303D31803F118031B681A46FB89396805
:10136000CB181B78F98901F10101F9811046194662
:10137000FFF72AF8BB8803F1FF33BB80BB88002B43
:10138000B2D14FF00003184607F11007BD4680BDEB
:1013900080B582B000AF78607B684FF49042C4F2B1
:1013A0000002934227D04FF49042C4F200029342CD
:1013B00006D84FF48842C4F20002934214D028E0C9
:1013C0004FF48052C4F20102934206D04FF4A0526F
:1013D000C4F20102934215D01BE04FF010004FF011
:1013E0000101FFF74BFD14E04FF400304FF0010115
:1013F000FFF744FD0DE04FF480204FF00101FFF7AF
:101400003DFD06E04FF020004FF00101FFF736FDF3
:1014100000BF07F10807BD4680BD00BF80B483B0A0
:1014200000AF78607B684FF49042C4F200029342B0
:101430001FD04FF49042C4F20002934206D84FF4FA
:101440008842C4F20002934210D018E04FF4805258
:10145000C4F20102934206D04FF4A052C4F201023A
:10146000934209D00BE04FF000030AE04FF0010374
:1014700007E04FF0020304E04FF0030301E04FF0F8
:101480000503184607F10C07BD4680BC704700BF36
:1014900090B587B000AF01F08FFA01F0D7FA4FF0A6
:1014A0000103FB759DE0F97D43F60472C0F600026E
:1014B0000B464FEAC3035B1A4FEA8303D3181B683A
:1014C0003B61F97D43F60472C0F600020B464FEA19
:1014D000C3035B1A4FEA8303D3189B887B60F97DB3
:1014E00043F60472C0F600020B464FEAC3035B1AD0
:1014F0004FEA8303D3189B793B72F97D43F604725C
:10150000C0F600020B464FEAC3035B1A4FEA83039F
:10151000D31803F108035B78BB72F97D43F60472BC
:10152000C0F600020B464FEAC3035B1A4FEA83037F
:10153000D31803F108039B78FB72F97D43F604721C
:10154000C0F600020B464FEAC3035B1A4FEA83035F
:10155000D31803F108031B787B72386900F010FA86
:101560003B7A022B33D1F97D43F60472C0F60002B8
:101570000B464FEAC3035B1A4FEA8303D3189B88D9
:10158000184600F027FBF860F97D43F60472C0F6B8
:1015900000020B464FEAC3035B1A4FEA8303D318DA
:1015A0001868FB689CB2F97D43F60472C0F600022D
:1015B0000B464FEAC3035B1A4FEA8303D31803F1C8
:1015C0000C031B68DBB221461A4601F0A1F907F1B2
:1015D00004033869194601F0BDF8FB7D03F10103EE
:1015E000FB75FB7D0B2B7FF65EAF07F11C07BD463D
:1015F00090BD00BF80B483B000AF786039607B6875
:101600004FF48052C4F20202934265D04FF48052EC
:10161000C4F2020293421FD84FF48062C4F2020265
:10162000934241D04FF48062C4F20202934206D842
:101630004FF00002C4F2020293422DD074E04FF446
:101640000062C4F20202934236D04FF44062C4F208
:101650000202934238D067E04FF4C052C4F2020253
:10166000934249D04FF4C052C4F20202934206D8CA
:101670004FF4A052C4F20202934235D054E04FF42A
:10168000E052C4F2020293423ED04FF40052C4F240
:101690000202934240D047E03A6844F25403C0F655
:1016A0000003186810603FE03A6844F25803C0F63F
:1016B00000031868106037E03A6844F25C03C0F633
:1016C0000003186810602FE03A6844F26003C0F627
:1016D00000031868106027E03A6844F26403C0F61B
:1016E0000003186810601FE03A6844F26803C0F60F
:1016F00000031868106017E03A6844F26C03C0F603
:101700000003186810600FE03A6844F27003C0F6F6
:1017100000031868106007E03A6844F27403C0F6EA
:1017200000031868106000BF07F10C07BD4680BCBD
:10173000704700BF90B583B000AF03463960FB80AF
:10174000FB88802B00F09780802B11DC082B5ED06B
:10175000082B06DC022B40D0042B4BD0012B2FD0C2
:101760000AE1202B6DD0402B78D0102B5CD003E108
:10177000B3F5006F00F0B580B3F5006F0BDCB3F587
:10178000007F00F09280B3F5806F00F09B80B3F58E
:10179000807F7DD0F0E0B3F5005F00F0C080B3F54E
:1017A000005F04DCB3F5805F00F0AA80E4E0B3F5ED
:1017B000804F00F0C380B3F5004F00F0CE80DBE037
:1017C0003C68204602F042F80346E21844F27803EF
:1017D000C0F600031B881380CEE03C68204602F070
:1017E00035F80346E21844F27C03C0F600031B8878
:1017F0001380C1E03C68204602F028F80346E21856
:1018000044F28003C0F600031B881380B4E03C68F8
:10181000204602F01BF80346E21844F28403C0F6A7
:1018200000031B881380A7E03C68204602F00EF8F6
:101830000346E21844F28803C0F600031B881380B5
:101840009AE03C68204602F001F80346E21844F2B0
:101850008C03C0F600031B8813808DE03C68204693
:1018600001F0F4FF0346E21844F29003C0F60003CF
:101870001B88138080E03C68204601F0E7FF0346A8
:10188000E21844F29403C0F600031B88138073E04F
:101890003C68204601F0DAFF0346E21844F2980360
:1018A000C0F600031B88138066E03C68204601F008
:1018B000CDFF0346E21844F29C03C0F600031B88E8
:1018C000138059E03C68204601F0C0FF0346E2184F
:1018D00044F2A003C0F6000319889B78118093702E
:1018E0004AE03C68204601F0B1FF0346E21844F2AA
:1018F000A403C0F6000319889B78118093703BE025
:101900003C68204601F0A2FF0346E21844F2A80317
:10191000C0F6000319889B78118093702CE03C6816
:10192000204601F093FF0346E21844F2AC03C0F6F0
:10193000000319889B78118093701DE03C68204655
:1019400001F084FF0346E21844F2B003C0F600033E
:1019500019889B78118093700EE03C68204601F056
:1019600075FF0346E21844F2B403C0F60003198879
:101970009B781180937000BF07F10C07BD4690BDA6
:1019800080B582B000AF78607B684FF48052C4F2BB
:101990000202934200F0A0804FF48052C4F202028F
:1019A00093421FD84FF48062C4F20202934252D095
:1019B0004FF48062C4F20202934206D84FF0000254
:1019C000C4F20202934230D000E14FF40062C4F24C
:1019D0000202934255D04FF44062C4F20202934295
:1019E00065D0F3E04FF4C052C4F20202934200F01B
:1019F0009D804FF4C052C4F20202934206D84FF4C5
:101A0000A052C4F2020293427BD0DFE04FF4E052D6
:101A1000C4F20202934200F09E804FF40052C4F2DE
:101A20000202934200F0AC80D0E040F2F473C2F2C4
:101A300000031B78002B40F0B8804FF001004FF0FE
:101A40000101FFF7F1F940F2F473C2F200034FF025
:101A500001021A70A9E040F2F473C2F200035B784D
:101A6000002B40F0A4804FF002004FF00101FFF77F
:101A7000DBF940F2F473C2F200034FF001025A7036
:101A800095E040F2F473C2F200039B78002B40F023
:101A900090804FF004004FF00101FFF7C5F940F2CC
:101AA000F473C2F200034FF001029A7081E040F239
:101AB000F473C2F20003DB78002B7CD14FF00800F6
:101AC0004FF00101FFF7B0F940F2F473C2F20003E6
:101AD0004FF00102DA706EE040F2F473C2F20003DC
:101AE0001B79002B69D14FF010004FF00101FFF777
:101AF0009BF940F2F473C2F200034FF001021A7135
:101B00005BE040F2F473C2F200035B79002B56D124
:101B10004FF020004FF00101FFF786F940F2F47317
:101B2000C2F200034FF001025A7148E040F2F47330
:101B3000C2F200039B79002B43D14FF040004FF0DD
:101B40000101FFF771F940F2F473C2F200034FF0A4
:101B500001029A7135E040F2F473C2F20003DB79BE
:101B6000002B30D14FF080004FF00101FFF75CF9FE
:101B700040F2F473C2F200034FF00102DA7122E086
:101B800040F2F473C2F200031B7A002B1DD14FF414
:101B900080704FF00101FFF747F940F2F473C2F291
:101BA00000034FF001021A720FE000BF0EE000BF09
:101BB0000CE000BF0AE000BF08E000BF06E000BF85
:101BC00004E000BF02E000BF00E000BF07F108072B
:101BD000BD4680BD80B485B000AF0346FB80FB8866
:101BE000802B50D0802B11DC082B3CD0082B06DC3E
:101BF000022B30D0042B32D0012B28D067E0202BD1
:101C000039D0402B3BD0102B31D060E0B3F5006FC2
:101C100049D0B3F5006F09DCB3F5007F3BD0B3F5D5
:101C2000806F3CD0B3F5807F31D050E0B3F5005FDA
:101C300041D0B3F5005F03DCB3F5805F37D046E0F9
:101C4000B3F5804F3BD0B3F5004F3CD03FE04FF0B1
:101C50000003FB603BE04FF00103FB6037E04FF017
:101C60000203FB6033E04FF00303FB602FE04FF013
:101C70000403FB602BE04FF00503FB6027E04FF00F
:101C80000603FB6023E04FF00703FB601FE04FF00B
:101C90000803FB601BE04FF00903FB6017E04FF007
:101CA0000A03FB6013E04FF00B03FB600FE04FF003
:101CB0000C03FB600BE04FF00D03FB6007E04FF0FF
:101CC0000E03FB6003E04FF00F03FB6000BFFB68F7
:101CD000184607F11407BD4680BC704780B582B036
:101CE00000AF786039607B685B78022B02D078683F
:101CF00000F0B6F87B684FF001021A707B684FF075
:101D000002025A7040F60003C2F200031A683B68F0
:101D1000D2187B685A6040F60003C2F200031A68CA
:101D20007B68DA6007F10807BD4680BD80B400AF6C
:101D300040F60003C2F200031B681846BD4680BC93
:101D4000704700BF80B483B000AF786040F60003F6
:101D5000C2F200031A687B68DB68D31A184607F1E1
:101D60000C07BD4680BC704780B500AF72B640F628
:101D70000003C2F200031B6803F1010240F60003F6
:101D8000C2F200031A6040F60003C2F200031B68AF
:101D9000B3F1FF3F3CD140F60003C2F200034FF025
:101DA00000021A6034E040F24C33C2F200031B68B8
:101DB0005A6940F24C33C2F200031A6040F24C33CD
:101DC000C2F200031B685A6840F60003C2F2000327
:101DD0001B689A421DD840F24C33C2F200031B68C4
:101DE0004FF003025A7040F24C33C2F200031B68FA
:101DF0001A4640F60403C2F200039A4209D040F2A8
:101E00004C33C2F200031B68184600F015F800E0DE
:101E100000BF40F24C33C2F200031B685B69002B29
:101E2000C1D140F24C33C2F2000340F60402C2F2C8
:101E300000021A6062B680BD80B483B000AF7860E3
:101E40007B685B697A6812691A617B681B697A68CA
:101E500052695A6107F10C07BD4680BC704700BF4C
:101E600080B483B000AF786040F60403C2F2000390
:101E70005B69002B10D140F60403C2F200037A68BC
:101E80005A617B684FF000025A617A6840F6040399
:101E9000C2F20003136119E040F60403C2F200032A
:101EA0005B697A681A6140F60403C2F200035A695A
:101EB0007B685A6140F60403C2F200037A685A61F3
:101EC0007A6840F60403C2F20003136107F10C07BD
:101ED000BD4680BC704700BF80B582B000AF0346EE
:101EE000FB7107F107034FF0010019464FF00102A3
:101EF000FFF7EEF907F10807BD4680BD80B483B057
:101F000000AF78600B46FB707B68FA781A704FF070
:101F10000103184607F10C07BD4680BC704700BF9F
:101F200080B485B000AF786039604FF00003FB608B
:101F30000FE03B681A787B681A707B6803F1010335
:101F40007B603B6803F101033B60FB6803F1010325
:101F5000FB603B681B78002BEBD1FB68184607F150
:101F60001407BD4680BC704780B586B000AFF860EE
:101F70007A603B600B46FB724FF000037B617B682D
:101F800003F1FF337B603B68092B25D93A684CF697
:101F9000CD43CCF6CC43A3FB02134FEAD303FA7A2A
:101FA000F86811467A68FFF7DFFF78617B69FA68A5
:101FB000D318FB6013E0FB7AF8681946FFF79EFF21
:101FC000FB6803F10103FB607B6903F101037B61A3
:101FD0007B6803F1FF337B607B68002BEBDC3968A7
:101FE0004CF6CD43CCF6CC43A3FB01234FEAD302FE
:101FF00013464FEA83039B184FEA4303CA1AD3B22E
:1020000003F13003DBB2F8681946FFF777FF0346A8
:102010007A69D3187B617B69184607F11807BD46BA
:1020200080BD00BF80B586B000AFF8607A603B60CD
:102030000B46FB724FF000037B613B68002B04DA18
:102040003B68C3F100033B6101E03B683B617B6897
:1020500003F1FF337B603B69092B2AD93B68002BD6
:1020600012DA3A694CF6CD43CCF6CC43A3FB02130B
:102070004FEAD303C3F10003FA7AF86811467A688D
:10208000FFF7D0FF78610FE03A694CF6CD43CCF60C
:10209000CC43A3FB02134FEAD303FA7AF868114644
:1020A0007A68FFF7BFFF78617B69FA68D318FB6035
:1020B0002BE03B68002B15DA7B6803F1FF337B6074
:1020C00010E0FB7AF8681946FFF718FFFB6803F188
:1020D0000103FB607B6903F101037B617B6803F112
:1020E000FF337B607B68002BEBDC3B68002B0CDA5A
:1020F000F8684FF02D01FFF701FF03467A69D31806
:102100007B61FB6803F10103FB6039694CF6CD4349
:10211000CCF6CC43A3FB01234FEAD30213464FEA8C
:1021200083039B184FEA4303CA1AD3B203F1300367
:10213000DBB2F8681946FFF7E1FE03467A69D31867
:102140007B617B69184607F11807BD4680BD00BF5B
:1021500080B588B002AFF8607A600A46FA72BB7246
:102160004FF000037B617B6803F1FF337B603B6AC8
:102170004FEA1313002B24D03B6A4FEA1311FA7A6B
:10218000BB7A0091F86811467A68FFF7E1FF0346D1
:102190007A69D3187B617B69FA68D318FB6013E016
:1021A000FB7AF8681946FFF7A9FEFB6803F1010303
:1021B000FB607B6903F101037B617B6803F1FF3303
:1021C0007B607B68002BEBDC3B6A03F00F03092B81
:1021D0000CD83B6ADBB203F00F03DBB203F1300330
:1021E000DBB2F8681946FFF789FE1BE0BB7A002BCB
:1021F0000CD03B6ADBB203F00F03DBB203F1370311
:10220000DBB2F8681946FFF779FE0BE03B6ADBB2F8
:1022100003F00F03DBB203F15703DBB2F868194692
:10222000FFF76CFE7B6903F101037B617B69184654
:1022300007F11807BD4680BD80B58AB002AFF860CF
:10224000B9607A603B604FF00003BB614FF0000360
:102250007B61FB68002B00F01C81FB684FF00002E3
:102260001A7016E17B681B78252B10D07B681A78D2
:10227000FB681A70FB6803F10103FB607B6803F1E4
:1022800001037B607B6903F101037B6102E17B68F1
:1022900003F101031B78252B10D1FB684FF02502B9
:1022A0001A70FB6803F10103FB607B6803F1020312
:1022B0007B607B6903F101037B61EBE04FF020035E
:1022C000FB774FF00003BB777B6803F101037B6072
:1022D0007B681B78302B1BD14FF03003FB777B687A
:1022E00003F101037B6013E0BB7F1A464FEA8202D1
:1022F000D3184FEA4303DAB27B681B78D318DBB2FA
:10230000A3F13003BB777B6803F101037B6000E03E
:1023100000BF7B681B782F2B03D97B681B78392B78
:10232000E2D9BA7F7B69D3181A46BB689A4205D9AD
:10233000BB68DAB27B69DBB2D31ABB777B681B78E8
:10234000A3F15803202B00F2948001A252F823F04D
:10235000252400087324000873240008732400084F
:1023600073240008732400087324000873240008F1
:102370007324000873240008732400085B240008F9
:10238000D523000873240008732400087324000870
:1023900073240008D5230008732400087324000860
:1023A00073240008732400087324000873240008B1
:1023B00073240008732400087324000845240008CF
:1023C00073240008ED230008732400087324000818
:1023D00005240008BA7F3B6803F1040139601B68DB
:1023E000F97FF868FFF71EFEB86145E0BA7F3B68E9
:1023F00003F1040139601B68F97FF868FFF7B4FD49
:10240000B86139E0BA7F3B6803F1040139601968AB
:10241000FB7F0091F86819464FF00003FFF798FE24
:10242000B86129E0BA7F3B6803F10401396019689B
:10243000FB7F0091F86819464FF00103FFF788FE13
:10244000B86119E03B6803F104023A601B68F86860
:102450001946FFF765FDB8610EE03B6803F1040221
:102460003A601B68DBB2F8681946FFF747FDB861B0
:1024700002E04FF0FF332CE07B6803F101037B6047
:10248000BB69FA68D318FB607A69BB69D3187B61B2
:1024900000E000BF7B681B78002B04D07A69BB6822
:1024A0009A42FFF4DFAE7A69BB689A4204D2FB68B5
:1024B0004FF000021A700BE0FB6803F1FF33FB6082
:1024C000FB684FF000021A707B6903F1FF337B61F8
:1024D0007B69184607F12007BD4680BD0CB480B566
:1024E00084B000AF7860396007F11C03BB60786886
:1024F0003968BA69BB68FFF79FFEF860FB68184649
:1025000007F11007BD46BDE8804002B0704700BF2C
:1025100080B584B000AFF860B9607A60F8684FF0B9
:102520006401BA687B68FFF787FE0346184607F127
:102530001007BD4680BD00BFB0B5A6B000AFF860C3
:10254000B9607A6044F20823C0F6000307F1100472
:102550001D460FCD0FC40FCD0FC42B68236007F1AC
:1025600034031846B9687A68FFF7D2FF0346632B35
:102570000CDD40F27873C2F200031B68DB6807F1E0
:1025800010021046194600F077F8FEE707F1340311
:102590001846F96800F070F80346184607F19807E6
:1025A000BD46B0BD80B582B000AF7860396040F202
:1025B0007873C2F200031B689B68184679683A6812
:1025C000FFF7BAFF0346184607F10807BD4680BD6E
:1025D0000FB480B582B000AF07F114033B603869D7
:1025E0003968FFF7DFFF78607B68184607F1080756
:1025F000BD46BDE8804004B0704700BF0EB480B552
:1026000085B000AF786007F12003BB607868F96996
:10261000BA68FFF77DFFF860FB68184607F11407FA
:10262000BD46BDE8804003B0704700BF80B582B0B2
:1026300000AF7860396040F27873C2F200031B6823
:102640009A683B689A4208D040F27873C2F200035D
:102650001B68DA683B689A4206D17B68DBB2184691
:10266000FFF73AFC7B6801E04FF0FF33184607F1B3
:102670000807BD4680BD00BF80B584B000AF78605C
:1026800039604FF00003FB6014E07B681B7818464C
:102690003968FFF7CBFF0346B3F1FF3F02D14FF09C
:1026A000FF330CE0FB6803F10103FB607B6803F17F
:1026B00001037B607B681B78002BE6D1FB68184622
:1026C00007F11007BD4680BD80B500AF40F61C0382
:1026D000C2F200031B78002B09D100F00BF803466F
:1026E0001A4640F61C03C2F200031A7000E000BF55
:1026F00080BD00BF80B500AF40F28073C2F200031E
:102700009A7840F28073C2F20003DB7810461946D3
:102710004FF4E132FEF7DCFB44F2D030C0F60000AB
:10272000FFF756FF44F2D830C0F60000FFF750FF25
:1027300044F2DC30C0F60000FFF74AFF44F2E43018
:10274000C0F600004FF00701FFF742FF4FF0010312
:10275000184680BD80B487B000AF786039604FF014
:1027600000037B614FF000033B614FF00003FB600F
:102770004FF000037B6186E07B694FF0010202FAB3
:1027800003F33B613B681A683B691340FB60FA68DE
:102790003B699A4273D17B681A687B694FEA4303AD
:1027A0004FF0030101FA03F36FEA03031A407B6859
:1027B0001A607B681A683B681B7919467B694FEA87
:1027C000430301FA03F31A437B681A603B681B79E1
:1027D000012B03D03B681B79022B34D17B689A68AC
:1027E0007B694FEA43034FF0030101FA03F36FEAF9
:1027F00003031A407B689A607B689A683B685B7940
:1028000019467B694FEA430301FA03F31A437B68D5
:102810009A607B685A687B699BB24FF0010101FAAC
:1028200003F36FEA03031A407B685A607B685A68B7
:102830003B689B7919467B699BB201FA03F39BB213
:102840001A437B685A607B68DA687B699BB24FEAFF
:1028500043034FF0030101FA03F36FEA03031A4045
:102860007B68DA607B68DA683B68DB7919467B69EC
:102870004FEA430301FA03F31A437B68DA607B698A
:1028800003F101037B617B690F2B7FF675AF07F1C5
:102890001C07BD4680BC704780B485B000AF78602F
:1028A0000B467B804FF00003FB737B681A697B88C3
:1028B0001340002B03D04FF00103FB7302E04FF0F5
:1028C0000003FB73FB7B184607F11407BD4680BC71
:1028D000704700BF80B485B000AF78600B467B8046
:1028E0004FF00003FB737B685A697B881340002B11
:1028F00003D04FF00103FB7302E04FF00003FB73C2
:10290000FB7B184607F11407BD4680BC704700BF2B
:1029100080B485B000AF786013460A467A807B7039
:102920004FF00003FB604FF00003BB607A787B88B8
:1029300003F007034FEA830302FA03F3FB607B888B
:102940004FEAD3039BB21A467B884FEAD3039BB26C
:1029500019467B6801F1080153F821107B8803F0C8
:1029600007034FEA83034FF00F0000FA03F36FEA07
:10297000030319407B6802F1080243F822107B88A8
:102980004FEAD3039BB21A467B6802F1080253F860
:102990002220FB681343BB607B884FEAD3039BB2C2
:1029A0001A467B6802F10802B96843F8221007F161
:1029B0001407BD4680BC704780B500AF4FF460532C
:1029C000C4F202034FF46052C4F20202126842F0F1
:1029D00001021A604FF46053C4F202034FF0000288
:1029E0009A604FF46053C4F202034FF46052C4F291
:1029F0000202126822F0847222F480321A604FF4CC
:102A00006053C4F2020343F21002C2F200425A6061
:102A10004FF46053C4F202034FF46052C4F2020256
:102A2000126822F480221A604FF46053C4F2020349
:102A30004FF00002DA6000F0C1F84FF46D43CEF2BF
:102A400000034FF000629A6080BD00BF80B487B081
:102A500000AF4FF000033B614FF000037B614FF08C
:102A60000203FB604FF00003BB604FF002037B608A
:102A70004FF46053C4F202039B6803F00C033B6104
:102A80003B69042B0DD0082B15D0002B69D140F2E7
:102A90008473C2F200034FF41052C0F2F4021A60C1
:102AA00069E040F28473C2F200034FF49052C0F226
:102AB0007A021A605FE04FF46053C4F202035B686D
:102AC00003F480034FEA9353BB604FF46053C4F2A6
:102AD00002035B6803F03F037B60BB68002B14D0EC
:102AE0004FF49053C0F27A037A68B3FBF2F24FF4DA
:102AF0006053C4F20203596847F6C0730B404FEAB3
:102B0000931303FB02F37B6113E04FF41053C0F205
:102B1000F4037A68B3FBF2F24FF46053C4F2020399
:102B2000596847F6C0730B404FEA931303FB02F357
:102B30007B614FF46053C4F202035B6803F44033DB
:102B40004FEA134303F101034FEA4303FB607A6941
:102B5000FB68B2FBF3F240F28473C2F200031A6026
:102B600009E040F28473C2F200034FF41052C0F245
:102B7000F4021A6000BF4FF46053C4F202039B6872
:102B800003F0F0034FEA131240F28873C2F200031D
:102B90009B5CDBB23B6140F28473C2F200031A68B3
:102BA0003B6922FA03F240F28473C2F200031A6016
:102BB00007F11C07BD4680BC704700BF80B483B0DE
:102BC00000AF4FF000037B604FF000033B604FF419
:102BD0006053C4F202034FF46052C4F2020212685E
:102BE00042F480321A604FF46053C4F202031B684F
:102BF00003F400333B607B6803F101037B603B68B7
:102C0000002B03D17B68B3F5A06FECD14FF4605378
:102C1000C4F202031B6803F40033002B03D04FF00F
:102C200001033B6002E04FF000033B603B68012B77
:102C300040F082804FF46053C4F202034FF46052BC
:102C4000C4F20202126C42F080521A644FF4E04364
:102C5000C4F200034FF4E042C4F20002126842F4EE
:102C600080421A604FF46053C4F202034FF4605282
:102C7000C4F2020292689A604FF46053C4F20203F5
:102C80004FF46052C4F20202926842F400429A6029
:102C90004FF46053C4F202034FF46052C4F20202D4
:102CA000926842F4A0529A604FF46053C4F2020357
:102CB00045F20842C0F240725A604FF46053C4F2C9
:102CC00002034FF46052C4F20202126842F08072B2
:102CD0001A6000BF4FF46053C4F202031B6803F094
:102CE0000073002BF6D04FF47053C4F2020340F28D
:102CF00005621A604FF46053C4F202034FF460524D
:102D0000C4F20202926822F003029A604FF4605308
:102D1000C4F202034FF46052C4F20202926842F01D
:102D200002029A6000BF4FF46053C4F202039B6832
:102D300003F00C03082BF6D107F10C07BD4680BC4D
:102D4000704700BF80B485B000AF78604FF00003DB
:102D5000FB734FF00003BB734FF00F037B737B6873
:102D6000DB78002B45D04FF46D43CEF20003DB68D7
:102D70006FEA030303F4E0634FEA1323FB73FB7B67
:102D8000C3F10403BB737A7BFB7B42FA03F37B73CF
:102D90007B685B781A46BB7B02FA03F3FB737B68A4
:102DA0009A787B7B1340DAB2FB7B1343FB73FB7B8C
:102DB0004FEA0313FB734FF46143CEF200037A68CA
:102DC00012789B18FA7B83F800234FF46143CEF20C
:102DD00000037A6812784FEA5212D2B27968097801
:102DE00001F01F014FF0010000FA01F143F8221039
:102DF00014E04FF46143CEF200037A6812784FEA90
:102E00005212D2B27968097801F01F014FF0010027
:102E100000FA01F102F1200243F8221007F1140731
:102E2000BD4680BC704700BF80B586B000AF03468A
:102E3000FB71F97944F2F032C0F600020B464FEA1A
:102E4000C3035B1A4FEA8303D3181B683B61F9790C
:102E500044F2F032C0F600020B464FEAC3035B1A9D
:102E60004FEA8303D3189B88FB81F97944F2F0324F
:102E7000C0F600020B464FEAC3035B1A4FEA830316
:102E8000D3189B79002B02D0012B08D00FE0FB89CF
:102E900038691946FFF700FD0346FB7508E0FB891A
:102EA00038691946FFF716FD0346FB7500E000BFC1
:102EB000F97944F2F032C0F600020B464FEAC30340
:102EC0005B1A4FEA8303D318DB79002B10D0012B58
:102ED0001DD1FB7D002B05D0012B07D14FF0000346
:102EE000BB7504E04FF00103BB7500E000BF0EE0CE
:102EF000FB7D002B05D0012B07D14FF00103BB75E3
:102F000004E04FF00003BB7500E000BF00BFBB7DD5
:102F1000184607F11807BD4680BD00BF90B585B0C3
:102F200000AF0B463A600246FA71BB714FF00003E6
:102F3000FB73FB79002B02D0012B23D06BE0B97916
:102F400044F2F032C0F600020B464FEAC3035B1AAC
:102F50004FEA8303D3181B6818463968FEF74AFB0B
:102F6000B97944F2F032C0F600020B464FEAC303CF
:102F70005B1A4FEA8303D3189B8818463968FEF71B
:102F8000D9FB49E0BB791846FFF74EFF0346FB73B8
:102F9000FB7B002B1FD0012B3BD1386820494FF021
:102FA000090200F083FC3C68204600F04FFC034619
:102FB000E21844F29453C0F6000303CB1060516052
:102FC00019889B7811819372386816494FF009026D
:102FD00000F06CFC1EE0386813494FF0090200F065
:102FE00065FC3C68204600F031FC0346E21844F2E0
:102FF000A053C0F60003144607CB20606160A260B6
:103000001B782373386807494FF0090200F04EFC23
:1030100000E000BF00E000BF07F11407BD4690BD0F
:10302000524500087F4500084945000890B587B023
:1030300000AF0346B9607A60FB73F97B44F2B0528B
:10304000C0F600020B464FEAC3035B1A4FEA830344
:10305000D31803F118031B68184600F0C1F80346A3
:103060001C46F97B44F2B052C0F600020B464FEA10
:10307000C3035B1A4FEA8303D31803F110031B68E1
:10308000184600F04DF9034640F62001C2F2000157
:103090001A464FEA4202D2184FEA82031A462346E2
:1030A0004FEA43031B194FEA0313D318CB185B797C
:1030B000FB75FB7D002B08D1BB684FF000021A6046
:1030C0007B684FF000021A7079E0F97B44F2B0524D
:1030D000C0F600020B464FEAC3035B1A4FEA8303B4
:1030E000D31803F118031B68184600F079F803465B
:1030F0001C46F97B44F2B052C0F600020B464FEA80
:10310000C3035B1A4FEA8303D31803F110031B6850
:10311000184600F005F9034640F62001C2F200010E
:103120001A464FEA4202D2184FEA82031A46234651
:103130004FEA43031B194FEA0313D318CB181A683D
:10314000BB681A60F97B44F2B052C0F600020B462D
:103150004FEAC3035B1A4FEA8303D31803F1180342
:103160001B68184600F03CF803461C46F97B44F205
:10317000B052C0F600020B464FEAC3035B1A4FEA97
:103180008303D31803F110031B68184600F0C8F836
:10319000034640F62001C2F200011A464FEA4202FD
:1031A000D2184FEA82031A4623464FEA43031B19FB
:1031B0004FEA0313D318CB181A797B681A7007F1FA
:1031C0001C07BD4690BD00BF80B400AF00BFBD4628
:1031D00080BC704780B400AF00BFBD4680BC704764
:1031E00080B483B000AF78607B684FF4C052C4F203
:1031F0000002934200F082804FF4C052C4F20002F9
:10320000934228D84FF40062C4F2000293425DD08A
:103210004FF40062C4F20002934209D8B3F1804F28
:103220004ED04FF48062C4F2000293424BD06EE065
:103230004FF48052C4F2000293424DD04FF4A0529A
:10324000C4F2000293424AD04FF44062C4F200023A
:1032500093423ED05BE04FF48062C4F2010293429D
:1032600040D04FF48062C4F20102934212D84FF46E
:103270000052C4F20002934246D04FF00002C4F262
:103280000102934219D04FF4E052C4F2000293427B
:1032900037D03CE04FF48842C4F20102934227D079
:1032A0004FF49042C4F20102934224D04FF4804282
:1032B000C4F20102934218D029E04FF0000328E045
:1032C0004FF0010325E04FF0020322E04FF003032B
:1032D0001FE04FF004031CE04FF0050319E04FF02E
:1032E000060316E04FF0070313E04FF0080310E069
:1032F0004FF009030DE04FF00A030AE04FF00B0313
:1033000007E04FF00C0304E04FF00D0301E04FF035
:103310000F03184607F10C07BD4680BC704700BF7D
:1033200080B483B000AF78607B680C2B28D801A2F2
:1033300052F823F069330008813300088133000814
:10334000813300086F33000881330008813300089F
:103350008133000875330008813300088133000889
:10336000813300087B3300084FF000030AE04FF080
:10337000010307E04FF0020304E04FF0030301E014
:103380004FF00503184607F10C07BD4680BC704797
:1033900090B58DB000AF0B463A600246FA71BB7132
:1033A00007F11C0318464FF000014FF00C0200F02B
:1033B000B7F907F10C0318464FF000014FF00F0268
:1033C00000F0AEF9FB79002B02D0012B23D0C8E02E
:1033D000B97944F2B052C0F600020B464FEAC3037B
:1033E0005B1A4FEA8303D3181B6818463968FEF747
:1033F00001F9B97944F2B052C0F600020B464FEA27
:10340000C3035B1A4FEA8303D3189B8818463968B5
:10341000FEF790F9A6E0B97907F12C0207F12B032A
:10342000084611461A46FFF701FEFB6A002B7FD0C3
:10343000FA6A40F2E7339A4232D8FB6A4FF06402EC
:1034400002FB03F244F24023C0F20F03B3FBF2F39A
:1034500007F10C0210464FF0030144F25472C0F61B
:103460000002FFF73BF8386840494FF0090200F0CE
:103470001DFA07F10C03386819464FF00F0200F0EF
:1034800015FA3C68204600F0E1F90346E21844F2E0
:103490005873C0F60003186810601B7913712BE095
:1034A000FA6A44F24023C0F20F03B3FBF2F307F1D0
:1034B0000C0210464FF0030144F25472C0F60002B1
:1034C000FFF70CF8386829494FF0090200F0EEF9CF
:1034D00007F10C03386819464FF00F0200F0E6F9C7
:1034E0003C68204600F0B2F90346E21844F26073EB
:1034F000C0F600031868106097F82B3007F11C0223
:1035000010464FF00C0144F26472C0F60002FEF760
:10351000E5FF07F11C03386819464FF00C0200F074
:10352000C5F9386812494FF0090200F0BFF919E0F7
:10353000386810494FF0090200F0B8F93C6820469D
:1035400000F084F90346E21844F27073C0F60003F9
:1035500018681060386808494FF0090200F0A6F9B1
:1035600000E000BF07F13407BD4690BD12470008D8
:103570003F470008094700084847000880B483B067
:1035800000AF78607B68DB6B184607F10C07BD461F
:1035900080BC704780B483B000AF786013460A46A1
:1035A0007A807B707B78002B08D07B689B899AB2ED
:1035B0007B8813439AB27B689A810AE07B689B8977
:1035C0009AB27B886FEA03039BB213409AB27B687E
:1035D0009A8107F10C07BD4680BC70470F2A2DE980
:1035E000F00340F2958041EA00039B0740F092808F
:1035F0000C6804604D6845608E68A2F11003866017
:10360000CC681D460F2DC460C3F3001601F11004F1
:1036100000F1100322D966B126681E6066685E60FC
:10362000A6689E60E668103DDE60103410330F2DF2
:1036300014D926681E6066685E60A6689E60E668AB
:10364000DE6026691E6166695E61A6699E61E66943
:10365000203DDE61203420330F2DEAD8A2F1100383
:1036600023F00F0402F00F031034032B00EB0408C7
:10367000214451D9A3F104090B464FEA990901EB02
:10368000890C53F8046BC1EB0C0544460CF1040C97
:10369000634544F8046BC5F3800512D02DB153F88F
:1036A000045B634544F8045B0BD01E46254656F880
:1036B000047B45F8047B5F68331D67602C1D634500
:1036C000F3D109F101039C00091902F003024444FB
:1036D000DAB123460D7803F8015BA218E44314190C
:1036E000934204F0010410D02CB111F8014F03F8FB
:1036F000014B934209D04D781C4604F8015B8D784C
:103700005D70631C02319342F5D1BDE8F003704750
:103710000446DDE70446DCE744461A46D8E700BF26
:10372000F0B48407034600F08E80541E002A00F097
:103730008880E507CEB211D41A46671E02F8016BE5
:103740001346154692070FD0002C7AD003F8016B70
:103750009A073C461D4607D0013CEDE7034603F8B7
:10376000016B9A071D46F7D1032C52D9CEB246EA17
:1037700006270F2C47EA07432DD9A4F1100217465C
:103780000F2FC2F300162B606B60AB60EB6005F18E
:10379000100216D93EB1103F136053609360D3609E
:1037A00010320F2F0DD9203F02F110061360536025
:1037B0009360D360136153619361D36120320F2F03
:1037C000F1D8A4F1100222F00F0204F00F0410321D
:1037D000032C15441DD9271F3E462A46032E42F8C6
:1037E000043BC7F380070DD927B1043E032E42F8EE
:1037F000043B07D91746083E47F8043B53603A1D7F
:10380000032EF7D8231F23F00302131D04F0030433
:10381000ED18B4B12B46C9B203F8011B2C19ED43C6
:103820006219A34202F001050BD01DB103F8011B80
:10383000A34206D01A4602F8011B5970531CA3423A
:10384000F8D1F0BC7047054614468DE720F003011F
:1038500010F00300C0F1000051F8043B00F1040C2B
:103860004FEACC0C6FF000021CBF22FA0CF213439B
:103870004FF0010C4CEA0C2C4CEA0C4CA3EB0C0264
:1038800022EA030212EACC1204BF51F8043B0430CE
:10389000F4D013F0FF0F1FBF013013F47F4F01303E
:1038A00013F47F0F18BF0130704700BF70B4840756
:1038B00013D10368A3F1013424EA030515F0803F16
:1038C0000BD1031D1C4653F8045BA5F1013626EA13
:1038D000050515F0803FF5D000E0044623782BB1B4
:1038E000661C344601362578002DFAD14E1E651E21
:1038F000D30706D50E4609782546013A2170A9B1AD
:10390000B2B1531E92B171786A1C6970013669B107
:1039100003B9537071785C1E5170551C013629B182
:1039200004B96C705A1E531E002AECD170BC70474B
:103930006270E6E7F0B4002A00F0838041EA0003F9
:1039400013F003052ED0551E03780A78934226D132
:10395000002D7AD0002B7AD001358C1C4D192B1BF1
:10396000DB0716D510F8013F14F8012C934216D14D
:10397000CC1C73B936E0AC4234D00134002B31D0CA
:1039800010F8013F14F8012C934208D10134002BA8
:1039900028D014F8012C10F8013F9342EBD0981A6C
:1039A000F0BC7047032ACED904680B689C42CAD188
:1039B000131F4CD0A4F1013222EA040414F0803F1A
:1039C00043D15A072FD54C68426804310430A242D3
:1039D00039D1043B06D0A2F1013424EA020212F0EC
:1039E000803F20D00020DBE772686468A2F10135D7
:1039F000A24225EA020526D1043B00F1040001F1B0
:103A00000401EFD015F0803FECD1DCF804207C6895
:103A1000A2F10135A24225EA020514D1043BE1D00E
:103A200015F0803FDED10C46064604310430032BEE
:103A300084460F46D8D85D1E002B85D13379227974
:103A4000ADE71046ACE75D1E7EE72846A8E71846BE
:103A5000A6E700BF41EA00039B07F0B475D1032A33
:103A600073D90B46161F53F8045BA5F1013727EAFB
:103A7000050717F0803F0446C6F3800C31D1044699
:103A8000032E324644F8045B2AD9BCF1000F0AD059
:103A9000194653F8045BA5F1013626EA050616F02F
:103AA000803F18D01DE01E46194656F8045BA5F16C
:103AB000013727EA050717F0803F12D144F8045B6D
:103AC0005D68A5F10133314623EA0506043A0B1D72
:103AD00016F0803F05D1043A032A44F8045BE2D88B
:103AE000194682B30D78013A04F8015B9DB112F0DA
:103AF000010F23462BD11C462AB311F8015F013A6E
:103B000004F8015B3DB111F8015F5D70631C013A7F
:103B10001C46002DEFD1B2B12346002103F8011B52
:103B2000A518E4432A19AB4202F001040BD01CB1E2
:103B300003F8011BAB4206D01A4602F8011B59706C
:103B4000531CAB42F8D1F0BC70470446C9E723468A
:103B500011F8015F03F8015B013A1C46002DCAD140
:103B6000D9E700BF000000000000000000000000D6
:103B70000000000000000000000000000000000045
:103B8000000802404000020002000000080000009F
:103B90000000000000000000001401400008024086
:103BA0008000020002000000080000000000000089
:103BB0000000000000140140000402400008010061
:103BC00000000200000000000000000000000000F3
:103BD0000000000000000240080002000200000097
:103BE000010000000C000000000000000000004088
:103BF000000C0240008002000200000002000000F1
:103C00000C0000000000000000080040000002401E
:103C100001000000000000000000000000000000A3
:103C2000000000000000000000040240100002003C
:103C30000200000002000000000000000000000080
:103C400000040040000402402000020002000000C6
:103C5000020000000400000000000000000400401A
:103C60000004024001000200020000000200000007
:103C700008000000000000000004004000040240B2
:103C80000200020002000000020000000C00000020
:103C90000000000000040040000002400400020098
:103CA0000200000001000000080000000000000009
:103CB000000000401B5B33306D000000001B5B33D5
:103CC000316D000000001B5B33326D000000001BF3
:103CD0005B33336D000000001B5B33346D0000006C
:103CE000001B5B33356D000000001B5B33366D003D
:103CF0000000001B5B33376D000000001B5B333995
:103D00006D000000000000001E0000003C000000EC
:103D1000500000001B5B25643B256466000000002A
:103D20002E2E00004E6F6D0000000000000000000D
:103D30000000000000000000000000000000000083
:103D4000000050696E00000000000000000000004C
:103D50000000000000000000000000000000000063
:103D600056616C65757200000000000000000000E4
:103D70000000000000000000000000000000000043
:103D8000200000002564206D696E202564207300EA
:103D900030206D696E202564207300002564206D3D
:103DA000730000002564207573000000000000000F
:103DB0000000000000000000000000000000000003
:103DC0000000000000000000000802404000020067
:103DD00002000000080000000000000000000000D9
:103DE00000140140000802408000020002000000B0
:103DF0000800000000000000000000000014014066
:103E00000004024000080100000002000000000061
:103E10000000000000000000000000000000024060
:103E20000800020002000000010000000C00000079
:103E30000000000000000040000C02400080020072
:103E400002000000020000000C0000000000000062
:103E500000080040000002400100000000000000D7
:103E60000000000000000000000000000000000052
:103E700000040240100002000200000002000000E6
:103E800000000000000000000004004000040240A8
:103E900020000200020000000200000004000000F8
:103EA0000000000000040040000402400100020085
:103EB00002000000020000000800000000000000F6
:103EC0000004004000040240020002000200000062
:103ED000020000000C000000000000000004004090
:103EE0000000024004000200020000000100000087
:103EF0000800000000000000000000400008000072
:103F000000000001000000000000000000000000B0
:103F100000000000000000000000000000000000A1
:103F200000080240400002000200000008000000FB
:103F300000000000000000000014014000080240E2
:103F400080000200020000000800000000000000E5
:103F500000000000001401400004024000080100BD
:103F6000000002000000000000000000000000004F
:103F700000000000000002400800020002000000F3
:103F8000010000000C0000000000000000000040E4
:103F9000000C02400080020002000000020000004D
:103FA0000C0000000000000000080040000002407B
:103FB0000100000000000000000000000000000000
:103FC0000000000000000000000402401000020099
:103FD00002000000020000000000000000000000DD
:103FE0000004004000040240200002000200000023
:103FF0000200000004000000000000000004004077
:104000000004024001000200020000000200000063
:10401000080000000000000000040040000402400E
:104020000200020002000000020000000C0000007C
:1040300000000000000400400000024004000200F4
:104040000200000001000000080000000000000065
:10405000000000405054410050544200505443006E
:1040600050544400505445005054460050544700AA
:104070005054480050544900300000003100000006
:104080003200000033000000340000003500000062
:104090003600000037000000380000003900000042
:1040A0003130000031310000313200003133000086
:1040B0003134000031350000000000000000000035
:1040C00000000000000000000000000000000000F0
:1040D0000000000000080240400002000200000052
:1040E0000800000000000000000000000014014073
:1040F00000080240800002000200000008000000EA
:104100000000000000000000001401400004024014
:104110000008010000000200000000000000000094
:104120000000000000000000000002400800020043
:1041300002000000010000000C0000000000000070
:1041400000000040000C024000800200020000005D
:10415000020000000C000000000000000008004009
:10416000000002400100000000000000000000000C
:1041700000000000000000000000000000040240F9
:104180001000020002000000020000000000000019
:104190000000000000040040000402402000020073
:1041A0000200000002000000040000000000000007
:1041B0000004004000040240010002000200000070
:1041C00002000000080000000000000000040040A1
:1041D0000004024002000200020000000200000091
:1041E0000C0000000000000000040040000002403D
:1041F00004000200020000000100000008000000AE
:104200000000000000000040737464696F2E633A80
:1042100020696E637265617365204D41585F535428
:1042200052494E475F53495A450A0D0000000000AD
:10423000000000000000000000000000000000007E
:1042400000000000000000000008024040000200E2
:104250000200000008000000000000000000000054
:10426000001401400008024080000200020000002B
:1042700008000000000000000000000000140140E1
:1042800000040240000801000000020000000000DD
:1042900000000000000000000000000000000240DC
:1042A0000800020002000000010000000C000000F5
:1042B0000000000000000040000C024000800200EE
:1042C00002000000020000000C00000000000000DE
:1042D0000008004000000240010000000000000053
:1042E00000000000000000000000000000000000CE
:1042F0000004024010000200020000000200000062
:104300000000000000000000000400400004024023
:104310002000020002000000020000000400000073
:104320000000000000040040000402400100020000
:104330000200000002000000080000000000000071
:1043400000040040000402400200020002000000DD
:10435000020000000C00000000000000000400400B
:104360000000024004000200020000000100000002
:104370000800000000000000000000401B5B33301C
:104380006D000000001B5B33316D000000001B5B03
:1043900033326D000000001B5B33336D0000000002
:1043A0001B5B33346D000000001B5B33356D000078
:1043B00000001B5B33366D000000001B5B33376D64
:1043C000000000001B5B33396D000000000000009E
:1043D0001B5B324A000000001B5B48001B5B3F3246
:1043E000356C00001B5B3325646D00001B5A000018
:1043F00000000000000000000000000000000000BD
:104400000000000000000000000000000008024062
:104410004000020002000000080000000000000050
:10442000000000000014014000080240800002006B
:104430000200000008000000000000000000000072
:1044400000140140000402400008010000000200C6
:10445000000000000000000000000000000000005C
:1044600000000240080002000200000001000000FD
:104470000C0000000000000000000040000C0240A2
:104480000080020002000000020000000C0000009A
:104490000000000000080040000002400100000091
:1044A000000000000000000000000000000000000C
:1044B00000000000000402401000020002000000A2
:1044C00002000000000000000000000000040040A6
:1044D0000004024020000200020000000200000070
:1044E000040000000000000000040040000402403E
:1044F00001000200020000000200000008000000AD
:10450000000000000004004000040240020002001D
:1045100002000000020000000C000000000000008B
:1045200000040040000002400400020002000000FD
:104530000100000008000000000000000000004032
:104540001B5B33306D000000001B5B33316D0000DE
:1045500000001B5B33326D000000001B5B33336DCA
:10456000000000001B5B33346D000000001B5B3358
:10457000356D000000001B5B33366D000000001B32
:104580005B33376D000000001B5B33396D000000AA
:104590000000000045746174204163746966000086
:1045A0004574617420496E6163746966000000009F
:1045B00000000000000000000000000000000000FB
:1045C00000000000000000000000000000080240A1
:1045D000400002000200000008000000000000008F
:1045E00000000000001401400008024080000200AA
:1045F00002000000080000000000000000000000B1
:104600000014014000040240000801000000020004
:10461000000000000000000000000000000000009A
:10462000000002400800020002000000010000003B
:104630000C0000000000000000000040000C0240E0
:104640000080020002000000020000000C000000D8
:1046500000000000000800400000024001000000CF
:10466000000000000000000000000000000000004A
:1046700000000000000402401000020002000000E0
:1046800002000000000000000000000000040040E4
:1046900000040240200002000200000002000000AE
:1046A000040000000000000000040040000402407C
:1046B00001000200020000000200000008000000EB
:1046C000000000000004004000040240020002005C
:1046D00002000000020000000C00000000000000CA
:1046E000000400400000024004000200020000003C
:1046F0000100000008000000000000000000004071
:104700001B5B33306D000000001B5B33316D00001C
:1047100000001B5B33326D000000001B5B33336D08
:10472000000000001B5B33346D000000001B5B3396
:10473000356D000000001B5B33366D000000001B70
:104740005B33376D000000001B5B33396D000000E8
:104750000000000025640000204B487A00000000A3
:1047600020487A002025642070723130300000002B
:044770004F6666002A
:1047740054696D657374616D700000000000000081
:104784000000000000000000000000000000000025
:104794000000000000000000000000000000000015
:1047A4000000000000000000000000000000000005
:1047B40000000000000000000000000000000000F5
:1047C40000000000890800080100000054656D70B5
:1047D4007320646520426F75636C65204D6F796545
:1047E4006E00000000000000000000000000000057
:1047F40000000000000000000000000000000000B5
:1048040000000000000000000000000000000000A4
:104814000000000000000000000000000000000094
:104824003D09000801000000496D70756C20534972
:10483400202843616D6572612900000000000000BA
:104844000000000000000300000000000000000061
:104854000000000000000000000000000000000054
:104864000000000000000000000000000000000044
:104874000000000000000000000000001D2F0008E0
:104884000100000050574D20446972656374696FDC
:104894006E2028536572766F20467574756261299F
:1048A40000000500000000000000000000000000FF
:1048B40000000000000000000000000000000000F4
:1048C40000000000000000000000000000000000E4
:1048D4000000000000000000913300080100000007
:1048E40050574D2053434C4B202843616D657261F2
:1048F4002900000000000000000000000000040087
:1049040000000000000000000000000000000000A3
:104914000000000000000000000000000000000093
:104924000000000000000000000000000000000083
:1049340000000000913300080100000050574D2092
:1049440048422041312028447276204D6F746575A9
:1049540072290000000000000000070000000000B1
:104964000000000000000000000000000000000043
:104974000000000000000000000000000000000033
:104984000000000000000000000000000000000023
:10499400913300080100000050574D204842204147
:1049A400322028447276204D6F7465757229000098
:1049B40000000000000008000000000000000000EB
:1049C40000000000000000000000000000000000E3
:1049D40000000000000000000000000000000000D3
:1049E40000000000000000000000000091330008F7
:1049F4000100000050574D204842204231202844F5
:104A04007276204D6F7465757229000000000000F5
:104A14000000090000000000000000000000000089
:104A24000000000000000000000000000000000082
:104A34000000000000000000000000000000000072
:104A44000000000000000000913300080100000095
:104A540050574D2048422042322028447276204D3F
:104A64006F746575722900000000000000000A00E0
:104A74000000000000000000000000000000000032
:104A84000000000000000000000000000000000022
:104A94000000000000000000000000000000000012
:104AA4000000000091330008010000000000000035
:104AB4000102030401020304060708090408002094
:104AC40000000000000000000100000000000000E1
:104AD40000000000000000000000000000000000D2
:104AE40000000000000000000000000000000000C2
:104AF40000000000000000000000000000000000B2
:104B040000000000000000000000000000000000A1
:104EE400000000000000000050030020000000004B
:104EF40000030100007A030A000000000000000023
:084F040001020304060708097D
:0400000508000000EF
:00000001FF
