:020000040800F2
:1000000070170020610B0008CD0B0008CD0B000815
:10001000CD0B0008CD0B0008CD0B00080000000040
:10002000000000000000000000000000CD0B0008F0
:10003000CD0B000800000000CD0B000815210008C2
:10004000CD0B0008CD0B0008CD0B0008CD0B000830
:10005000CD0B0008CD0B0008CD0B0008CD0B000820
:10006000CD0B0008CD0B0008CD0B0008CD0B000810
:10007000CD0B0008CD0B0008CD0B0008CD0B000800
:10008000CD0B0008CD0B00086D0E0008CD0B00084D
:10009000CD0B0008CD0B0008CD0B0008CD0B0008E0
:1000A000CD0B0008CD0B0008CD0B0008CD0B0008D0
:1000B000C90D0008810D0008CD0B0008CD0B00080C
:1000C000CD0B0008CD0B0008CD0B0008CD0B0008B0
:1000D000CD0B0008CD0B0008CD0B0008CD0B0008A0
:1000E000CD0B0008CD0B0008CD0B0008CD0B000890
:1000F000CD0B0008CD0B0008CD0B0008CD0B000880
:10010000CD0B0008CD0B0008CD0B0008CD0B00086F
:10011000CD0B0008CD0B0008CD0B0008CD0B00085F
:10012000CD0B0008CD0B0008CD0B0008CD0B00084F
:10013000CD0B0008CD0B0008CD0B0008CD0B00083F
:10014000CD0B0008CD0B0008CD0B0008CD0B00082F
:10015000CD0B0008CD0B0008CD0B00082D1A0008B0
:10016000CD0B0008CD0B0008CD0B0008CD0B00080F
:10017000CD0B0008CD0B0008CD0B0008CD0B0008FF
:10018000CD0B0008CD0B000880B58AB000AF7860B9
:1001900039604FF000037B624FF000033B624FF089
:1001A0000003FB614FF00003BB617B681B8A9BB2BD
:1001B0007B627B6A23F440537B623B68DB887A6A0C
:1001C00013437B627B6A9AB27B681A827B689B8945
:1001D0009BB27B627B6A23F4B05323F00C037B62F7
:1001E0003B689A883B681B8913439AB23B685B89DA
:1001F00013439BB27A6A13437B627B6A9AB27B6831
:100200009A817B689B8A9BB27B627B6A23F44073F2
:100210007B623B689B897A6A13437B627B6A9AB2F2
:100220007B689A8207F10803184600F0FFFF7A689E
:100230004FF48053C4F201039A4206D07A684FF417
:10024000A053C4F201039A4202D17B693B6201E0F0
:100250003B693B627B689B899BB29BB21BB2002BC4
:100260000FDA3A6A13464FEA83039B184FEA830278
:100270009A183B681B684FEA4303B2FBF3F3FB6138
:100280000EE03A6A13464FEA83039B184FEA830253
:100290009A183B681B684FEA8303B2FBF3F3FB61D8
:1002A000FA6948F21F53C5F2EB13A3FB02134FEA9E
:1002B00053134FEA03137B627B6A4FEA13134FF029
:1002C000640202FB03F3FA69D31ABB617B689B8962
:1002D0009BB29BB21BB2002B12DABB694FEAC3037D
:1002E00003F1320248F21F53C5F2EB13A3FB0213D2
:1002F0004FEA531303F007037A6A13437B6211E05A
:10030000BB694FEA031303F1320248F21F53C5F2EF
:10031000EB13A3FB02134FEA531303F00F037A6AA4
:1003200013437B627B6A9AB27B681A8107F12807C4
:10033000BD4680BD80B483B000AF78600B46FB70D3
:10034000FB78002B08D07B689B899BB243F4005359
:100350009AB27B689A8107E07B689B899BB223F401
:1003600000539AB27B689A8107F10C07BD4680BCA6
:10037000704700BF80B483B000AF78600B467B80CD
:100380007B884FEAC3534FEAD3539AB27B689A8073
:1003900007F10C07BD4680BC704700BF80B483B036
:1003A00000AF78607B689B889BB24FEAC3534FEAEB
:1003B000D3539BB2184607F10C07BD4680BC70476B
:1003C00080B487B000AF786013460A467A807B70AD
:1003D0004FF000033B614FF00003FB604FF0000360
:1003E000BB604FF000037B617B687B617B88DBB285
:1003F0004FEA5313DBB23B617B8803F01F03FB60C2
:10040000FB684FF0010202FA03F3BB603B69012B6A
:1004100004D17B6903F10C037B610BE03B69022B88
:1004200004D17B6903F110037B6103E07B6903F175
:1004300014037B617B78002B06D07B697A69116895
:10044000BA680A431A6007E07B697A691168BA687A
:100450006FEA02020A401A6007F11C07BD4680BC21
:10046000704700BF80B485B000AF78600B467B80DA
:100470004FF00003FB737B681B889AB27B881340A4
:100480009BB2002B03D04FF00103FB7302E04FF04F
:100490000003FB73FB7B184607F11407BD4680BCC5
:1004A000704700BF80B487B000AF78600B467B8098
:1004B0004FF00003FB604FF000037B614FF000033F
:1004C000BB604FF00003FB747B88DBB24FEA531331
:1004D000DBB2BB607B8803F01F037B617B694FF05D
:1004E000010202FA03F37B61BB68012B06D17B6832
:1004F0009B899BB27A6913407B610FE0BB68022B3A
:1005000006D17B681B8A9BB27A6913407B6105E048
:100510007B689B8A9BB27A6913407B617B884FEA38
:1005200013239BB2FB60FB684FF0010202FA03F356
:10053000FB607B681B889BB2FA681340FB607B6999
:10054000002B06D0FB68002B03D04FF00103FB7497
:1005500002E04FF00003FB74FB7C184607F11C0718
:10056000BD4680BC704700BF80B485B000AF7860E6
:100570000B467B804FF00003FB814FF00003BB81F3
:100580007B884FEA1323FB81FB894FF0010202FABB
:1005900003F3BB81BB896FEA03039AB27B681A80BD
:1005A00007F11407BD4680BC704700BF80B500AF9F
:1005B00002F0C2FE0346002B1ED040F64613C2F2E4
:1005C00000031B78002B02D0012B0AD013E000F0AF
:1005D00049F803461A4640F64613C2F200031A7061
:1005E0000AE000F02BF903461A4640F64613C2F221
:1005F00000031A7000E000BF80BD00BF80B500AFEF
:1006000040F64413C2F200031B8803F101039AB2BF
:1006100040F64413C2F200031A8040F64413C2F2BB
:1006200000031B88B3F5FA6F1AD140F62810C2F206
:10063000000001F05DFD024640F64013C2F20003E7
:100640001A6040F62810C2F200004FF47A7101F0EF
:100650001BFD40F64413C2F200034FF000021A8063
:1006600080BD00BF90B5ABB000AF4FF00003C7F83E
:10067000A43046F26823C0F6000307F148011A4689
:100680004FF05A03084611461A4605F099F94FF003
:100690000003C7F8A43024E046F24C23C0F6000360
:1006A000D7F8A42053F8223046F25820C0F60000B4
:1006B0004FF003011A4602F0A3FB07F14801D7F8F7
:1006C000A42013464FEA03139B1A4FEA4303CB18A7
:1006D000184602F095FBD7F8A43003F10103C7F8E0
:1006E000A430D7F8A430022BD6D946F25820C0F651
:1006F00000004FF004014FF0140202F081FB4FF0B4
:100700000003C7F8A4300BE046F26420C0F60000F6
:1007100002F076FBD7F8A43003F10103C7F8A43048
:10072000D7F8A4302C2BEFD94FF00003C7F8A43032
:1007300079E040F20003C2F20003D7F8A4204FF0A2
:100740005C0101FB02F29B1803F158031B78012B9B
:1007500063D107F1040318464FF000014FF0110276
:1007600005F0D0F9D7F8A43003F105031A4646F294
:100770004C23C0F600031B6846F25820C0F6000068
:1007800011461A4602F03CFBD7F8A4304FF05C0249
:1007900002FB03F240F20003C2F20003D318184632
:1007A00002F02EFBD7F8A43003F105031A4646F2F7
:1007B0004C23C0F600035B6846F25820C0F60000E8
:1007C00011461A4602F01CFB40F20003C2F200037D
:1007D000D7F8A4204FF05C0101FB02F29B1803F153
:1007E00054031C6840F20003C2F20003D7F8A420AF
:1007F0004FF05C0101FB02F29B1803F118039B7997
:100800001A4607F104034FF0000011461A46A047AC
:1008100007F10403184602F0F3FAD7F8A43003F105
:100820000103C7F8A430D7F8A430012B81D94FF0C9
:100830000103184607F1AC07BD4690BD90B591B0D5
:1008400000AF4FF0000387F83F304FF00003BB6369
:100850004FF00003BB63CFE040F20003C2F200039D
:10086000BA6B4FF05C0101FB02F29B1803F15803D5
:100870001B78012B40F0BC803B4618464FF000012E
:100880004FF0320205F03EF940F20003C2F20003DD
:10089000BA6B4FF05C0101FB02F29B1803F15403A9
:1008A0001C6840F20003C2F20003BA6B4FF05C0117
:1008B00001FB02F29B1803F118039B791A463B4691
:1008C0004FF0010011461A46A047BB6B4FF05C0287
:1008D00002FB03F303F1180240F20003C2F200032B
:1008E000D31803F107043B46184605F0B7F9034651
:1008F0003A46204611461A4605F0E0F90346002B19
:1009000076D0BB6B4FF05C0202FB03F303F11802DD
:1009100040F20003C2F20003D31803F107043B4680
:10092000184605F09BF903463A46204611461A46FA
:1009300005F054FA3B46184605F090F90446BB6BA7
:100940004FF05C0202FB03F303F1180240F20003D4
:10095000C2F20003D31803F10703184605F07EF92D
:100960000346E31A7B637B6B002B2CDA4FF000030A
:1009700087F83F3020E03B46184605F06FF9034604
:10098000322B0DD03B46184605F068F903463A462F
:10099000D21846F2C423C0F600031B88138005E07A
:1009A0007B6BDBB2C3F1000387F83F3097F83F3031
:1009B00003F1010387F83F3097F83F207B6BC3F1C9
:1009C00000039A42D7DBBB6B03F105031A4646F2DC
:1009D0004C23C0F600039B6846F25820C0F6000086
:1009E00011461A4602F00CFA3B46184602F008FA85
:1009F000BB6B03F10103BB63BB6B012B7FF62CAF19
:100A00004FF00103184607F14407BD4690BD00BFF3
:100A100080B586B000AF0B463A600246FA71BB71F2
:100A2000FB79002B47D0012B43D101F055FB7861B6
:100A30007A6940F2E7339A423FD97A6944F6D35350
:100A4000C1F26203A3FB02134FEA93133B613B69BC
:100A50003B2B24D93A6948F68903C8F68803A3FBDF
:100A600002134FEA5313FB603A6948F68903C8F64C
:100A70008803A3FB02134FEA53110B464FEA0313FB
:100A80005B1A4FEA8303D31A3B61FA683B69386803
:100A900046F2C821C0F6000102F0C8F90DE03B693A
:100AA000386846F2D421C0F600011A4602F0BEF9B9
:100AB00003E000BF02E000BF00E000BF07F118073D
:100AC000BD4680BD80B582B000AF0B463A6002469D
:100AD000FA71BB71FB79002B3CD0012B38D140F669
:100AE0004013C2F200031A6840F69F739A4215D968
:100AF00040F64013C2F200031A6844F6D353C1F221
:100B00006203A3FB02134FEAD313386846F2E021D5
:100B1000C0F600011A4602F089F91CE040F64013C5
:100B2000C2F200031B684FF47A7202FB03F244F630
:100B3000D353C1F26203A3FB02134FEAD313386805
:100B400046F2E821C0F600011A4602F06FF902E011
:100B500000BF00E000BF07F10807BD4680BD00BF31
:100B600080B582B000AF46F6C003C0F600037B60DC
:100B700040F20003C2F200033B600BE07B681A689E
:100B80003B681A603B6803F104033B607B6803F138
:100B900004037B603A6840F62813C2F200039A42CD
:100BA000ECD3084808494FF000028842B8BF40F82B
:100BB000042BFFF6FAAF00F0D9FA07F10807BD469B
:100BC00080BD000028090020700F002080B400AF15
:100BD000FEE700BF80B483B000AF03463960FB710D
:100BE00097F90730002B10DA4FF46D43CEF2000373
:100BF000FA7902F00F02A2F104013A68D2B24FEA88
:100C00000212D2B25B181A760DE04FF46143CEF2B5
:100C1000000397F907103A68D2B24FEA0212D2B233
:100C20005B1883F8002307F10C07BD4680BC7047B2
:100C300080B582B000AF78607A686FF07F439A42E7
:100C400002D94FF001031FE04EF21003CEF2000371
:100C50007A6822F07F4202F1FF325A604FF0FF3093
:100C60004FF00F01FFF7B6FF4EF21003CEF2000374
:100C70004FF000029A604EF21003CEF200034FF0E4
:100C800007021A604FF00003184607F10807BD4637
:100C900080BD00BF80B58CB000AF07F120031846BF
:100CA00001F0A0FB07F10803184601F047FB4FF0E5
:100CB00000033B624FF000037B624FF00003BB6216
:100CC0004FF00003FB624FF00003BB604FF00003E6
:100CD0003B734FF000037B734FF000033B614FF019
:100CE00000037B614FF00003BB614FF001033B77D2
:100CF00007F12003184601F047FB4FF480704FF0D6
:100D0000010100F0CDFB07F108034FF40050C4F2DD
:100D10000100194601F0B6FA4FF40050C4F2010088
:100D200040F205214FF0010201F08EFC4FF012035A
:100D30003B714FF000037B714FF00003BB714FF02C
:100D40000103FB7107F10403184602F09FFE4FF404
:100D50000050C4F201004FF0010101F05DFB4FF4BF
:100D60000050C4F201004FF00B014FF001024FF0B0
:100D7000000301F06DFB07F13007BD4680BD00BFE9
:100D800080B500AF4FF48060C4F200004FF0020164
:100D90004FF0000204F0F4FA40F67813C2F20003B8
:100DA0001B78002B0AD14FF0040002F0E1FE40F660
:100DB0007813C2F200034FF001021A704FF00300E3
:100DC00003F03EF880BD00BF80B500AF4FF080401B
:100DD0004FF0100104F0F8FA40F67813C2F2000365
:100DE0001B78002B40D04FF40050C4F2010001F0FA
:100DF0000DFC40F67913C2F200031B78802B26D13C
:100E00004FF0040003F01CF84FF080404FF0100149
:100E10004FF0000204F0B4FA40F67913C2F2000376
:100E20004FF000021A7040F67813C2F200034FF040
:100E300000021A7040F65873C2F200031B6803F1F7
:100E4000010240F65873C2F200031A600CE040F64B
:100E50007913C2F200031B7803F10103DAB240F602
:100E60007913C2F200031A7080BD00BF98B500AFBD
:100E70004FF40050C4F2010042F21A0101F010FCDC
:100E80000346002B08D04FF40050C4F2010042F298
:100E90001A0101F03BFC27E04FF40050C4F20100BE
:100EA00040F2052101F0FCFB0346002B1CD040F66C
:100EB0007913C2F200031B7803F1FF344FF40050A2
:100EC000C4F2010001F0B2FB03461A4640F6585343
:100ED000C2F2000343F824204FF40050C4F2010092
:100EE00040F2052101F012FC98BD00BF80B483B030
:100EF00000AF4FF00003FB714FF00003BB714FF0E8
:100F000000033B6040F65873C2F200031B68002BDD
:100F100076D040F65873C2F200034FF000021A6018
:100F20004FF00003BB7167E0BA7940F65853C2F244
:100F3000000353F82220BB7903F1010140F6585316
:100F4000C2F2000353F82130D218BB7903F1020139
:100F500040F65853C2F2000353F82130D3183B60D7
:100F60003A684AF6AB23CAF6AA23A3FB02134FEA58
:100F700053033B60FB79012B12D0022B1FD0002BB7
:100F800030D13A6840F698039A422CD940F654532F
:100F9000C2F20003BA791A704FF00103FB7122E02C
:100FA0003A6840F2CF739A421FD840F65453C2F2C7
:100FB0000003BA795A704FF00203FB7115E03A68EA
:100FC00040F698039A4212D940F65453C2F20003F5
:100FD000BA799A7040F65053C2F200034FF0010202
:100FE0001A7004E004E000BF02E000BF00E000BFB0
:100FF000BB7903F10303BB71BB795BB2002B93DABE
:1010000007F10C07BD4680BC704700BF80B400AF3D
:1010100040F65053C2F200031B78002B00F0A3806F
:1010200040F65053C2F200034FF000021A7040F62F
:101030005453C2F200031B78032B30D940F65453AB
:10104000C2F200031B78142B29D940F65453C2F284
:1010500000035B782D2B68D940F65453C2F200038D
:101060005B784B2B61D940F65453C2F200039B7856
:101070005A2B5AD940F65453C2F200039B78782B6E
:1010800053D940F65153C2F200031B781A4640F67A
:101090006073C2F200034FF00001995445E040F63E
:1010A0005453C2F200031B78032B30D940F654533B
:1010B000C2F200031B78142B29D940F65453C2F214
:1010C00000035B782D2B32D940F65453C2F2000353
:1010D0005B784B2B2BD940F65453C2F200039B781C
:1010E0005A2B24D940F65453C2F200039B78782B34
:1010F0001DD940F65153C2F200031B781A4640F640
:101100006073C2F200034FF0000199540FE040F603
:101110005153C2F200031B781A4640F66073C2F2C4
:1011200000034FF00501995402E000BF00E000BF4A
:1011300040F65153C2F200031B7803F10103DAB207
:1011400040F65153C2F200031A7040F65153C2F2F6
:1011500000031B780A2B06D140F65153C2F200035C
:101160004FF000021A70BD4680BC704780B582B057
:1011700000AF4FF00003FB7100F022FD40F204537A
:10118000C2F200031A6844F6D353C1F26203A3FB10
:1011900002134FEA93131846FFF74AFD40F6481032
:1011A000C2F200004FF0320100F06EFFFFF772FD57
:1011B0004FF003004FF47A614FF0500202F044FF09
:1011C0004FF004004FF064014FF0320202F03CFF98
:1011D00000BF02F073F840F66013C2F200035B78C0
:1011E000002B0BD14FF0030002F0C2FC40F6601060
:1011F000C2F200004FF0140100F046FFFFF776FE48
:10120000FFF704FF40F64813C2F200035B78002B9F
:1012100009D140F64810C2F200004FF0320100F050
:1012200033FFFFF7C3F9FFF7E9F9D2E780B489B0DC
:1012300000AF78604FF00003BB614FF000037B61AB
:101240004FF00003FB614FF002033B614FF00003DE
:10125000FB604FF00203BB604FF46053C4F2020323
:101260009B6803F00C03BB61BB69042B0AD0082BFD
:101270000FD0002B60D17A684FF41053C0F2F40302
:10128000136060E07A684FF49053C0F27A03136001
:1012900059E04FF46053C4F202035B6803F4800327
:1012A0004FEA9353FB604FF46053C4F202035B6850
:1012B00003F03F03BB60FB68002B14D04FF4905346
:1012C000C0F27A03BA68B3FBF2F24FF46053C4F28F
:1012D0000203596847F6C0730B404FEA931303FBB0
:1012E00002F3FB6113E04FF41053C0F2F403BA6849
:1012F000B3FBF2F24FF46053C4F20203596847F6AD
:10130000C0730B404FEA931303FB02F3FB614FF4EE
:101310006053C4F202035B6803F440334FEA1343A3
:1013200003F101034FEA43033B61FA693B69B2FBF6
:10133000F3F27B681A6006E07A684FF41053C0F24B
:10134000F403136000BF4FF46053C4F202039B68C0
:1013500003F0F003BB61BB694FEA1313BB6140F2BA
:10136000B803C2F20003BA699B181B78DBB27B6139
:101370007B681A687B6922FA03F27B685A604FF433
:101380006053C4F202039B6803F4E053BB61BB6982
:101390004FEA9323BB6140F2B803C2F20003BA697B
:1013A0009B181B78DBB27B617B685A687B6922FAE9
:1013B00003F27B689A604FF46053C4F202039B68A7
:1013C00003F46043BB61BB694FEA5333BB6140F236
:1013D000B803C2F20003BA699B181B78DBB27B61C9
:1013E0007B685A687B6922FA03F27B68DA6007F14E
:1013F0002407BD4680BC704780B483B000AF7860DE
:101400000B46FB70FB78002B0CD04FF46053C4F2FA
:1014100002034FF46052C4F20202116B7A680A436D
:101420001A630DE04FF46053C4F202034FF46052AC
:10143000C4F20202116B7A686FEA02020A401A6370
:1014400007F10C07BD4680BC704700BF80B483B075
:1014500000AF78600B46FB70FB78002B0CD04FF48C
:101460006053C4F202034FF46052C4F20202116CE2
:101470007A680A431A640DE04FF46053C4F2020321
:101480004FF46052C4F20202116C7A686FEA0202F1
:101490000A401A6407F10C07BD4680BC704700BFC4
:1014A00080B483B000AF78600B46FB70FB78002BF4
:1014B0000CD04FF46053C4F202034FF46052C4F2F4
:1014C0000202516C7A680A435A640DE04FF460538B
:1014D000C4F202034FF46052C4F20202516C7A6803
:1014E0006FEA02020A405A6407F10C07BD4680BC4D
:1014F000704700BF80B588B000AF0B463A60024627
:10150000FA71BB714FF00003FB7707F108034FF04E
:1015100000021A6003F104034FF000021A6003F1A5
:1015200004034FF000021A6003F104034FF00002BD
:101530001A6003F104033B68BB60F97946F2F022BC
:10154000C0F600020B464FEAC3035B1A4FEA83035F
:10155000D31803F118031A684FF48053C4F201033F
:101560009A4241D0F97946F2F022C0F600020B46C9
:101570004FEAC3035B1A4FEA8303D31803F118033E
:101580001A684FF48843C4F200039A422CD0F979C8
:1015900046F2F022C0F600020B464FEAC3035B1A84
:1015A0004FEA8303D31803F118031A684FF49043EA
:1015B000C4F200039A4217D0F97946F2F022C0F63D
:1015C00000020B464FEAC3035B1A4FEA8303D318AA
:1015D00003F118031A684FF4A053C4F201039A42AE
:1015E00002D04FF0050367E1F97946F2F022C0F628
:1015F00000020B464FEAC3035B1A4FEA8303D3187A
:1016000003F118031B68184600F0A0FA03461946B8
:1016100040F67C12C2F200020B464FEA83035B18CD
:101620004FEAC303D3181B78012B02D14FF00603F6
:1016300042E1FB79002B71D0BB79002B6ED04FF0CB
:101640000C037B82F97946F2F022C0F600020B46C9
:101650004FEAC3035B1A4FEA8303D31803F118035D
:101660001868B97946F2F022C0F600020B464FEA3C
:10167000C3035B1A4FEA8303D31803F118031B68F3
:10168000984202D04FF0020316E1F97946F2F022B7
:10169000C0F600020B464FEAC3035B1A4FEA83030E
:1016A000D31803F118031B68184600F04FFA0346DD
:1016B000194640F67C12C2F200020B464FEA830341
:1016C0005B184FEAC303D31803F10803FA799A7041
:1016D000B97946F2F022C0F600020B464FEAC30386
:1016E0005B1A4FEA8303D31803F118031B681846EB
:1016F00000F02CFA0346194640F67C12C2F20002B2
:101700000B464FEA83035B184FEAC303D31803F178
:101710000803BA795A70FB79FB7714E0FB79002B48
:1017200005D0FB79FB774FF008037B820BE0BB7998
:10173000002B05D0BB79FB774FF004037B8202E0DE
:101740004FF00303B8E0F97F46F2F022C0F6000242
:101750000B464FEAC3035B1A4FEA8303D31803F126
:1017600018031B68184600F0ABF9F97F46F2F02227
:10177000C0F600020B464FEAC3035B1A4FEA83032D
:10178000D31803F118031B681A4607F10803104623
:101790001946FEF7F9FCF97F46F2F022C0F6000286
:1017A0000B464FEAC3035B1A4FEA8303D31803F1D6
:1017B00018031B6818464FF00101FEF7BBFDBB790B
:1017C000002B2BD0B97946F2F022C0F600020B466E
:1017D0004FEAC3035B1A4FEA8303D31803F11003E4
:1017E0001B79012B1AD14FF047033B764FF00E03C4
:1017F0007B764FF00103BB764FF00103FB7607F1D8
:101800001803184602F042F94FF4A050C4F2010048
:1018100040F225514FF00102FEF7D2FDF97F46F26A
:10182000F022C0F600020B464FEAC3035B1A4FEAF0
:101830008303D31803F118031B68184600F086F9D8
:101840000346194640F67C12C2F200020B464FEAEC
:1018500083035B184FEAC303D3184FF001021A70D9
:10186000F97F46F2F022C0F600020B464FEAC303AE
:101870005B1A4FEA8303D31803F118031B68184659
:1018800000F064F90346194640F67C12C2F20002E9
:101890000B464FEA83035B184FEAC303D31803F1E7
:1018A00004033A681A6007484FF00A014FF001023A
:1018B00001F01AFC4FF00003184607F12007BD465F
:1018C00080BD00BF000A002080B584B000AF396041
:1018D00013460246FA71BB804FF00003FB8149E0DA
:1018E00048F2A063C0F20103BB6003E0BB6803F1F0
:1018F000FF33BB60F97946F2F022C0F600020B46D6
:101900004FEAC3035B1A4FEA8303D31803F11803AA
:101910001B6818464FF08001FEF7A4FD0346012B1B
:1019200002D0BB68002BE1D1BB68002B02D14FF085
:10193000040324E0F97946F2F022C0F600020B46D7
:101940004FEAC3035B1A4FEA8303D31803F118036A
:101950001B681A46FB893968CB181B78F98901F195
:101960000101F98110461946FEF704FDBB8803F119
:10197000FF33BB80BB88002BB2D14FF00003184669
:1019800007F11007BD4680BD80B586B000AFF86096
:10199000B9601346FB804FF00003FB82F86800F04B
:1019A000D5F803461A4613464FEA83039B184FEABD
:1019B000C30303F1080240F67C13C2F20003D318FC
:1019C00003F10403184601F06DFC03467B7520E02B
:1019D000F86800F0BBF803461A4613464FEA830343
:1019E0009B184FEAC30303F1080240F67C13C2F2CE
:1019F0000003D31803F10402FB8AB968CB18104620
:101A0000194601F0A7FB03467B75FB8A03F101032E
:101A1000FB82FA8AFB889A4202D07B7D002BD7D1C9
:101A2000FB8A184607F11807BD4680BD80B582B015
:101A300000AF4FF000037B604FF4A050C4F20100F0
:101A400040F22531FEF72EFD0346012B13D17B68B2
:101A500043F4497343F001037B604FF4A050C4F298
:101A60000100FEF79BFC4FF4A050C4F2010040F2CD
:101A70002531FEF779FD4FF4A050C4F2010040F289
:101A80002551FEF70FFD0346012B13D14FF4A05053
:101A9000C4F20100FEF782FC0346DBB20748194698
:101AA00001F0B0FB4FF4A050C4F2010040F2255108
:101AB000FEF75AFD07F10807BD4680BD000A002069
:101AC00080B582B000AF78607B684FF49042C4F27A
:101AD0000002934227D04FF49042C4F20002934296
:101AE00006D84FF48842C4F20002934214D028E092
:101AF0004FF48052C4F20102934206D04FF4A05238
:101B0000C4F20102934215D01BE04FF010004FF0D9
:101B10000101FFF7C5FC14E04FF400304FF0010164
:101B2000FFF7BEFC0DE04FF480204FF00101FFF7FE
:101B3000B7FC06E04FF020004FF00101FFF7B0FCCA
:101B400000BF07F10807BD4680BD00BF80B483B069
:101B500000AF78607B684FF49042C4F20002934279
:101B60001FD04FF49042C4F20002934206D84FF4C3
:101B70008842C4F20002934210D018E04FF4805221
:101B8000C4F20102934206D04FF4A052C4F2010203
:101B9000934209D00BE04FF000030AE04FF001033D
:101BA00007E04FF0020304E04FF0030301E04FF0C1
:101BB0000503184607F10C07BD4680BC704700BFFF
:101BC00090B587B000AF01F059FD01F0A1FD4FF4D1
:101BD000407001F047FF4FF00103FB759DE0F97D78
:101BE00046F2D032C0F600020B464FEAC3035B1A3E
:101BF0004FEA8303D3181B683B61F97D46F2D0326C
:101C0000C0F600020B464FEAC3035B1A4FEA830398
:101C1000D3189B887B60F97D46F2D032C0F6000273
:101C20000B464FEAC3035B1A4FEA8303D3189B7931
:101C30003B72F97D46F2D032C0F600020B464FEA05
:101C4000C3035B1A4FEA8303D31803F108035B78DD
:101C5000BB72F97D46F2D032C0F600020B464FEA65
:101C6000C3035B1A4FEA8303D31803F108039B787D
:101C7000FB72F97D46F2D032C0F600020B464FEA05
:101C8000C3035B1A4FEA8303D31803F108031B78DD
:101C90007B72386900F04AF83B7A022B33D1F97D28
:101CA00046F2D032C0F600020B464FEAC3035B1A7D
:101CB0004FEA8303D3189B88184600F061F9F86057
:101CC000F97D46F2D032C0F600020B464FEAC3035C
:101CD0005B1A4FEA8303D3181868FB689CB2F97D3E
:101CE00046F2D032C0F600020B464FEAC3035B1A3D
:101CF0004FEA8303D31803F10C031B68DBB22146C0
:101D00001A4601F067FC07F104033869194601F02F
:101D1000BFFBFB7D03F10103FB75FB7D072B7FF60A
:101D20005EAF07F11C07BD4690BD00BF80B582B015
:101D300000AF78607B684FF48052C4F20202934295
:101D400000F0A0804FF48052C4F2020293421FD8E8
:101D50004FF48062C4F20202934252D04FF4806288
:101D6000C4F20202934206D84FF00002C4F202020B
:101D7000934230D000E14FF40062C4F20202934279
:101D800055D04FF44062C4F20202934265D0F3E0B2
:101D90004FF4C052C4F20202934200F09D804FF40F
:101DA000C052C4F20202934206D84FF4A052C4F2C9
:101DB000020293427BD0DFE04FF4E052C4F2020211
:101DC000934200F09E804FF40052C4F2020293420C
:101DD00000F0AC80D0E040F61C23C2F200031B7878
:101DE000002B40F0B8804FF001004FF00101FFF7E9
:101DF00003FB40F61C23C2F200034FF001021A70ED
:101E0000A9E040F61C23C2F200035B78002B40F0EF
:101E1000A4804FF002004FF00101FFF7EDFA40F609
:101E20001C23C2F200034FF001025A7095E040F605
:101E30001C23C2F200039B78002B40F090804FF0EF
:101E400004004FF00101FFF7D7FA40F61C23C2F25D
:101E500000034FF001029A7081E040F61C23C2F2A9
:101E60000003DB78002B7CD14FF008004FF001011C
:101E7000FFF7C2FA40F61C23C2F200034FF0010242
:101E8000DA706EE040F61C23C2F200031B79002BCF
:101E900069D14FF010004FF00101FFF7ADFA40F6A5
:101EA0001C23C2F200034FF001021A715BE040F6FE
:101EB0001C23C2F200035B79002B56D14FF02000A7
:101EC0004FF00101FFF798FA40F61C23C2F200031D
:101ED0004FF001025A7148E040F61C23C2F20003A1
:101EE0009B79002B43D14FF040004FF00101FFF7E9
:101EF00083FA40F61C23C2F200034FF001029A71EC
:101F000035E040F61C23C2F20003DB79002B30D110
:101F10004FF080004FF00101FFF76EFA40F61C23EE
:101F2000C2F200034FF00102DA7122E040F61C23F6
:101F3000C2F200031B7A002B1DD14FF480704FF0CA
:101F40000101FFF759FA40F61C23C2F200034FF0DB
:101F500001021A720FE000BF0EE000BF0CE000BFEC
:101F60000AE000BF08E000BF06E000BF04E000BFD9
:101F700002E000BF00E000BF07F10807BD4680BDDA
:101F800080B485B000AF0346FB80FB88802B50D027
:101F9000802B11DC082B3CD0082B06DC022B30D028
:101FA000042B32D0012B28D067E0202B39D0402BD6
:101FB0003BD0102B31D060E0B3F5006F49D0B3F5C2
:101FC000006F09DCB3F5007F3BD0B3F5806F3CD0E8
:101FD000B3F5807F31D050E0B3F5005F41D0B3F569
:101FE000005F03DCB3F5805F37D046E0B3F5804F88
:101FF0003BD0B3F5004F3CD03FE04FF00003FB6017
:102000003BE04FF00103FB6037E04FF00203FB6061
:1020100033E04FF00303FB602FE04FF00403FB605D
:102020002BE04FF00503FB6027E04FF00603FB6059
:1020300023E04FF00703FB601FE04FF00803FB6055
:102040001BE04FF00903FB6017E04FF00A03FB6051
:1020500013E04FF00B03FB600FE04FF00C03FB604D
:102060000BE04FF00D03FB6007E04FF00E03FB6049
:1020700003E04FF00F03FB6000BFFB68184607F159
:102080001407BD4680BC704780B582B000AF786051
:1020900039607B685B78032B02D0786800F0B6F873
:1020A0007B684FF001021A707B684FF003025A7090
:1020B00040F62823C2F200031A683B68D2187B68F6
:1020C0005A6040F62823C2F200031A687B68DA607F
:1020D00007F10807BD4680BD80B400AF40F6282355
:1020E000C2F200031B681846BD4680BC704700BFA3
:1020F00080B483B000AF786040F62823C2F20003BA
:102100001A687B68DB68D31A184607F10C07BD46CE
:1021100080BC704780B500AF72B640F62823C2F28B
:1021200000031B6803F1010240F62823C2F20003FA
:102130001A6040F62823C2F200031B68B3F1FF3F88
:102140003CD140F62823C2F200034FF000021A608F
:1021500034E040F2C803C2F200031B685A6940F23F
:10216000C803C2F200031A6040F2C803C2F20003BF
:102170001B685A6840F62823C2F200031B689A4283
:102180001DD840F2C803C2F200031B684FF00002E2
:102190005A7040F2C803C2F200031B681A4640F6A8
:1021A0002C23C2F200039A4209D040F2C803C2F2C3
:1021B00000031B68184600F015F800E000BF40F26D
:1021C000C803C2F200031B685B69002BC1D140F257
:1021D000C803C2F2000340F62C22C2F200021A60C9
:1021E00062B680BD80B483B000AF78607B685B6905
:1021F0007A6812691A617B681B697A6852695A6148
:1022000007F10C07BD4680BC704700BF80B483B0A7
:1022100000AF786040F62C23C2F200035B69002B0C
:1022200010D140F62C23C2F200037A685A617B6811
:102230004FF000025A617A6840F62C23C2F2000384
:10224000136119E040F62C23C2F200035B697A683F
:102250001A6140F62C23C2F200035A697B685A6166
:1022600040F62C23C2F200037A685A617A6840F67D
:102270002C23C2F20003136107F10C07BD4680BC9A
:10228000704700BF80B485B000AF786039604FF010
:102290000003FB604FF00003FB727B685B68FB6030
:1022A000FB6823F0407323F48073FB603B681B7969
:1022B0004FEA03223B681B681343FA681343FB6031
:1022C0007B68FA685A607B689B68FB60FA684FF22B
:1022D000FD73CCF2FF031340FB603B681A693B6857
:1022E000DB681A433B689B681A433B685B794FEA9B
:1022F00043031343FA681343FB607B68FA689A60F0
:102300007B68DB6AFB60FB6823F47003FB603B685F
:102310001B7D03F1FF33DAB2FB7A1343FB72FB7AC6
:102320004FEA0353FA681343FB607B68FA68DA628A
:1023300007F11407BD4680BC704700BF80B483B06E
:1023400000AF78607B684FF000021A607B684FF046
:1023500000021A717B684FF000025A717B684FF0DF
:1023600000029A607B684FF00002DA607B684FF0F1
:1023700000021A617B684FF001021A7507F10C0721
:10238000BD4680BC704700BF80B485B000AF7860A8
:102390004FF00003FB604FF40C53C4F201035B6881
:1023A000FB60FA6843F2E003CFF6FC731340FB6076
:1023B0007B681A687B685B681A437B689B681A4372
:1023C0007B68DB681343FA681343FB604FF40C53DC
:1023D000C4F20103FA685A6007F11407BD4680BCD5
:1023E000704700BF80B483B000AF78607B684FF067
:1023F00000021A607B684FF000025A607B684FF061
:1024000000029A607B684FF00002DA6007F10C0767
:10241000BD4680BC704700BF80B483B000AF786019
:102420000B46FB70FB78002B06D07B689B6843F063
:1024300001027B689A6005E07B689B6823F00102DB
:102440007B689A6007F10C07BD4680BC704700BFEF
:1024500080B485B000AF7860F970BA707B704FF0CF
:102460000003FB604FF00003BB60FB78092B27D90A
:102470007B68DB68FB60FA7813464FEA43039B18DE
:10248000A3F11E034FF0070202FA03F3BB60BB681F
:102490006FEA0303FA681340FB607978FA78134611
:1024A0004FEA43039B18A3F11E0301FA03F3BB6039
:1024B000FA68BB681343FB607B68FA68DA6022E065
:1024C0007B681B69FB60FA7813464FEA43039B184D
:1024D0004FF0070202FA03F3BB60BB686FEA030325
:1024E000FA681340FB607978FA7813464FEA4303A1
:1024F0009B1801FA03F3BB60FA68BB681343FB60E7
:102500007B68FA681A61BB78062B27D87B685B6BFF
:10251000FB60BB7803F1FF3213464FEA83039B183D
:102520004FF01F0202FA03F3BB60BB686FEA0303BC
:10253000FA681340FB60F978BB7803F1FF32134669
:102540004FEA83039B1801FA03F3BB60FA68BB6888
:102550001343FB607B68FA685A6351E0BB780C2B2D
:1025600027D87B681B6BFB60BA7813464FEA83035E
:102570009B18A3F123034FF01F0202FA03F3BB6081
:10258000BB686FEA0303FA681340FB60F978BA7816
:1025900013464FEA83039B18A3F1230301FA03F3C5
:1025A000BB60FA68BB681343FB607B68FA681A6318
:1025B00026E07B68DB6AFB60BA7813464FEA830348
:1025C0009B18A3F141034FF01F0202FA03F3BB6013
:1025D000BB686FEA0303FA681340FB60F978BA78C6
:1025E00013464FEA83039B18A3F1410301FA03F357
:1025F000BB60FA68BB681343FB607B68FA68DA6209
:1026000007F11407BD4680BC704700BF80B483B09B
:1026100000AF78607B689B6843F080427B689A607B
:1026200007F10C07BD4680BC704700BF80B483B083
:1026300000AF78607B68DB6C9BB2184607F10C0733
:10264000BD4680BC704700BF80B485B000AF7860E5
:1026500013460A467A807B704FF00003FB607B884C
:10266000DBB2FB60FB684FF0010202FA03F3FB6090
:102670007B78002B06D07B685A68FB681A437B681E
:102680005A6007E07B685A68FB686FEA03031A40E8
:102690007B685A6007F11407BD4680BC704700BFD5
:1026A00080B487B000AF78600B467B804FF00003AA
:1026B000FB754FF000033B614FF00003FB607B882C
:1026C0004FEA13239BB23B617B685A687B88DBB27D
:1026D0004FF0010101FA03F31340FB607B681A68B5
:1026E0003B691340002B06D0FB68002B03D04FF052
:1026F0000103FB7502E04FF00003FB75FB7D1846FC
:1027000007F11C07BD4680BC704700BF80B485B090
:1027100000AF78600B467B804FF00003FB737B8833
:102720004FEA13239BB2FB73FB7B6FEA03027B68C8
:102730001A6007F11407BD4680BC704780B582B0AF
:1027400000AF0346FB7107F107034FF00100194684
:102750004FF00102FFF7B8F807F10807BD4680BD4A
:1027600080B483B000AF78600B46FB707B68FA786A
:102770001A704FF00103184607F10C07BD4680BCE4
:10278000704700BF80B485B000AF786039604FF00B
:102790000003FB600FE03B681A787B681A707B6867
:1027A00003F101037B603B6803F101033B60FB68BD
:1027B00003F10103FB603B681B78002BEBD1FB6846
:1027C000184607F11407BD4680BC704780B586B037
:1027D00000AFF8607A603B600B46FB724FF000037D
:1027E0007B617B6803F1FF337B603B68092B25D954
:1027F0003A684CF6CD43CCF6CC43A3FB02134FEA28
:10280000D303FA7AF86811467A68FFF7DFFF786138
:102810007B69FA68D318FB6013E0FB7AF868194605
:10282000FFF79EFFFB6803F10103FB607B6903F187
:1028300001037B617B6803F1FF337B607B68002BC6
:10284000EBDC39684CF6CD43CCF6CC43A3FB01233B
:102850004FEAD30213464FEA83039B184FEA430320
:10286000CA1AD3B203F13003DBB2F8681946FFF796
:1028700077FF03467A69D3187B617B69184607F1B5
:102880001807BD4680BD00BF80B586B000AFF860B8
:102890007A603B600B46FB724FF000037B613B6844
:1028A000002B04DA3B68C3F100033B6101E03B68A5
:1028B0003B617B6803F1FF337B603B69092B2AD9BD
:1028C0003B68002B12DA3A694CF6CD43CCF6CC4388
:1028D000A3FB02134FEAD303C3F10003FA7AF868AB
:1028E00011467A68FFF7D0FF78610FE03A694CF63D
:1028F000CD43CCF6CC43A3FB02134FEAD303FA7AC1
:10290000F86811467A68FFF7BFFF78617B69FA685B
:10291000D318FB602BE03B68002B15DA7B6803F1D2
:10292000FF337B6010E0FB7AF8681946FFF718FF69
:10293000FB6803F10103FB607B6903F101037B6129
:102940007B6803F1FF337B607B68002BEBDC3B682B
:10295000002B0CDAF8684FF02D01FFF701FF03465A
:102960007A69D3187B61FB6803F10103FB60396965
:102970004CF6CD43CCF6CC43A3FB01234FEAD30264
:1029800013464FEA83039B184FEA4303CA1AD3B294
:1029900003F13003DBB2F8681946FFF7E1FE0346A6
:1029A0007A69D3187B617B69184607F11807BD4621
:1029B00080BD00BF80B588B002AFF8607A600A467B
:1029C000FA72BB724FF000037B617B6803F1FF3347
:1029D0007B603B6A4FEA1313002B24D03B6A4FEA1B
:1029E0001311FA7ABB7A0091F86811467A68FFF7FA
:1029F000E1FF03467A69D3187B617B69FA68D318D3
:102A0000FB6013E0FB7AF8681946FFF7A9FEFB6844
:102A100003F10103FB607B6903F101037B617B68C8
:102A200003F1FF337B607B68002BEBDC3B6A03F038
:102A30000F03092B0CD83B6ADBB203F00F03DBB2A8
:102A400003F13003DBB2F8681946FFF789FE1BE09B
:102A5000BB7A002B0CD03B6ADBB203F00F03DBB276
:102A600003F13703DBB2F8681946FFF779FE0BE094
:102A70003B6ADBB203F00F03DBB203F15703DBB2B7
:102A8000F8681946FFF76CFE7B6903F101037B616F
:102A90007B69184607F11807BD4680BD80B58AB02E
:102AA00002AFF860B9607A603B604FF00003BB6131
:102AB0004FF000037B61FB68002B00F01C81FB687A
:102AC0004FF000021A7016E17B681B78252B10D09E
:102AD0007B681A78FB681A70FB6803F10103FB60DE
:102AE0007B6803F101037B607B6903F101037B6178
:102AF00002E17B6803F101031B78252B10D1FB68F1
:102B00004FF025021A70FB6803F10103FB607B683C
:102B100003F102037B607B6903F101037B61EBE05E
:102B20004FF02003FB774FF00003BB777B6803F186
:102B300001037B607B681B78302B1BD14FF0300387
:102B4000FB777B6803F101037B6013E0BB7F1A46D0
:102B50004FEA8202D3184FEA4303DAB27B681B784C
:102B6000D318DBB2A3F13003BB777B6803F1010319
:102B70007B6000E000BF7B681B782F2B03D97B684C
:102B80001B78392BE2D9BA7F7B69D3181A46BB6808
:102B90009A4205D9BB68DAB27B69DBB2D31ABB773C
:102BA0007B681B78A3F15803202B00F2948001A2CC
:102BB00052F823F0892C0008D72C0008D72C0008E5
:102BC000D72C0008D72C0008D72C0008D72C0008D9
:102BD000D72C0008D72C0008D72C0008D72C0008C9
:102BE000BF2C0008392C0008D72C0008D72C00086F
:102BF000D72C0008D72C0008392C0008D72C000847
:102C0000D72C0008D72C0008D72C0008D72C000898
:102C1000D72C0008D72C0008D72C0008D72C000888
:102C2000A92C0008D72C0008512C0008D72C00082C
:102C3000D72C0008692C0008BA7F3B6803F1040117
:102C400039601B68F97FF868FFF71EFEB86145E040
:102C5000BA7F3B6803F1040139601B68F97FF868AB
:102C6000FFF7B4FDB86139E0BA7F3B6803F10401B6
:102C700039601968FB7F0091F86819464FF000032E
:102C8000FFF798FEB86129E0BA7F3B6803F10401C1
:102C900039601968FB7F0091F86819464FF001030D
:102CA000FFF788FEB86119E03B6803F104023A605F
:102CB0001B68F8681946FFF765FDB8610EE03B68D0
:102CC00003F104023A601B68DBB2F8681946FFF7AB
:102CD00047FDB86102E04FF0FF332CE07B6803F161
:102CE00001037B60BB69FA68D318FB607A69BB6932
:102CF000D3187B6100E000BF7B681B78002B04D0F9
:102D00007A69BB689A42FFF4DFAE7A69BB689A427F
:102D100004D2FB684FF000021A700BE0FB6803F16D
:102D2000FF33FB60FB684FF000021A707B6903F110
:102D3000FF337B617B69184607F12007BD4680BDE4
:102D400080B584B000AFF860B9607A60F8684FF081
:102D50006401BA687B68FFF7A1FE0346184607F1D5
:102D60001007BD4680BD00BFB0B5A6B000AFF8608B
:102D7000B9607A6046F2F453C0F6000307F110041C
:102D80001D460FCD0FC40FCD0FC42B68236007F174
:102D900034031846B9687A68FFF7D2FF0346632BFD
:102DA0000CDD40F2F843C2F200031B68DB6807F158
:102DB00010021046194600F077F8FEE707F13403D9
:102DC0001846F96800F070F80346184607F19807AE
:102DD000BD46B0BD80B582B000AF7860396040F2CA
:102DE000F843C2F200031B689B68184679683A688A
:102DF000FFF7BAFF0346184607F10807BD4680BD36
:102E00000FB480B582B000AF07F114033B6038699E
:102E10003968FFF7DFFF78607B68184607F108071D
:102E2000BD46BDE8804004B0704700BF0EB480B519
:102E300085B000AF786007F12003BB607868F9695E
:102E4000BA68FFF77DFFF860FB68184607F11407C2
:102E5000BD46BDE8804003B0704700BF80B582B07A
:102E600000AF7860396040F2F843C2F200031B689B
:102E70009A683B689A4208D040F2F843C2F20003D5
:102E80001B68DA683B689A4206D17B68DBB2184659
:102E9000FFF754FC7B6801E04FF0FF33184607F161
:102EA0000807BD4680BD00BF80B584B000AF786024
:102EB00039604FF00003FB6014E07B681B78184614
:102EC0003968FFF7CBFF0346B3F1FF3F02D14FF064
:102ED000FF330CE0FB6803F10103FB607B6803F147
:102EE00001037B607B681B78002BE6D1FB681846EA
:102EF00007F11007BD4680BD80B588B000AFF8600F
:102F0000B9607A6007F11403184601F0F1FEF86821
:102F100000F016F87B689BB2BB82BB68BB614FF0C8
:102F20000003FB824FF00003BB83FA6807F1140330
:102F30001046194601F062FE07F12007BD4680BD2C
:102F400080B582B000AF78607B684FF4C052C4F2A5
:102F50000002934200F0AE804FF4C052C4F200026F
:102F6000934228D84FF40062C4F20002934269D021
:102F70004FF40062C4F20002934209D8B3F1804FCB
:102F800052D04FF48062C4F20002934253D0A6E0C4
:102F90004FF48052C4F20002934261D04FF4A05229
:102FA000C4F20002934262D04FF44062C4F20002C5
:102FB00093424ED093E04FF48062C4F201029342F8
:102FC0005CD04FF48062C4F20102934212D84FF4F5
:102FD0000052C4F2000293427AD04FF00002C4F2D1
:102FE0000102934219D04FF4E052C4F2000293421E
:102FF00067D074E04FF48842C4F2010293424BD090
:103000004FF49042C4F2010293424CD04FF48042FC
:10301000C4F20102934238D061E04FF001004FF05A
:103020000101FEF713FA5AE04FF001004FF00101E1
:10303000FEF70CFA53E04FF002004FF00101FEF7EB
:1030400005FA4CE04FF004004FF00101FEF7FEF9E5
:1030500045E04FF008004FF00101FEF7F7F93EE0C0
:103060004FF010004FF00101FEF7F0F937E04FF09C
:1030700020004FF00101FEF7E9F930E04FF00200C7
:103080004FF00101FEF7E2F929E04FF480304FF0F4
:103090000101FEF7DBF922E04FF400304FF00101AF
:1030A000FEF7D4F91BE04FF480204FF00101FEF74A
:1030B000CDF914E04FF040004FF00101FEF7C6F9E2
:1030C0000DE04FF080004FF00101FEF7BFF906E080
:1030D0004FF480704FF00101FEF7B8F900BF07F11F
:1030E0000807BD4680BD00BF80B584B000AFF86062
:1030F000B9607A60FB68002B02D14FF0010323E036
:10310000FB684FF000025A60FB684FF000029A60C3
:10311000FB68BA681A61FB687A685A61FB684FF00D
:1031200000021A73B868796802F060F903461A461B
:10313000FB681A60FB681B6818464FF00001BA680C
:1031400002F0E0FC4FF00203184607F11007BD46FD
:1031500080BD00BF80B485B000AF786039607B6807
:103160001B7B002B02D14FF0000345E04FF0000322
:10317000FB601BE03A68FB68D3187A6811687A68CC
:1031800092688A1812781A707B681A687B689B6844
:10319000D3184FF000021A707B689B6803F101029C
:1031A0007B689A60FB6803F10103FB607B685A69E6
:1031B000FB689A42DED87B689A687B681B697968ED
:1031C000496901FB03F39A4203D37B684FF0000285
:1031D0009A607B685A687B689B689A4206D17B68D4
:1031E0004FF000021A734FF0010305E07B684FF0C7
:1031F00002021A737B681B7B184607F11407BD4651
:1032000080BC70470FB490B482B000AF07F11404D3
:103210003C603B691B7B032B02D14FF003033AE078
:103220004FF000037B6010E03B6919683B695A6806
:1032300089183C68786820180078087002F101024B
:103240005A607B6803F101037B603B695A697B68C4
:103250009A42E9D83B695A683B691B6939694969EF
:1032600001FB03F39A4203D33B694FF000025A601B
:103270003B695A683B699B689A4206D13B694FF0AB
:1032800003021A734FF0010305E03B694FF002029D
:103290001A733B691B7B184607F10807BD4690BCB3
:1032A00004B0704780B483B000AF78607B681B7B4C
:1032B000184607F10C07BD4680BC704780B500AFCB
:1032C00040F67423C2F200031B78032B32D801A20C
:1032D00052F823F0E5320008F93200080D330008F7
:1032E0002133000800F034F803461A4640F67423F0
:1032F000C2F200031A701EE000F05AF803461A46A4
:1033000040F67423C2F200031A7014E000F06CF867
:1033100003461A4640F67423C2F200031A700AE00C
:1033200000F0A4F803461A4640F67423C2F20003E4
:103330001A7000E000BF80BD80B400AF40F20053BF
:10334000C2F200031B781846BD4680BC704700BF20
:1033500080B500AF40F20053C2F200039A7840F209
:103360000053C2F20003DB78104619464FF4E132F5
:10337000FEF7C0F846F24C70C0F60000FFF740FDC3
:1033800046F25470C0F60000FFF73AFD46F258705E
:10339000C0F60000FFF734FD46F26070C0F6000092
:1033A0004FF00701FFF72CFD4FF00103184680BDD9
:1033B00080B500AF40F64420C2F200004FF0640137
:1033C000FEF762FE40F65C20C2F200004FF0010101
:1033D000FEF75AFE46F26870C0F60000FFF710FDD7
:1033E0004FF00203184680BD80B582B000AF4FF0A9
:1033F0000003FB7107F107034FF4A050C4F2010072
:1034000019464FF00102FEF7BFFA0346002B14D015
:10341000FB791B2B07D140F20053C2F200034FF09F
:1034200001021A7006E040F20053C2F200034FF0AE
:1034300000021A704FF0030312E040F65C23C2F260
:1034400000035B78002B02D14FF0030308E040F249
:103450000053C2F200034FF000021A704FF0020353
:10346000184607F10807BD4680BD00BF80B400AF15
:1034700040F64423C2F200035B78002B02D14FF0E8
:10348000010301E04FF003031846BD4680BC7047BE
:1034900080B487B000AF786039604FF000037B6183
:1034A0004FF000033B614FF00003FB604FF000035F
:1034B0007B6186E07B694FF0010202FA03F33B6116
:1034C0003B681A683B691340FB60FA683B699A42A3
:1034D00073D17B681A687B694FEA43034FF003019D
:1034E00001FA03F36FEA03031A407B681A607B68F2
:1034F0001A683B681B7919467B694FEA430301FA56
:1035000003F31A437B681A603B681B79012B03D0D5
:103510003B681B79022B34D17B689A687B694FEA40
:1035200043034FF0030101FA03F36FEA03031A4068
:103530007B689A607B689A683B685B7919467B690F
:103540004FEA430301FA03F31A437B689A607B68EE
:103550005A687B699BB24FF0010101FA03F36FEAED
:1035600003031A407B685A607B685A683B689B7902
:1035700019467B699BB201FA03F39BB21A437B683D
:103580005A607B68DA687B699BB24FEA43034FF06D
:10359000030101FA03F36FEA03031A407B68DA6060
:1035A0007B68DA683B68DB7919467B694FEA43033D
:1035B00001FA03F31A437B68DA607B6903F10103C4
:1035C0007B617B690F2B7FF675AF07F11C07BD464A
:1035D00080BC704780B485B000AF786013460A465F
:1035E0007A807B704FF00003FB604FF00003BB60FC
:1035F0007A787B8803F007034FEA830302FA03F328
:10360000FB607B884FEAD3039BB21A467B884FEA64
:10361000D3039BB219467B6801F1080153F82110CE
:103620007B8803F007034FEA83034FF00F0000FA93
:1036300003F36FEA030319407B6802F1080243F8C1
:1036400022107B884FEAD3039BB21A467B6802F1B3
:10365000080253F82220FB681343BB607B884FEAC3
:10366000D3039BB21A467B6802F10802B96843F89B
:10367000221007F11407BD4680BC704780B500AF2B
:103680004FF46053C4F202034FF46052C4F20202DA
:10369000126842F001021A604FF46053C4F2020350
:1036A0004FF000029A604FF46053C4F202034FF4EB
:1036B0006052C4F20202126822F0847222F4803254
:1036C0001A604FF46053C4F2020343F21002C2F2D4
:1036D00000425A604FF46053C4F202034FF4605248
:1036E000C4F20202126822F480221A604FF460537E
:1036F000C4F202034FF00002DA6000F0C1F84FF4A8
:103700006D43CEF200034FF000629A6080BD00BFAF
:1037100080B487B000AF4FF000033B614FF000036F
:103720007B614FF00203FB604FF00003BB604FF082
:1037300002037B604FF46053C4F202039B6803F002
:103740000C033B613B69042B0DD0082B15D0002BDB
:1037500069D140F20453C2F200034FF41052C0F298
:10376000F4021A6069E040F20453C2F200034FF41D
:103770009052C0F27A021A605FE04FF46053C4F2D4
:1037800002035B6803F480034FEA9353BB604FF47A
:103790006053C4F202035B6803F03F037B60BB68C5
:1037A000002B14D04FF49053C0F27A037A68B3FB25
:1037B000F2F24FF46053C4F20203596847F6C07343
:1037C0000B404FEA931303FB02F37B6113E04FF4CA
:1037D0001053C0F2F4037A68B3FBF2F24FF4605373
:1037E000C4F20203596847F6C0730B404FEA9313C3
:1037F00003FB02F37B614FF46053C4F202035B6886
:1038000003F440334FEA134303F101034FEA430348
:10381000FB607A69FB68B2FBF3F240F20453C2F238
:1038200000031A6009E040F20453C2F200034FF4AF
:103830001052C0F2F4021A6000BF4FF46053C4F299
:1038400002039B6803F0F0034FEA131240F208539F
:10385000C2F200039B5CDBB23B6140F20453C2F254
:1038600000031A683B6922FA03F240F20453C2F2E1
:1038700000031A6007F11C07BD4680BC704700BFFB
:1038800080B483B000AF4FF000037B604FF00003C3
:103890003B604FF46053C4F202034FF46052C4F231
:1038A0000202126842F480321A604FF46053C4F28C
:1038B00002031B6803F400333B607B6803F10103E0
:1038C0007B603B68002B03D17B68B3F5A06FECD124
:1038D0004FF46053C4F202031B6803F40033002B5F
:1038E00003D04FF001033B6002E04FF000033B6068
:1038F0003B68012B40F082804FF46053C4F2020316
:103900004FF46052C4F20202126C42F080521A6408
:103910004FF4E043C4F200034FF4E042C4F200026B
:10392000126842F480421A604FF46053C4F20203FA
:103930004FF46052C4F2020292689A604FF46053EE
:10394000C4F202034FF46052C4F20202926842F4DD
:1039500000429A604FF46053C4F202034FF4605285
:10396000C4F20202926842F4A0529A604FF460538B
:10397000C4F2020345F20842C0F240725A604FF4AA
:103980006053C4F202034FF46052C4F202021268A0
:1039900042F080721A6000BF4FF46053C4F2020319
:1039A0001B6803F00073002BF6D04FF47053C4F281
:1039B000020340F205621A604FF46053C4F202033E
:1039C0004FF46052C4F20202926822F003029A603D
:1039D0004FF46053C4F202034FF46052C4F2020287
:1039E000926842F002029A6000BF4FF46053C4F242
:1039F00002039B6803F00C03082BF6D107F10C07B8
:103A0000BD4680BC704700BF80B485B000AF786011
:103A100040F67823C2F200031B68002B08D140F661
:103A20007823C2F2000341F27072C2F200021A60FF
:103A300040F67823C2F200031B68FB6040F678234F
:103A4000C2F200031A687B68D21840F67823C2F2EB
:103A500000031A60FB68184607F11407BD4680BCD6
:103A6000704700BF80B483B000AF78604FF46D43FF
:103A7000CEF200037A6842F0BF6242F40032DA60AC
:103A800007F10C07BD4680BC704700BF80B485B00D
:103A900000AF78604FF00003FB734FF00003BB737F
:103AA0004FF00F037B737B68DB78002B45D04FF41E
:103AB0006D43CEF20003DB686FEA030303F4E063B7
:103AC0004FEA1323FB73FB7BC3F10403BB737A7BC5
:103AD000FB7B42FA03F37B737B685B781A46BB7B04
:103AE00002FA03F3FB737B689A787B7B1340DAB2AC
:103AF000FB7B1343FB73FB7B4FEA0313FB734FF416
:103B00006143CEF200037A6812789B18FA7B83F83F
:103B100000234FF46143CEF200037A6812784FEA33
:103B20005212D2B27968097801F01F014FF00100FA
:103B300000FA01F143F8221014E04FF46143CEF291
:103B400000037A6812784FEA5212D2B27968097883
:103B500001F01F014FF0010000FA01F102F1200213
:103B600043F8221007F11407BD4680BC704700BF20
:103B700090B585B000AF0346FB71F97946F26C72DF
:103B8000C0F600020B464FEAC3035B1A4FEA8303F9
:103B9000D31803F118031B68184600F01DFE0346F6
:103BA0001C46F97946F26C72C0F600020B464FEAE9
:103BB000C3035B1A4FEA8303D31803F110031B6896
:103BC000184600F0A9FE034640F67C21C2F200012F
:103BD0001A464FEA4202D2184FEA82031A46234697
:103BE0004FEA43031B194FEA0313D318CB189B79F1
:103BF000002B02D14FF000031DE1F97946F26C72FF
:103C0000C0F600020B464FEAC3035B1A4FEA830378
:103C1000D31803F118031B68184600F0DDFD0346B6
:103C20001C46F97946F26C72C0F600020B464FEA68
:103C3000C3035B1A4FEA8303D31803F110031B6815
:103C4000184600F069FE034640F67C21C2F20001EE
:103C50001A464FEA4202D2184FEA82031A46234616
:103C60004FEA43031B194FEA0313D318CB185B79B0
:103C7000FB73FB7B012B02D14FF00103DBE0F979F1
:103C800046F26C72C0F600020B464FEAC3035B1AA1
:103C90004FEA8303D31803F118031B68184600F09A
:103CA0009BFD03461C46F97946F26C72C0F6000291
:103CB0000B464FEAC3035B1A4FEA8303D31803F1A1
:103CC00010031B68184600F027FE034640F67C21CF
:103CD000C2F200011A464FEA4202D2184FEA8203AA
:103CE0001A4623464FEA43031B194FEA0313D3181E
:103CF000CB184FF001025A71F97946F26C72C0F696
:103D000000020B464FEAC3035B1A4FEA8303D31842
:103D100003F118031B681846F97946F26C72C0F675
:103D200000020B464FEAC3035B1A4FEA8303D31822
:103D300003F110031B689BB219464FF0010201F01A
:103D4000C9FAF97946F26C72C0F600020B464FEAE6
:103D5000C3035B1A4FEA8303D31803F118031B68EC
:103D600018464FF0010101F0E3FAF97946F26C725E
:103D7000C0F600020B464FEAC3035B1A4FEA830307
:103D8000D31803F110031B79012B52D1F97946F2B4
:103D90006C72C0F600020B464FEAC3035B1A4FEA8F
:103DA0008303D31803F118031B681846F97946F208
:103DB0006C72C0F600020B464FEAC3035B1A4FEA6F
:103DC0008303D31803F110031B68002B2AD0F97961
:103DD00046F26C72C0F600020B464FEAC3035B1A50
:103DE0004FEA8303D31803F110031B68042B16D08A
:103DF000F97946F26C72C0F600020B464FEAC30333
:103E00005B1A4FEA8303D31803F110031B68082BD6
:103E100002D14FF0080301E04FF0100301E04FF032
:103E2000040301E04FF0020319464FF0010201F0D4
:103E3000A7FA4FF00103184607F11407BD4690BDDD
:103E400090B585B000AF0346FB71F97946F26C720C
:103E5000C0F600020B464FEAC3035B1A4FEA830326
:103E6000D31803F118031B68184600F0B5FC03468D
:103E70001C46F97946F26C72C0F600020B464FEA16
:103E8000C3035B1A4FEA8303D31803F110031B68C3
:103E9000184600F041FD034640F67C21C2F20001C5
:103EA0001A464FEA4202D2184FEA82031A462346C4
:103EB0004FEA43031B194FEA0313D318CB189B791E
:103EC000002B02D14FF00003B9E0F97946F26C7291
:103ED000C0F600020B464FEAC3035B1A4FEA8303A6
:103EE000D31803F118031B68184600F075FC03464D
:103EF0001C46F97946F26C72C0F600020B464FEA96
:103F0000C3035B1A4FEA8303D31803F110031B6842
:103F1000184600F001FD034640F67C21C2F2000184
:103F20001A464FEA4202D2184FEA82031A46234643
:103F30004FEA43031B194FEA0313D318CB185B79DD
:103F4000FB73FB7B002B02D14FF0000377E0F97984
:103F500046F26C72C0F600020B464FEAC3035B1ACE
:103F60004FEA8303D31803F118031B68184600F0C7
:103F700033FC03461C46F97946F26C72C0F6000227
:103F80000B464FEAC3035B1A4FEA8303D31803F1CE
:103F900010031B68184600F0BFFC034640F67C2166
:103FA000C2F200011A464FEA4202D2184FEA8203D7
:103FB0001A4623464FEA43031B194FEA0313D3184B
:103FC000CB184FF000025A71F97946F26C72C0F6C4
:103FD00000020B464FEAC3035B1A4FEA8303D31870
:103FE00003F118031B681846F97946F26C72C0F6A3
:103FF00000020B464FEAC3035B1A4FEA8303D31850
:1040000003F110031B689BB219464FF0000201F048
:1040100061F9F97946F26C72C0F600020B464FEA7C
:10402000C3035B1A4FEA8303D31803F118031B6819
:1040300018464FF0000101F07BF94FF000031846DD
:1040400007F11407BD4690BD90B589B000AF034697
:10405000B9607A60FB734FF00103FB614FF001031D
:10406000BB614FF000037B61FB7B072B02D94FF054
:104070000103ABE3F97B46F26C72C0F600020B461B
:104080004FEAC3035B1A4FEA8303D31803F1180303
:104090001B68B3F1804F00F00581F97B46F26C722A
:1040A000C0F600020B464FEAC3035B1A4FEA8303D4
:1040B000D31803F118031A684FF48063C4F20003A5
:1040C0009A4200F0EF80F97B46F26C72C0F6000273
:1040D0000B464FEAC3035B1A4FEA8303D31803F17D
:1040E00018031A684FF40063C4F200039A4200F008
:1040F000D980F97B46F26C72C0F600020B464FEA9B
:10410000C3035B1A4FEA8303D31803F118031A6839
:104110004FF44063C4F200039A4200F0C380F97B7D
:1041200046F26C72C0F600020B464FEAC3035B1AFC
:104130004FEA8303D31803F118031A684FF480532E
:10414000C4F200039A4200F0AD80F97B46F26C7233
:10415000C0F600020B464FEAC3035B1A4FEA830323
:10416000D31803F118031A684FF4A053C4F20003E4
:104170009A4200F09780F97B46F26C72C0F600021A
:104180000B464FEAC3035B1A4FEA8303D31803F1CC
:1041900018031A684FF48063C4F201039A4200F0D6
:1041A0008180F97B46F26C72C0F600020B464FEA42
:1041B000C3035B1A4FEA8303D31803F118031A6889
:1041C0004FF48043C4F201039A426BD0F97B46F26C
:1041D0006C72C0F600020B464FEAC3035B1A4FEA4B
:1041E0008303D31803F118031A684FF48843C4F209
:1041F00001039A4256D0F97B46F26C72C0F6000277
:104200000B464FEAC3035B1A4FEA8303D31803F14B
:1042100018031A684FF49043C4F201039A4241D044
:10422000F97B46F26C72C0F600020B464FEAC303FC
:104230005B1A4FEA8303D31803F118031A684FF48B
:10424000C053C4F200039A422CD0F97B46F26C7240
:10425000C0F600020B464FEAC3035B1A4FEA830322
:10426000D31803F118031A684FF4E053C4F20003A3
:104270009A4217D0F97B46F26C72C0F600020B46E8
:104280004FEAC3035B1A4FEA8303D31803F1180301
:104290001A684FF40053C4F200039A4202D04FF060
:1042A000030393E2F97B46F26C72C0F600020B4600
:1042B0004FEAC3035B1A4FEA8303D31803F11803D1
:1042C0001B68184600F088FA03461C46F97B46F244
:1042D0006C72C0F600020B464FEAC3035B1A4FEA4A
:1042E0008303D31803F110031B68184600F014FB76
:1042F000034640F67C21C2F200011A464FEA420210
:10430000D2184FEA82031A4623464FEA43031B1989
:104310004FEA0313D318CB189B79012B02D14FF02E
:10432000020353E240F20453C2F200031A684DF64E
:104330008363C4F21B33A3FB02134FEA135303F14D
:10434000FF33BB61BB684FEA430303F1FF33FB61FB
:10435000F97B46F26C72C0F600020B464FEAC303CB
:104360005B1A4FEA8303D31803F118031B68B3F1F8
:10437000804F14D0F97B46F26C72C0F600020B46F7
:104380004FEAC3035B1A4FEA8303D31803F1180300
:104390001A684FF44063C4F200039A4203D14FF00D
:1043A000FF337B61E0E0F97B46F26C72C0F60002FD
:1043B0000B464FEAC3035B1A4FEA8303D31803F19A
:1043C00018031A684FF48063C4F200039A4200F0A5
:1043D000BF80F97B46F26C72C0F600020B464FEAD2
:1043E000C3035B1A4FEA8303D31803F118031A6857
:1043F0004FF40063C4F200039A4200F0A980F97BF5
:1044000046F26C72C0F600020B464FEAC3035B1A19
:104410004FEA8303D31803F118031A684FF480435B
:10442000C4F201039A4200F09380F97B46F26C7269
:10443000C0F600020B464FEAC3035B1A4FEA830340
:10444000D31803F118031A684FF48843C4F2010328
:104450009A427DD0F97B46F26C72C0F600020B46A0
:104460004FEAC3035B1A4FEA8303D31803F118031F
:104470001A684FF49043C4F201039A4268D0F97B62
:1044800046F26C72C0F600020B464FEAC3035B1A99
:104490004FEA8303D31803F118031A684FF4C0538B
:1044A000C4F200039A4253D0F97B46F26C72C0F614
:1044B00000020B464FEAC3035B1A4FEA8303D3188B
:1044C00003F118031A684FF4E053C4F200039A4250
:1044D0003ED0F97B46F26C72C0F600020B464FEA02
:1044E000C3035B1A4FEA8303D31803F118031A6856
:1044F0004FF40053C4F200039A4229D0F97B46F2EC
:104500006C72C0F600020B464FEAC3035B1A4FEA17
:104510008303D31803F118031A684FF48053C4F2CD
:1045200000039A4214D0F97B46F26C72C0F6000286
:104530000B464FEAC3035B1A4FEA8303D31803F118
:1045400018031A684FF4A053C4F200039A420BD127
:104550004FF6FF737B6107E0BB694FEA4303BB6122
:10456000FB694FEA5303FB61FA697B699A42F3D214
:10457000F97B46F26C72C0F600020B464FEAC303A9
:104580005B1A4FEA8303D31803F118031B6818461C
:10459000F969BA69FEF7B0FCFB7B1846F9697A68DD
:1045A00000F0F2F9F97B46F26C72C0F600020B469D
:1045B0004FEAC3035B1A4FEA8303D31803F11003D6
:1045C0001B79012B20D1F97B46F26C72C0F60002F8
:1045D0000B464FEAC3035B1A4FEA8303D31803F178
:1045E00018031868F97B46F26C72C0F600020B469D
:1045F0004FEAC3035B1A4FEA8303D31803F1100396
:104600001B68194600F0B4FAF97B46F26C72C0F6EA
:1046100000020B464FEAC3035B1A4FEA8303D31829
:1046200003F118031B6818464FF0010100F07EFBF0
:10463000F97B46F26C72C0F600020B464FEAC303E8
:104640005B1A4FEA8303D31803F110035B79012B44
:1046500004D1FB7B1846FFF78BFA3CE0F97B46F26E
:104660006C72C0F600020B464FEAC3035B1A4FEAB6
:104670008303D31803F118031B68184600F0ACF845
:1046800003461C46F97B46F26C72C0F600020B46EC
:104690004FEAC3035B1A4FEA8303D31803F11003F5
:1046A0001B68184600F038F9034640F67C21C2F238
:1046B00000011A464FEA4202D2184FEA82031A4614
:1046C00023464FEA43031B194FEA0313D318CB18B1
:1046D0004FF000025A71F97B46F26C72C0F600028C
:1046E0000B464FEAC3035B1A4FEA8303D31803F167
:1046F00018031B68184600F06FF803461C46F97B48
:1047000046F26C72C0F600020B464FEAC3035B1A16
:104710004FEA8303D31803F110031B68184600F017
:10472000FBF8034640F67C21C2F200011A464FEA2C
:104730004202D2184FEA82031A4623464FEA430345
:104740001B194FEA0313D318CB18BA681A60F97B08
:1047500046F26C72C0F600020B464FEAC3035B1AC6
:104760004FEA8303D31803F118031B68184600F0BF
:1047700033F803461C46F97B46F26C72C0F6000221
:104780000B464FEAC3035B1A4FEA8303D31803F1C6
:1047900010031B68184600F0BFF8034640F67C2162
:1047A000C2F200011A464FEA4202D2184FEA8203CF
:1047B0001A4623464FEA43031B194FEA0313D31843
:1047C000CB184FF001029A714FF00203184607F11F
:1047D0002407BD4690BD00BF80B483B000AF7860B1
:1047E0007B684FF4C052C4F20002934200F0828012
:1047F0004FF4C052C4F20002934228D84FF4006232
:10480000C4F2000293425DD04FF40062C4F2000291
:10481000934209D8B3F1804F4ED04FF48062C4F276
:10482000000293424BD06EE04FF48052C4F200027B
:1048300093424DD04FF4A052C4F2000293424AD0AA
:104840004FF44062C4F2000293423ED05BE04FF46A
:104850008062C4F20102934240D04FF48062C4F2FD
:104860000102934212D84FF40052C4F20002934264
:1048700046D04FF00002C4F20102934219D04FF427
:10488000E052C4F20002934237D03CE04FF4884239
:10489000C4F20102934227D04FF49042C4F20102C5
:1048A000934224D04FF48042C4F20102934218D0C4
:1048B00029E04FF0000328E04FF0010325E04FF01E
:1048C000020322E04FF003031FE04FF004031CE05B
:1048D0004FF0050319E04FF0060316E04FF0070311
:1048E00013E04FF0080310E04FF009030DE04FF024
:1048F0000A030AE04FF00B0307E04FF00C0304E05B
:104900004FF00D0301E04FF00F03184607F10C07BD
:10491000BD4680BC704700BF80B483B000AF7860F4
:104920007B680C2B28D801A252F823F061490008BB
:104930007949000879490008794900086749000861
:104940007949000879490008794900086D4900084B
:104950007949000879490008794900087349000835
:104960004FF000030AE04FF0010307E04FF00203AD
:1049700004E04FF0030301E04FF00503184607F190
:104980000C07BD4680BC704790B58DB000AF0346A4
:10499000B9607A60FB7307F11003184600F0F8FB6A
:1049A0004FF000037B824FF00003BB834FF06003A6
:1049B0003B82F97B46F26C72C0F600020B464FEA6E
:1049C000C3035B1A4FEA8303D31803F118031B6870
:1049D0001846FFF701FF03461C46F97B46F26C724E
:1049E000C0F600020B464FEAC3035B1A4FEA83038B
:1049F000D31803F110031B681846FFF78DFF034619
:104A00007A68D0B240F67C21C2F200011A464FEA21
:104A10004202D2184FEA82031A4623464FEA430362
:104A20001B194FEA0313D318CB1802461A717B687F
:104A3000632B02D9BB68BB6110E07B68BA6802FBDC
:104A400003F37B627A6A48F21F53C5F2EB13A3FBB0
:104A500002134FEA53137B627B6ABB61F97B46F218
:104A60006C72C0F600020B464FEAC3035B1A4FEAB2
:104A70008303D31803F110031B680C2B73D801A216
:104A800052F823F0B94A0008674B0008674B00084A
:104A9000674B0008CF4A0008674B0008674B0008C7
:104AA000674B0008E54A0008674B0008674B0008A1
:104AB000674B0008FB4A000844F66D53C0F600033C
:104AC000FB6245F2E513C0F60003BB6220E044F64A
:104AD0006963C0F60003FB6245F21D23C0F60003C4
:104AE000BB6215E044F69173C0F60003FB6245F229
:104AF0005D23C0F60003BB620AE045F2B103C0F6D5
:104B00000003FB6245F29523C0F60003BB6200BFC1
:104B1000F97B46F26C72C0F600020B464FEAC30303
:104B20005B1A4FEA8303D31803F118031B68194675
:104B300007F11002FB6A084611469847F97B46F2D6
:104B40006C72C0F600020B464FEAC3035B1A4FEAD1
:104B50008303D31803F118031B681A46BB6A104677
:104B60004FF00801984707F13407BD4690BD00BFDC
:104B700080B584B000AF786039607A68B2F1804F58
:104B800006D04FF48063C4F200039A4204D030E0B0
:104B90004FF01C033B7303E04FF01D033B7300BF5A
:104BA0004FF00C037B734FF00103BB734FF0010315
:104BB000FB7307F10C031846FEF768FF7A683B6841
:104BC000002B0ED03B68042B08D03B68082B02D189
:104BD0004FF0080301E04FF0100301E04FF0040331
:104BE00001E04FF00203104619464FF0000200F0BA
:104BF000C7FB07F11007BD4680BD00BF80B485B07C
:104C000000AF786039604FF00003FB817B681B8840
:104C1000FB817A684FF00003C4F201039A421FD06F
:104C20007A684FF48063C4F201039A4218D07B681B
:104C3000B3F1804F14D07A684FF48063C4F200035C
:104C40009A420DD07A684FF40063C4F200039A428E
:104C500006D07A684FF44063C4F200039A4208D148
:104C6000FB8923F07003FB813B685A88FB8913435F
:104C7000FB817A684FF48053C4F200039A420FD04C
:104C80007A684FF4A053C4F200039A4208D0FB891B
:104C900023F44073FB813B681A89FB891343FB8132
:104CA0007B68FA891A803B685A687B68DA623B68DD
:104CB0001A887B681A857A684FF00003C4F20103F2
:104CC0009A4206D07A684FF48063C4F201039A4294
:104CD00004D13B689B7A1A467B681A867B684FF042
:104CE00001029A8207F11407BD4680BC704700BFDD
:104CF00080B483B000AF78607B684FF0FF325A60B9
:104D00007B684FF000021A807B684FF000021A8126
:104D10007B684FF000025A807B684FF000029A7265
:104D200007F10C07BD4680BC704700BF80B483B05C
:104D300000AF78600B46FB70FB78002B08D07B68D7
:104D40001B889BB243F001039AB27B681A8007E08C
:104D50007B681B889BB223F001039AB27B681A80A0
:104D600007F10C07BD4680BC704700BF80B485B01A
:104D700000AF786039604FF000037B814FF0000393
:104D8000FB814FF00003BB817B681B8C9BB223F03F
:104D900001039AB27B681A847B681B8CFB817B6859
:104DA0009B88BB817B681B8B7B817B8923F0700395
:104DB0007B817B8923F003037B813B681A887B8995
:104DC00013437B81FB8923F00203FB813B689A89B3
:104DD000FB891343FB813B685A88FB891343FB81A2
:104DE0007A684FF00003C4F201039A4206D07A6851
:104DF0004FF48063C4F201039A4223D1FB8923F06C
:104E00000803FB813B68DA89FB891343FB81FB893B
:104E100023F00403FB813B689A88FB891343FB81E1
:104E2000BB8923F48073BB81BB8923F40073BB81EE
:104E30003B681A8ABB891343BB813B685A8ABB898A
:104E40001343BB817B68BA899A807B687A891A830D
:104E50003B689A687B685A637B68FA891A8407F111
:104E60001407BD4680BC704780B485B000AF786041
:104E700039604FF000037B814FF00003FB814FF05E
:104E80000003BB817B681B8C9BB223F010039AB29A
:104E90007B681A847B681B8CFB817B689B88BB8149
:104EA0007B681B8B7B817B8923F4E0437B817B893F
:104EB00023F440737B813B681B884FEA03239AB23B
:104EC0007B8913437B81FB8923F02003FB813B68B3
:104ED0009B894FEA03139AB2FB891343FB813B681A
:104EE0005B884FEA03139AB2FB891343FB817A680C
:104EF0004FF00003C4F201039A4206D07A684FF4DF
:104F00008063C4F201039A422FD1FB8923F080030E
:104F1000FB813B68DB894FEA03139AB2FB89134399
:104F2000FB81FB8923F04003FB813B689B884FEAB0
:104F300003139AB2FB891343FB81BB8923F480637B
:104F4000BB81BB8923F40063BB813B681B8A4FEAAA
:104F500083039AB2BB891343BB813B685B8A4FEAE8
:104F600083039AB2BB891343BB817B68BA899A8059
:104F70007B687A891A833B689A687B689A637B6846
:104F8000FA891A8407F11407BD4680BC704700BF38
:104F900080B485B000AF786039604FF000037B814A
:104FA0004FF00003FB814FF00003BB817B681B8C3B
:104FB0009BB223F480739AB27B681A847B681B8C43
:104FC000FB817B689B88BB817B689B8B7B817B891A
:104FD00023F070037B817B8923F003037B813B6893
:104FE0001A887B8913437B81FB8923F40073FB813F
:104FF0003B689B894FEA03239AB2FB891343FB81E9
:105000003B685B884FEA03239AB2FB891343FB8119
:105010007A684FF00003C4F201039A4206D07A681E
:105020004FF48063C4F201039A422FD1FB8923F429
:105030000063FB813B68DB894FEA03239AB2FB895B
:105040001343FB81FB8923F48063FB813B689B88CE
:105050004FEA03239AB2FB891343FB81BB8923F4F4
:105060008053BB81BB8923F40053BB813B681B8AFF
:105070004FEA03139AB2BB891343BB813B685B8A37
:105080004FEA03139AB2BB891343BB817B68BA8989
:105090009A807B687A899A833B689A687B68DA632E
:1050A0007B68FA891A8407F11407BD4680BC7047F3
:1050B00080B485B000AF786039604FF00003BB81E9
:1050C0004FF000037B814FF00003FB817B681B8C5A
:1050D0009BB223F480539AB27B681A847B681B8C42
:1050E0007B817B689B88FB817B689B8BBB81BB89B9
:1050F00023F4E043BB81BB8923F44073BB813B684D
:105100001B884FEA03239AB2BB891343BB817B8977
:1051100023F400537B813B689B894FEA03339AB2A7
:105120007B8913437B813B685B884FEA03339AB2E8
:105130007B8913437B817A684FF00003C4F201033B
:105140009A4206D07A684FF48063C4F201039A420F
:105150000BD1FB8923F48043FB813B681B8A4FEA18
:1051600083139AB2FB891343FB817B68FA899A8087
:105170007B68BA899A833B689A687B681A647B6803
:105180007A891A8407F11407BD4680BC704700BFB6
:1051900080B483B000AF78607B684FF000021A8063
:1051A0007B684FF000025A807B684FF000029A80C3
:1051B0007B684FF000029A607B684FF000029A8192
:1051C0007B684FF00002DA817B684FF000021A82A0
:1051D0007B684FF000025A8207F10C07BD4680BC85
:1051E000704700BF80B485B000AF78600B467B800D
:1051F0004FF00003FB817B681B8BFB81FB8923F055
:105200000803FB81FA897B881343FB817B68FA8959
:105210001A8307F11407BD4680BC704780B485B07F
:1052200000AF78600B467B804FF00003FB817B680A
:105230001B8BFB81FB8923F40063FB817B884FEA96
:1052400003239AB2FB891343FB817B68FA891A8393
:1052500007F11407BD4680BC704700BF80B485B01D
:1052600000AF78600B467B804FF00003FB817B68CA
:105270009B8BFB81FB8923F00803FB81FA897B88E8
:105280001343FB817B68FA899A8307F11407BD46B3
:1052900080BC704780B485B000AF78600B467B80DF
:1052A0004FF00003FB817B689B8BFB81FB8923F420
:1052B0000063FB817B884FEA03239AB2FB89134387
:1052C000FB817B68FA899A8307F11407BD4680BC8D
:1052D000704700BF80B485B000AF786013460A46BF
:1052E0007A803B804FF00003FB817B884FF0010206
:1052F00002FA03F3FB817B681B8C9AB2FB896FEA8D
:1053000003039BB213409AB27B681A847B681B8CA0
:105310009AB239887B8801FA03F39BB213439AB29D
:105320007B681A8407F11407BD4680BC704700BF34
:1053300080B483B000AF78600B46FB70FB78002B25
:105340000CD07B68B3F844309BB26FEA43436FEAFA
:1053500053439AB27B68A3F844200BE07B68B3F810
:1053600044309BB24FEA43434FEA53439AB27B68BF
:10537000A3F8442007F10C07BD4680BC704700BF6E
:1053800080B483B000AF786013460A467A807B70A1
:105390007B78002B08D07B689B899AB27B8813436B
:1053A0009AB27B689A810AE07B689B899AB27B8873
:1053B0006FEA03039BB213409AB27B689A8107F1AC
:1053C0000C07BD4680BC704780B483B000AF7860E6
:1053D0000B467B807B886FEA03039AB27B681A8254
:1053E00007F10C07BD4680BC704700BF10B440F207
:1053F000F843C2F20003044618680A46214610BC6E
:1054000000F000B810B501FB02F100F02BF80446E3
:1054100068B150F8042C22F003010A1F242A18D87E
:10542000132A06D80346002018605860986020466A
:1054300010BD00231B2A036043600FD9242A836018
:10544000C36005BF0361436100F1100300F118035D
:10545000E9E7002100F056FB204610BD00F10803EB
:10546000E1E700BF2DE9F04F01F10B05162D83B0E8
:10547000064627D935F0070527D4A94225D8304656
:1054800000F0D6FBB5F5FC7F23D2BA4F4FEAD50C1E
:1054900007EBCC02D468944200F0DE816368E268D6
:1054A000A16823F003002318CA605868916040F097
:1054B00001025A60304600F0BDFB0834204603B0BC
:1054C000BDE8F08F1025A942D9D90C2434600024FE
:1054D000F4E75FEA552C00F08B80BCF1040F00F27A
:1054E00055814FEA951707F1380E4FEA4E01A14F4B
:1054F00007EB8101CC68A14205D10CE0002A7CDADF
:10550000E468A14207D0636823F00300421B0F2A1E
:10551000F4DD0EF1FF3E0EF1010C964B3C6903F1F8
:10552000080E744500F07581616821F003014A1B83
:105530000F2A00F35B81002AC3F814E0C3F810E0DF
:1055400069DAB1F5007F80F02F81CA0803EBC20150
:105550004FF00109921009FA02F95A688868E1606F
:1055600049EA0209A060C3F804908C60C46001207D
:105570004FEAAC0400FA04F0484556D819EA000F87
:1055800007D12CF0030C400019EA000F0CF1040CB9
:10559000F9D007EBCC094C46E046E3689C4207D1C2
:1055A0003AE1002A80F26281DB689C4200F034819B
:1055B000596821F003014A1B0F2AF2DD1C465919D4
:1055C000D86854F808CF8A5045F0010542F001022E
:1055D000CCF80C00C0F808C05D6079613961C1F891
:1055E0000CE0C1F808E04A60304600F023FB65E7B4
:1055F0004FEAD50E4FEA4E0179E72218E36850686A
:10560000A16840F001005060CB609960304600F026
:1056100011FB083452E7611830464B6843F0010231
:105620004A6000F007FB083448E7BC68606820F077
:105630000309A94504D3C5EB09030F2B00F38D80A3
:105640004D4A4E4B11681868013104EB090B05EB0C
:10565000000300F05A8103F580500F3020F47F6181
:1056600021F00F0C614630468DE8041000F0E4FA9A
:10567000B0F1FF3F80469DE8041000F05281834561
:1056800000F20F81DFF800A1DAF80030C34563446F
:10569000CAF8003000F04A811268013200F05781E8
:1056A000CBEB080B5B44CAF8003018F0070100F0A0
:1056B0000B81C1F10800C1F58053804403F1080259
:1056C00008EB0C010805030DC3EB020B30465946ED
:1056D00000F0B2FA431C00F04681C8EB00020BEB6D
:1056E000020141F00100DAF80030C7F808805B449D
:1056F000BC42CAF80030C8F8040015D0B9F10F0F49
:1057000040F2F2806168A9F10C0222F00702A018B1
:1057100001F0010C42EA0C0E05210F2AC4F804E046
:105720004160816000F21781154ABC6810688342AD
:1057300088BF1360134A11688B4288BF1360636887
:1057400023F00300A842C5EB000301D30F2B04DCB8
:10575000304600F06FFA0024B0E6621943F0010110
:1057600045F00105656030465160BA6000F062FAAC
:105770000834A3E61805002024090020240D002089
:10578000200D00201C0D0020280D0020BCF1140F5E
:105790007BD9BCF1540F00F28D804FEA153404F12F
:1057A0006E0E4FEA4E01A2E6480A042872D9142868
:1057B00000F2AE8000F15B094FEA490207EB82007C
:1057C000DFF8F0818368834200F081805A6822F01C
:1057D0000302914202D29B689842F7D1DA68D7F867
:1057E0000490E260A360DC609460C0E6611942F05E
:1057F000010045F001056560596119614860C1F813
:105800000CE0C1F808E08A50304600F013FA083482
:1058100054E6D3F80490AAE608F10108083418F019
:10582000030F7FF4BAAE49461CF0030FA1F1080440
:105830000CF1FF3C00F0B0800968A142F4D07C6814
:105840004000A0423FF6F1AE00283FF4EEAE044225
:1058500000F0A780C4469CE604F108036469A342F3
:1058600008BF0CF1020C3FF458AE17E659181C465D
:105870004868DB6854F8082F40F001004860D360A6
:105880009A60304600F0D6F918E60CF15B0E4FEA4C
:105890004E012CE64FEA911808F138094FEA490207
:1058A0008CE7BC423FF4EEAE424CA468626822F042
:1058B000030047E7BCF5AA7F1CD84FEAD53202F1B6
:1058C000770E4FEA4E0112E64FF48052F8E6D8F810
:1058D00004004FEAA902012101FA02F242EA00099A
:1058E000C8F804901A467CE70122C8F80420444610
:1058F000002027E740F254539C4524D84FEA9540B6
:1059000000F17C0E4FEA4E01F1E503F1100CA9E61F
:1059100054282CD84FEA113202F16E094FEA49029D
:105920004CE7BC68616821F003000BE74FEA0B50BD
:10593000010D00297FF4B0AEB8680CEB090141F00D
:1059400001044460F0E6FC214FF07E0ECFE51A48DA
:10595000C0F80080A9E604F10801184C304600F0B8
:1059600011FB2368E0E601204FF0000BBBE6B0F529
:10597000AA7F06D84FEAD13303F177094FEA4902EB
:105980001CE740F2545398420FD84FEA914000F17F
:105990007C094FEA490211E77C6824EA00047C6034
:1059A0004EE7400008F1040851E7FC224FF07E0961
:1059B00004E700BF1805002024090020280D00205E
:1059C0000F2A2DE9F00340F2958041EA00039B077E
:1059D00040F092800C6804604D6845608E68A2F1CA
:1059E00010038660CC681D460F2DC460C3F30016FB
:1059F00001F1100400F1100322D966B126681E607F
:105A000066685E60A6689E60E668103DDE601034E1
:105A100010330F2D14D926681E6066685E60A66874
:105A20009E60E668DE6026691E6166695E61A66941
:105A30009E61E669203DDE61203420330F2DEAD8D7
:105A4000A2F1100323F00F0402F00F031034032B14
:105A500000EB0408214451D9A3F104090B464FEA95
:105A6000990901EB890C53F8046BC1EB0C05444612
:105A70000CF1040C634544F8046BC5F3800512D0A7
:105A80002DB153F8045B634544F8045B0BD01E460C
:105A9000254656F8047B45F8047B5F68331D676034
:105AA0002C1D6345F3D109F101039C00091902F093
:105AB00003024444DAB123460D7803F8015BA218CF
:105AC000E4431419934204F0010410D02CB111F8EE
:105AD000014F03F8014B934209D04D781C4604F85E
