:020000040800F2
:10000000D00C0020310400089D0400089D04000865
:100010009D0400089D0400089D04000800000000E5
:100020000000000000000000000000009D04000827
:100030009D040008000000009D0400089D130008B6
:100040009D0400089D0400089D0400089D0400080C
:100050009D0400089D0400089D0400089D040008FC
:100060009D0400089D0400089D0400089D040008EC
:100070009D0400089D0400089D0400089D040008DC
:100080009D0400089D0400089D0400089D040008CC
:100090009D0400089D0400089D0400089D040008BC
:1000A0009D0400089D0400089D0400089D040008AC
:1000B00029240008A5040008352400089D04000830
:1000C0009D0400089D0400089D0400089D0400088C
:1000D0009D0400089D0400089D0400089D0400087C
:1000E0009D0400089D0400089D0400089D0400086C
:1000F0009D0400089D0400089D0400089D0400085C
:100100009D0400089D0400089D0400089D0400084B
:100110009D0400089D0400089D0400089D0400083B
:100120009D0400089D0400089D0400089D0400082B
:100130009D0400089D0400089D0400089D0400081B
:100140009D0400089D0400089D0400089D0400080B
:100150009D0400089D0400089D0400089D040008FB
:100160009D0400089D0400089D0400089D040008EB
:100170009D0400089D0400089D0400089D040008DB
:100180009D0400089D04000880B58AB000AF786027
:1001900039604FF000037B624FF000033B624FF089
:1001A0000003FB614FF00003BB617B681B8A9BB2BD
:1001B0007B627B6A23F440537B623B68DB887A6A0C
:1001C00013437B627B6A9AB27B681A827B689B8945
:1001D0009BB27B627B6A23F4B05323F00C037B62F7
:1001E0003B689A883B681B8913439AB23B685B89DA
:1001F00013439BB27A6A13437B627B6A9AB27B6831
:100200009A817B689B8A9BB27B627B6A23F44073F2
:100210007B623B689B897A6A13437B627B6A9AB2F2
:100220007B689A8207F10803184600F03DFA7A6865
:100230004FF48053C4F201039A4206D07A684FF417
:10024000A053C4F201039A4202D17B693B6201E0F0
:100250003B693B627B689B899BB29BB21BB2002BC4
:100260000FDA3A6A13464FEA83039B184FEA830278
:100270009A183B681B684FEA4303B2FBF3F3FB6138
:100280000EE03A6A13464FEA83039B184FEA830253
:100290009A183B681B684FEA8303B2FBF3F3FB61D8
:1002A000FA6948F21F53C5F2EB13A3FB02134FEA9E
:1002B00053134FEA03137B627B6A4FEA13134FF029
:1002C000640202FB03F3FA69D31ABB617B689B8962
:1002D0009BB29BB21BB2002B12DABB694FEAC3037D
:1002E00003F1320248F21F53C5F2EB13A3FB0213D2
:1002F0004FEA531303F007037A6A13437B6211E05A
:10030000BB694FEA031303F1320248F21F53C5F2EF
:10031000EB13A3FB02134FEA531303F00F037A6AA4
:1003200013437B627B6A9AB27B681A8107F12807C4
:10033000BD4680BD80B485B000AF786039604FF0B5
:100340000003FB607B681B8A9BB2FB60FB6823F4A5
:100350007063FB603B681A883B685B8813439AB202
:100360003B689B8813439AB23B68DB8813439BB27C
:10037000FA681343FB60FB689AB27B681A8207F144
:100380001407BD4680BC704780B483B000AF78606E
:100390000B46FB70FB78002B08D07B689B899BB2D7
:1003A00043F400539AB27B689A8107E07B689B898B
:1003B0009BB223F400539AB27B689A8107F10C0731
:1003C000BD4680BC704700BF80B483B000AF78608A
:1003D0000B467B807B884FEAC3534FEAD3539AB2D4
:1003E0007B689A8007F10C07BD4680BC704700BF50
:1003F00080B485B000AF78600B467B804FF000037F
:10040000FB737B681B889AB27B8813409BB2002BDE
:1004100003D04FF00103FB7302E04FF00003FB73C6
:10042000FB7B184607F11407BD4680BC704700BF30
:1004300080B582B000AF42F6E423C0F600037B60D3
:1004400040F20003C2F200033B600BE07B681A68D5
:100450003B681A603B6803F104033B607B6803F16F
:1004600004037B603A6840F26043C2F200039A42A0
:10047000ECD3084808494FF000028842B8BF40F862
:10048000042BFFF6FAAF00F0DBF807F10807BD46D2
:1004900080BD000060040020CC04002080B400AFC8
:1004A000FEE700BF80B500AF40F26043C2F2000338
:1004B0001B78012B4AD14FF48060C4F2000001F098
:1004C000BFFF024640F26443C2F200031A604FF4D9
:1004D0008060C4F200004FF008014FF0000201F00C
:1004E000BBFF40F26843C2F200031A6840F2644363
:1004F000C2F200031B689A4210D940F26843C2F26C
:1005000000031A6840F26443C2F200031B68D21A67
:1005100040F2C843C2F200031A600FE040F26443A5
:10052000C2F200031A6840F26843C2F200031B687B
:10053000D21A40F2C843C2F200031A6040F260438C
:10054000C2F200034FF000021A7018E040F260435C
:10055000C2F200031B7803F10103DAB240F26043F8
:10056000C2F200031A704FF48060C4F2000001F080
:1005700067FF024640F26843C2F200031A6080BD82
:1005800080B483B000AF03463960FB7197F9073040
:10059000002B10DA4FF46D43CEF20003FA7902F02B
:1005A0000F02A2F104013A68D2B24FEA0212D2B2AB
:1005B0005B181A760DE04FF46143CEF2000397F911
:1005C00007103A68D2B24FEA0212D2B25B1883F82F
:1005D000002307F10C07BD4680BC704780B582B090
:1005E00000AF78607A686FF07F439A4202D94FF08B
:1005F00001031FE04EF21003CEF200037A6822F0EE
:100600007F4202F1FF325A604FF0FF304FF00F018E
:10061000FFF7B6FF4EF21003CEF200034FF00002D8
:100620009A604EF21003CEF200034FF007021A60F8
:100630004FF00003184607F10807BD4680BD00BF14
:1006400080B586B000AF4FF000033B704FF003035E
:100650007B704FF000037B604FF00003BB604FF0F6
:100660000003FB604FF000033B614FF000037B6130
:1006700000F034FC40F24C43C2F200031A6844F626
:10068000D353C1F26203A3FB02134FEA931318463C
:10069000FFF7A4FF01F0C6FD0346012B00D100BF08
:1006A00001F0BEFAFCE700BF80B489B000AF78600B
:1006B0004FF00003BB614FF000037B614FF000037C
:1006C000FB614FF002033B614FF00003FB604FF012
:1006D0000203BB604FF46053C4F202039B6803F053
:1006E0000C03BB61BB69042B0AD0082B0FD0002B75
:1006F00060D17A684FF41053C0F2F403136060E0E5
:100700007A684FF49053C0F27A03136059E04FF4C3
:100710006053C4F202035B6803F480034FEA93530F
:10072000FB604FF46053C4F202035B6803F03F03C5
:10073000BB60FB68002B14D04FF49053C0F27A03D7
:10074000BA68B3FBF2F24FF46053C4F20203596883
:1007500047F6C0730B404FEA931303FB02F3FB61B0
:1007600013E04FF41053C0F2F403BA68B3FBF2F293
:100770004FF46053C4F20203596847F6C0730B404C
:100780004FEA931303FB02F3FB614FF46053C4F28F
:1007900002035B6803F440334FEA134303F10103A0
:1007A0004FEA43033B61FA693B69B2FBF3F27B68B2
:1007B0001A6006E07A684FF41053C0F2F403136035
:1007C00000BF4FF46053C4F202039B6803F0F003D0
:1007D000BB61BB694FEA1313BB6140F20003C2F275
:1007E0000003BA699B181B78DBB27B617B681A68CF
:1007F0007B6922FA03F27B685A604FF46053C4F2BB
:1008000002039B6803F4E053BB61BB694FEA932387
:10081000BB6140F20003C2F20003BA699B181B7867
:10082000DBB27B617B685A687B6922FA03F27B68E2
:100830009A604FF46053C4F202039B6803F4604370
:10084000BB61BB694FEA5333BB6140F20003C2F2A4
:100850000003BA699B181B78DBB27B617B685A681E
:100860007B6922FA03F27B68DA6007F12407BD4650
:1008700080BC704780B483B000AF78600B46FB70DB
:10088000FB78002B0CD04FF46053C4F202034FF4FA
:100890006052C4F20202116B7A680A431A630DE0D7
:1008A0004FF46053C4F202034FF46052C4F20202E8
:1008B000116B7A686FEA02020A401A6307F10C07AB
:1008C000BD4680BC704700BF80B483B000AF786085
:1008D0000B46FB70FB78002B0CD04FF46053C4F236
:1008E00002034FF46052C4F20202516C7A680A4368
:1008F0005A640DE04FF46053C4F202034FF46052A7
:10090000C4F20202516C7A686FEA02020A405A6429
:1009100007F10C07BD4680BC704700BF80B58AB0A8
:1009200000AF0B463A600246FA71BB714FF000030C
:1009300087F8273042F2F052C0F6000207F11803A0
:100940001068516803C307F108034FF000021A60F2
:1009500003F104034FF000021A6003F104034FF0A7
:1009600000021A6003F104034FF000021A6003F161
:1009700004033B68BB60F97942F2A042C0F6000272
:100980000B464FEAC3035B1A4FEA8303D31803F104
:1009900018031A684FF48053C4F201039A4241D0FD
:1009A000F97942F2A042C0F600020B464FEAC303B7
:1009B0005B1A4FEA8303D31803F118031A684FF444
:1009C0008843C4F200039A422CD0F97942F2A04243
:1009D000C0F600020B464FEAC3035B1A4FEA8303DB
:1009E000D31803F118031A684FF49043C4F20003BC
:1009F0009A4217D0F97942F2A042C0F600020B46A3
:100A00004FEAC3035B1A4FEA8303D31803F11803B9
:100A10001A684FF4A053C4F201039A4202D04FF077
:100A2000050375E1F97942F2A042C0F600020B46D7
:100A30004FEAC3035B1A4FEA8303D31803F1180389
:100A40001B68184600F010FA0346194640F26C4243
:100A5000C2F200020B464FEA43035B184FEA8303DE
:100A6000D3181B78012B02D14FF0060350E1FB791C
:100A7000002B6FD0BB79002B6CD04FF00C037B8226
:100A8000F97942F2A042C0F600020B464FEAC303D6
:100A90005B1A4FEA8303D31803F118031868B97976
:100AA00042F2A042C0F600020B464FEAC3035B1AB3
:100AB0004FEA8303D31803F118031B68984202D04E
:100AC0004FF0020324E1F97942F2A042C0F600029D
:100AD0000B464FEAC3035B1A4FEA8303D31803F1B3
:100AE00018031B68184600F0BFF90346194640F288
:100AF0006C42C2F200020B464FEA43035B184FEA16
:100B00008303D31803F10803FA799A70B97942F292
:100B1000A042C0F600020B464FEAC3035B1A4FEA3D
:100B20008303D31803F118031B68184600F09CF9DF
:100B30000346194640F26C42C2F200020B464FEAED
:100B400043035B184FEA8303D31803F10803BA7910
:100B50005A7016E0FB79002B06D0FB7987F8273016
:100B60004FF008037B820CE0BB79002B06D0BB79E9
:100B700087F827304FF004037B8202E04FF0030335
:100B8000C6E0F97942F2A042C0F600020B464FEAF5
:100B9000C3035B1A4FEA8303D31803F118031B68DE
:100BA000184600F01BF997F8271042F2A042C0F651
:100BB00000020B464FEAC3035B1A4FEA8303D318C4
:100BC00003F118031B681A4607F10803104619467B
:100BD000FFF7DAFA97F8271042F2A042C0F60002B7
:100BE0000B464FEAC3035B1A4FEA8303D31803F1A2
:100BF00018031B681A4607F1180310461946FFF739
:100C000099FBBB79002B25D0B97942F2A042C0F6FE
:100C100000020B464FEAC3035B1A4FEA8303D31863
:100C200003F110031B79012B14D14FF0470387F810
:100C300020304FF0000387F821304FF0000387F891
:100C400022304FF0010387F8233007F120031846C4
:100C500001F078FB97F8271042F2A042C0F600029C
:100C60000B464FEAC3035B1A4FEA8303D31803F121
:100C700018031B6818464FF00101FFF785FB97F832
:100C8000271042F2A042C0F600020B464FEAC3030F
:100C90005B1A4FEA8303D31803F118031B68184645
:100CA00000F0E2F80346194640F26C42C2F200023C
:100CB0000B464FEA43035B184FEA8303D3184FF008
:100CC00001021A7097F8271042F2A042C0F6000203
:100CD0000B464FEAC3035B1A4FEA8303D31803F1B1
:100CE00018031B68184600F0BFF80346194640F287
:100CF0006C42C2F200020B464FEA43035B184FEA14
:100D00008303D31803F104033A681A604FF0000319
:100D1000184607F12807BD4680BD00BF80B584B0E6
:100D200000AF396013460246FA71BB804FF00003F2
:100D3000FB8149E048F2A063C0F20103BB6003E01D
:100D4000BB6803F1FF33BB60F97942F2A042C0F601
:100D500000020B464FEAC3035B1A4FEA8303D31822
:100D600003F118031B6818464FF08001FFF740FBA2
:100D70000346012B02D0BB68002BE1D1BB68002BDE
:100D800002D14FF0040324E0F97942F2A042C0F608
:100D900000020B464FEAC3035B1A4FEA8303D318E2
:100DA00003F118031B681A46FB893968CB181B78B6
:100DB000F98901F10101F98110461946FFF704FB99
:100DC000BB8803F1FF33BB80BB88002BB2D14FF04F
:100DD0000003184607F11007BD4680BD80B582B0FC
:100DE00000AF78607B684FF49042C4F200029342F7
:100DF00027D04FF49042C4F20002934206D84FF439
:100E00008842C4F20002934214D028E04FF480528A
:100E1000C4F20102934206D04FF4A052C4F2010280
:100E2000934215D01BE04FF010004FF00101FFF787
:100E30004BFD14E04FF400304FF00101FFF744FD8B
:100E40000DE04FF480204FF00101FFF73DFD06E07B
:100E50004FF020004FF00101FFF736FD00BF07F112
:100E60000807BD4680BD00BF80B483B000AF786086
:100E70007B684FF49042C4F2000293421FD04FF4BB
:100E80009042C4F20002934206D84FF48842C4F262
:100E90000002934210D018E04FF48052C4F20102D5
:100EA000934206D04FF4A052C4F20102934209D0FB
:100EB0000BE04FF000030AE04FF0010307E04FF0B2
:100EC000020304E04FF0030301E04FF0050318466E
:100ED00007F10C07BD4680BC704700BF90B587B0D6
:100EE00000AF00F0D9FF01F021F84FF00103FB75CE
:100EF0009DE0F97D42F2F852C0F600020B464FEA3F
:100F0000C3035B1A4FEA8303D3181B683B61F97D67
:100F100042F2F852C0F600020B464FEAC3035B1AD6
:100F20004FEA8303D3189B887B60F97D42F2F85225
:100F3000C0F600020B464FEAC3035B1A4FEA830375
:100F4000D3189B793B72F97D42F2F852C0F6000249
:100F50000B464FEAC3035B1A4FEA8303D31803F12E
:100F600008035B78BB72F97D42F2F852C0F60002CA
:100F70000B464FEAC3035B1A4FEA8303D31803F10E
:100F800008039B78FB72F97D42F2F852C0F600022A
:100F90000B464FEAC3035B1A4FEA8303D31803F1EE
:100FA00008031B787B72386900F04AF83B7A022B01
:100FB00033D1F97D42F2F852C0F600020B464FEAF7
:100FC000C3035B1A4FEA8303D3189B88184600F0CB
:100FD00061F9F860F97D42F2F852C0F600020B4662
:100FE0004FEAC3035B1A4FEA8303D3181868FB6800
:100FF0009CB2F97D42F2F852C0F600020B464FEA6D
:10100000C3035B1A4FEA8303D31803F10C031B6875
:10101000DBB221461A4600F0EBFE07F10403386903
:10102000194600F043FEFB7D03F10103FB75FB7DD8
:101030000B2B7FF65EAF07F11C07BD4690BD00BFCE
:1010400080B582B000AF78607B684FF48052C4F204
:101050000202934200F0A0804FF48052C4F20202D8
:1010600093421FD84FF48062C4F20202934252D0DE
:101070004FF48062C4F20202934206D84FF000029D
:10108000C4F20202934230D000E14FF40062C4F295
:101090000202934255D04FF44062C4F202029342DE
:1010A00065D0F3E04FF4C052C4F20202934200F064
:1010B0009D804FF4C052C4F20202934206D84FF40E
:1010C000A052C4F2020293427BD0DFE04FF4E05220
:1010D000C4F20202934200F09E804FF40052C4F228
:1010E0000202934200F0AC80D0E040F29C43C2F296
:1010F00000031B78002B40F0B8804FF001004FF048
:101100000101FFF7B7FB40F29C43C2F200034FF02E
:1011100001021A70A9E040F29C43C2F200035B781E
:10112000002B40F0A4804FF002004FF00101FFF7C8
:10113000A1FB40F29C43C2F200034FF001025A703F
:1011400095E040F29C43C2F200039B78002B40F0F4
:1011500090804FF004004FF00101FFF78BFB40F24D
:101160009C43C2F200034FF001029A7081E040F20A
:101170009C43C2F20003DB78002B7CD14FF00800C7
:101180004FF00101FFF776FB40F29C43C2F20003EF
:101190004FF00102DA706EE040F29C43C2F20003AD
:1011A0001B79002B69D14FF010004FF00101FFF7C0
:1011B00061FB40F29C43C2F200034FF001021A713E
:1011C0005BE040F29C43C2F200035B79002B56D1F6
:1011D0004FF020004FF00101FFF74CFB40F29C4321
:1011E000C2F200034FF001025A7148E040F29C4302
:1011F000C2F200039B79002B43D14FF040004FF027
:101200000101FFF737FB40F29C43C2F200034FF0AD
:1012100001029A7135E040F29C43C2F20003DB798F
:10122000002B30D14FF080004FF00101FFF722FB7F
:1012300040F29C43C2F200034FF00102DA7122E057
:1012400040F29C43C2F200031B7A002B1DD14FF4E5
:1012500080704FF00101FFF70DFB40F29C43C2F29A
:1012600000034FF001021A720FE000BF0EE000BF52
:101270000CE000BF0AE000BF08E000BF06E000BFCE
:1012800004E000BF02E000BF00E000BF07F1080774
:10129000BD4680BD80B485B000AF0346FB80FB88AF
:1012A000802B50D0802B11DC082B3CD0082B06DC87
:1012B000022B30D0042B32D0012B28D067E0202B1A
:1012C00039D0402B3BD0102B31D060E0B3F5006F0C
:1012D00049D0B3F5006F09DCB3F5007F3BD0B3F51F
:1012E000806F3CD0B3F5807F31D050E0B3F5005F24
:1012F00041D0B3F5005F03DCB3F5805F37D046E043
:10130000B3F5804F3BD0B3F5004F3CD03FE04FF0FA
:101310000003FB603BE04FF00103FB6037E04FF060
:101320000203FB6033E04FF00303FB602FE04FF05C
:101330000403FB602BE04FF00503FB6027E04FF058
:101340000603FB6023E04FF00703FB601FE04FF054
:101350000803FB601BE04FF00903FB6017E04FF050
:101360000A03FB6013E04FF00B03FB600FE04FF04C
:101370000C03FB600BE04FF00D03FB6007E04FF048
:101380000E03FB6003E04FF00F03FB6000BFFB6840
:10139000184607F11407BD4680BC704780B500AF02
:1013A00072B640F2A843C2F200031B6803F10102C7
:1013B00040F2A843C2F200031A6040F2A843C2F20E
:1013C00000031B68B3F1FF3F3CD140F2A843C2F2D7
:1013D00000034FF000021A6034E040F21003C2F242
:1013E00000031B685A6940F21003C2F200031A603E
:1013F00040F21003C2F200031B685A6840F2A8438F
:10140000C2F200031B689A421DD840F21003C2F2D8
:1014100000031B684FF003025A7040F21003C2F23F
:1014200000031B681A4640F2AC43C2F200039A4222
:1014300009D040F21003C2F200031B68184600F006
:1014400015F800E000BF40F21003C2F200031B6871
:101450005B69002BC1D140F21003C2F2000340F2DD
:10146000AC42C2F200021A6062B680BD80B483B0A2
:1014700000AF78607B685B697A6812691A617B6883
:101480001B697A6852695A6107F10C07BD4680BC36
:10149000704700BF80B582B000AF0346FB7107F113
:1014A00007034FF0010019464FF00102FFF736FC29
:1014B00007F10807BD4680BD80B483B000AF7860F7
:1014C0000B46FB707B68FA781A704FF001031846E0
:1014D00007F10C07BD4680BC704700BF80B485B0E3
:1014E00000AF786039604FF00003FB600FE03B68AD
:1014F0001A787B681A707B6803F101037B603B6894
:1015000003F101033B60FB6803F10103FB603B68EF
:101510001B78002BEBD1FB68184607F11407BD467A
:1015200080BC704780B586B000AFF8607A603B60E1
:101530000B46FB724FF000037B617B6803F1FF33C6
:101540007B603B68092B25D93A684CF6CD43CCF635
:10155000CC43A3FB02134FEAD303FA7AF86811468F
:101560007A68FFF7DFFF78617B69FA68D318FB6060
:1015700013E0FB7AF8681946FFF79EFFFB6803F15A
:101580000103FB607B6903F101037B617B6803F16D
:10159000FF337B607B68002BEBDC39684CF6CD4376
:1015A000CCF6CC43A3FB01234FEAD30213464FEA08
:1015B00083039B184FEA4303CA1AD3B203F13003E3
:1015C000DBB2F8681946FFF777FF03467A69D3184C
:1015D0007B617B69184607F11807BD4680BD00BFD7
:1015E00080B586B000AFF8607A603B600B46FB7256
:1015F0004FF000037B613B68002B04DA3B68C3F1CA
:1016000000033B6101E03B683B617B6803F1FF3312
:101610007B603B69092B2AD93B68002B12DA3A69B7
:101620004CF6CD43CCF6CC43A3FB02134FEAD303D5
:10163000C3F10003FA7AF86811467A68FFF7D0FF21
:1016400078610FE03A694CF6CD43CCF6CC43A3FB6E
:1016500002134FEAD303FA7AF86811467A68FFF763
:10166000BFFF78617B69FA68D318FB602BE03B68A9
:10167000002B15DA7B6803F1FF337B6010E0FB7A07
:10168000F8681946FFF718FFFB6803F10103FB60D8
:101690007B6903F101037B617B6803F1FF337B60AE
:1016A0007B68002BEBDC3B68002B0CDAF8684FF012
:1016B0002D01FFF701FF03467A69D3187B61FB68B0
:1016C00003F10103FB6039694CF6CD43CCF6CC4302
:1016D000A3FB01234FEAD30213464FEA83039B186F
:1016E0004FEA4303CA1AD3B203F13003DBB2F868FE
:1016F0001946FFF7E1FE03467A69D3187B617B69DF
:10170000184607F11807BD4680BD00BF80B588B0F8
:1017100002AFF8607A600A46FA72BB724FF00003BB
:101720007B617B6803F1FF337B603B6A4FEA1313F5
:10173000002B24D03B6A4FEA1311FA7ABB7A00914E
:10174000F86811467A68FFF7E1FF03467A69D31813
:101750007B617B69FA68D318FB6013E0FB7AF86859
:101760001946FFF7A9FEFB6803F10103FB607B69E3
:1017700003F101037B617B6803F1FF337B607B68CE
:10178000002BEBDC3B6A03F00F03092B0CD83B6A00
:10179000DBB203F00F03DBB203F13003DBB2F86816
:1017A0001946FFF789FE1BE0BB7A002B0CD03B6A81
:1017B000DBB203F00F03DBB203F13703DBB2F868EF
:1017C0001946FFF779FE0BE03B6ADBB203F00F032B
:1017D000DBB203F15703DBB2F8681946FFF76CFE82
:1017E0007B6903F101037B617B69184607F11807E8
:1017F000BD4680BD80B58AB002AFF860B9607A603E
:101800003B604FF00003BB614FF000037B61FB685E
:10181000002B00F01C81FB684FF000021A7016E1EB
:101820007B681B78252B10D07B681A78FB681A70B0
:10183000FB6803F10103FB607B6803F101037B603C
:101840007B6903F101037B6102E17B6803F1010322
:101850001B78252B10D1FB684FF025021A70FB680E
:1018600003F10103FB607B6803F102037B607B698A
:1018700003F101037B61EBE04FF02003FB774FF0B6
:101880000003BB777B6803F101037B607B681B78F7
:10189000302B1BD14FF03003FB777B6803F1010342
:1018A0007B6013E0BB7F1A464FEA8202D3184FEAEF
:1018B0004303DAB27B681B78D318DBB2A3F13003A1
:1018C000BB777B6803F101037B6000E000BF7B68AE
:1018D0001B782F2B03D97B681B78392BE2D9BA7F71
:1018E0007B69D3181A46BB689A4205D9BB68DAB23D
:1018F0007B69DBB2D31ABB777B681B78A3F15803F3
:10190000202B00F2948001A252F823F0E119000884
:101910002F1A00082F1A00082F1A00082F1A000883
:101920002F1A00082F1A00082F1A00082F1A000873
:101930002F1A00082F1A0008171A0008911900081A
:101940002F1A00082F1A00082F1A00082F1A000853
:10195000911900082F1A00082F1A00082F1A0008E2
:101960002F1A00082F1A00082F1A00082F1A000833
:101970002F1A00082F1A0008011A00082F1A000851
:10198000A91900082F1A00082F1A0008C119000809
:10199000BA7F3B6803F1040139601B68F97FF8687E
:1019A000FFF71EFEB86145E0BA7F3B6803F1040112
:1019B00039601B68F97FF868FFF7B4FDB86139E05A
:1019C000BA7F3B6803F1040139601968FB7F00911D
:1019D000F86819464FF00003FFF798FEB86129E058
:1019E000BA7F3B6803F1040139601968FB7F0091FD
:1019F000F86819464FF00103FFF788FEB86119E057
:101A00003B6803F104023A601B68F8681946FFF767
:101A100065FDB8610EE03B6803F104023A601B68A3
:101A2000DBB2F8681946FFF747FDB86102E04FF0F6
:101A3000FF332CE07B6803F101037B60BB69FA682C
:101A4000D318FB607A69BB69D3187B6100E000BFE3
:101A50007B681B78002B04D07A69BB689A42FFF43C
:101A6000DFAE7A69BB689A4204D2FB684FF000028D
:101A70001A700BE0FB6803F1FF33FB60FB684FF06B
:101A800000021A707B6903F1FF337B617B691846A2
:101A900007F12007BD4680BD80B584B000AFF86077
:101AA000B9607A60F8684FF06401BA687B68FFF744
:101AB000A1FE0346184607F11007BD4680BD00BFD2
:101AC000B0B5A6B000AFF860B9607A6042F6FC032A
:101AD000C0F6000307F110041D460FCD0FC40FCD53
:101AE0000FC42B68236007F134031846B9687A687D
:101AF000FFF7D2FF0346632B0CDD40F24043C2F2F6
:101B000000031B68DB6807F110021046194600F05D
:101B10005FF8FEE707F134031846F96800F058F85B
:101B20000346184607F19807BD46B0BD80B582B0A0
:101B300000AF7860396040F24043C2F200031B6896
:101B40009B68184679683A68FFF7BAFF034618465B
:101B500007F10807BD4680BD0FB480B582B000AF65
:101B600007F114033B6038693968FFF7DFFF7860DD
:101B70007B68184607F10807BD46BDE8804004B001
:101B8000704700BF80B582B000AF7860396040F226
:101B90004043C2F200031B689A683B689A4208D02F
:101BA00040F24043C2F200031B68DA683B689A4285
:101BB00006D17B68DBB21846FFF76CFC7B6801E05E
:101BC0004FF0FF33184607F10807BD4680BD00BF40
:101BD00080B584B000AF786039604FF00003FB60DF
:101BE00014E07B681B7818463968FFF7CBFF034683
:101BF000B3F1FF3F02D14FF0FF330CE0FB6803F17C
:101C00000103FB607B6803F101037B607B681B7849
:101C1000002BE6D1FB68184607F11007BD4680BDD2
:101C200080B500AF40F2C443C2F200031B78002B22
:101C300009D100F00BF803461A4640F2C443C2F241
:101C400000031A7000E000BF80BD00BF80B500AF88
:101C500040F24843C2F200039A7840F24843C2F28D
:101C60000003DB78104619464FF4E132FEF756FECA
:101C700042F6C420C0F60000FFF76EFF42F6CC200B
:101C8000C0F60000FFF768FF42F6D020C0F6000063
:101C9000FFF762FF42F6D820C0F600004FF00701C0
:101CA000FFF75AFF4FF00103184680BD80B487B09C
:101CB00000AF786039604FF000037B614FF00003A4
:101CC0003B614FF00003FB604FF000037B6186E057
:101CD0007B694FF0010202FA03F33B613B681A682B
:101CE0003B691340FB60FA683B699A4273D17B6899
:101CF0001A687B694FEA43034FF0030101FA03F3CB
:101D00006FEA03031A407B681A607B681A683B68B5
:101D10001B7919467B694FEA430301FA03F31A431F
:101D20007B681A603B681B79012B03D03B681B79E9
:101D3000022B34D17B689A687B694FEA43034FF0EA
:101D4000030101FA03F36FEA03031A407B689A6008
:101D50007B689A683B685B7919467B694FEA430365
:101D600001FA03F31A437B689A607B685A687B69BF
:101D70009BB24FF0010101FA03F36FEA03031A402B
:101D80007B685A607B685A683B689B7919467B6917
:101D90009BB201FA03F39BB21A437B685A607B68DB
:101DA000DA687B699BB24FEA43034FF0030101FA03
:101DB00003F36FEA03031A407B68DA607B68DA6832
:101DC0003B68DB7919467B694FEA430301FA03F369
:101DD0001A437B68DA607B6903F101037B617B69ED
:101DE0000F2B7FF675AF07F11C07BD4680BC70470F
:101DF00080B485B000AF786013460A467A807B7065
:101E00004FF00003FB604FF00003BB607A787B88E3
:101E100003F007034FEA830302FA03F3FB607B88B6
:101E20004FEAD3039BB21A467B884FEAD3039BB297
:101E300019467B6801F1080153F821107B8803F0F3
:101E400007034FEA83034FF00F0000FA03F36FEA32
:101E5000030319407B6802F1080243F822107B88D3
:101E60004FEAD3039BB21A467B6802F1080253F88B
:101E70002220FB681343BB607B884FEAD3039BB2ED
:101E80001A467B6802F10802B96843F8221007F18C
:101E90001407BD4680BC704780B500AF4FF4605357
:101EA000C4F202034FF46052C4F20202126842F01C
:101EB00001021A604FF46053C4F202034FF00002B3
:101EC0009A604FF46053C4F202034FF46052C4F2BC
:101ED0000202126822F0847222F480321A604FF4F7
:101EE0006053C4F2020343F21002C2F200425A608D
:101EF0004FF46053C4F202034FF46052C4F2020282
:101F0000126822F480221A604FF46053C4F2020374
:101F10004FF00002DA6000F0C1F84FF46D43CEF2EA
:101F200000034FF000629A6080BD00BF80B487B0AC
:101F300000AF4FF000033B614FF000037B614FF0B7
:101F40000203FB604FF00003BB604FF002037B60B5
:101F50004FF46053C4F202039B6803F00C033B612F
:101F60003B69042B0DD0082B15D0002B69D140F212
:101F70004C43C2F200034FF41052C0F2F4021A6054
:101F800069E040F24C43C2F200034FF49052C0F2B9
:101F90007A021A605FE04FF46053C4F202035B6898
:101FA00003F480034FEA9353BB604FF46053C4F2D1
:101FB00002035B6803F03F037B60BB68002B14D017
:101FC0004FF49053C0F27A037A68B3FBF2F24FF405
:101FD0006053C4F20203596847F6C0730B404FEADE
:101FE000931303FB02F37B6113E04FF41053C0F231
:101FF000F4037A68B3FBF2F24FF46053C4F20203C5
:10200000596847F6C0730B404FEA931303FB02F382
:102010007B614FF46053C4F202035B6803F4403306
:102020004FEA134303F101034FEA4303FB607A696C
:10203000FB68B2FBF3F240F24C43C2F200031A60B9
:1020400009E040F24C43C2F200034FF41052C0F2D8
:10205000F4021A6000BF4FF46053C4F202039B689D
:1020600003F0F0034FEA131240F25043C2F20003B0
:102070009B5CDBB23B6140F24C43C2F200031A6846
:102080003B6922FA03F240F24C43C2F200031A60A9
:1020900007F11C07BD4680BC704700BF80B483B009
:1020A00000AF4FF000037B604FF000033B604FF444
:1020B0006053C4F202034FF46052C4F20202126889
:1020C00042F480321A604FF46053C4F202031B687A
:1020D00003F400333B607B6803F101037B603B68E2
:1020E000002B03D17B68B3F5A06FECD14FF46053A4
:1020F000C4F202031B6803F40033002B03D04FF03B
:1021000001033B6002E04FF000033B603B68012BA2
:1021100040F082804FF46053C4F202034FF46052E7
:10212000C4F20202126C42F080521A644FF4E0438F
:10213000C4F200034FF4E042C4F20002126842F419
:1021400080421A604FF46053C4F202034FF46052AD
:10215000C4F2020292689A604FF46053C4F2020320
:102160004FF46052C4F20202926842F400429A6054
:102170004FF46053C4F202034FF46052C4F20202FF
:10218000926842F4A0529A604FF46053C4F2020382
:1021900045F20842C0F240725A604FF46053C4F2F4
:1021A00002034FF46052C4F20202126842F08072DD
:1021B0001A6000BF4FF46053C4F202031B6803F0BF
:1021C0000073002BF6D04FF47053C4F2020340F2B8
:1021D00005621A604FF46053C4F202034FF4605278
:1021E000C4F20202926822F003029A604FF4605334
:1021F000C4F202034FF46052C4F20202926842F049
:1022000002029A6000BF4FF46053C4F202039B685D
:1022100003F00C03082BF6D107F10C07BD4680BC78
:10222000704700BF80B582B000AF4FF0F003FB7184
:102230004FF47F43BB804FF00003CFF6FF733B604A
:1022400007F1070318464FF0010100F023F807F1EA
:10225000040318464FF0020100F01CF83B461846F4
:102260004FF0040100F016F8FB790F2B0AD1BB8860
:10227000FF2B07D13A684FF6FF739A4202D14FF015
:10228000010301E04FF00003DBB2184607F1080735
:10229000BD4680BD80B487B000AF786039604FF034
:1022A0000003FB754FF00103FB604FF000033B613F
:1022B0007B68BB603B684FEAC30303F1FF33FA68F6
:1022C00002FA03F3FB604FF00003FB7519E0BB68F3
:1022D0001A68FB7DF96821FA03F31A403B684FEA5C
:1022E000C301FB7DCB1A03F1FF3322FA03F2FB7D1E
:1022F00002FA03F33A6913433B61FB7D03F10103E7
:10230000FB75FA7D3B684FEAC3039A42DFD33B6813
:10231000022B08D0042B0BD0012B0DD13B69DAB274
:10232000BB681A7009E03B699AB2BB681A8004E086
:10233000BB683A691A6000E000BF07F11C07BD46A0
:1023400080BC704780B485B000AF78604FF0000368
:10235000FB734FF00003BB734FF00F037B737B687D
:10236000DB78002B45D04FF46D43CEF20003DB68E1
:102370006FEA030303F4E0634FEA1323FB73FB7B71
:10238000C3F10403BB737A7BFB7B42FA03F37B73D9
:102390007B685B781A46BB7B02FA03F3FB737B68AE
:1023A0009A787B7B1340DAB2FB7B1343FB73FB7B96
:1023B0004FEA0313FB734FF46143CEF200037A68D4
:1023C00012789B18FA7B83F800234FF46143CEF216
:1023D00000037A6812784FEA5212D2B2796809780B
:1023E00001F01F014FF0010000FA01F143F8221043
:1023F00014E04FF46143CEF200037A6812784FEA9A
:102400005212D2B27968097801F01F014FF0010031
:1024100000FA01F102F1200243F8221007F114073B
:10242000BD4680BC704700BF80B400AF00BFBD4652
:1024300080BC704780B400AF00BFBD4680BC704711
:1024400080B483B000AF78607B68DB6B184607F11F
:102450000C07BD4680BC704780B483B000AF786085
:1024600013460A467A807B707B78002B08D07B6805
:102470009B899AB27B8813439AB27B689A810AE05F
:102480007B689B899AB27B886FEA03039BB21340F7
:102490009AB27B689A8107F10C07BD4680BC7047F1
:1024A000000000000000000000000000000000002C
:1024B00000000000000000000000000000080240D2
:1024C00040000200020000000800000000000000C0
:1024D00000000000001401400008024080000200DB
:1024E00002000000080000000000000000000000E2
:1024F0000014014000040240000801000000020036
:1025000000000000000000000000000000000000CB
:10251000000002400800020002000000010000006C
:102520000C0000000000000000000040000C024011
:102530000080020002000000020000000C00000009
:102540000000000000080040000002400100000000
:10255000000000000000000000000000000000007B
:102560000000000000040240100002000200000011
:102570000200000000000000000000000004004015
:1025800000040240200002000200000002000000DF
:1025900004000000000000000004004000040240AD
:1025A000010002000200000002000000080000001C
:1025B000000000000004004000040240020002008D
:1025C00002000000020000000C00000000000000FB
:1025D000000400400000024004000200020000006D
:1025E00001000000080000000000000000000040A2
:1025F00000080000000000010000000000000000D2
:1026000000000000000000000000000000000000CA
:10261000000000000008024040000200020000002C
:10262000080000000000000000000000001401404D
:1026300000080240800002000200000008000000C4
:1026400000000000000000000014014000040240EF
:10265000000801000000020000000000000000006F
:10266000000000000000000000000240080002001E
:1026700002000000010000000C000000000000004B
:1026800000000040000C0240008002000200000038
:10269000020000000C0000000000000000080040E4
:1026A00000000240010000000000000000000000E7
:1026B00000000000000000000000000000040240D4
:1026C00010000200020000000200000000000000F4
:1026D000000000000004004000040240200002004E
:1026E00002000000020000000400000000000000E2
:1026F000000400400004024001000200020000004B
:10270000020000000800000000000000000400407B
:10271000000402400200020002000000020000006B
:102720000C00000000000000000400400000024017
:102730000400020002000000010000000800000088
:10274000000000000000004050544100505442007E
:1027500050544300505444005054450050544600D7
:102760005054470050544800505449003000000075
:10277000310000003200000033000000340000008F
:10278000350000003600000037000000380000006F
:1027900039000000313000003131000031320000DA
:1027A00031330000313400003135000000000000FA
:1027B0000000000000000000000000000000000019
:1027C000000000000000000000080240400002007D
:1027D00002000000080000000000000000000000EF
:1027E00000140140000802408000020002000000C6
:1027F000080000000000000000000000001401407C
:102800000004024000080100000002000000000077
:102810000000000000000000000000000000024076
:102820000800020002000000010000000C0000008F
:102830000000000000000040000C02400080020088
:1028400002000000020000000C0000000000000078
:1028500000080040000002400100000000000000ED
:102860000000000000000000000000000000000068
:1028700000040240100002000200000002000000FC
:1028800000000000000000000004004000040240BE
:10289000200002000200000002000000040000000E
:1028A000000000000004004000040240010002009B
:1028B000020000000200000008000000000000000C
:1028C0000004004000040240020002000200000078
:1028D000020000000C0000000000000000040040A6
:1028E000000002400400020002000000010000009D
:1028F00008000000000000000000004073746469DC
:102900006F2E633A20696E637265617365204D4175
:10291000585F535452494E475F53495A450A0D0078
:1029200000000000000000000000000000000000A7
:10293000000000000000000000000000000802404D
:10294000400002000200000008000000000000003B
:102950000000000000140140000802408000020056
:10296000020000000800000000000000000000005D
:1029700000140140000402400008010000000200B1
:102980000000000000000000000000000000000047
:1029900000000240080002000200000001000000E8
:1029A0000C0000000000000000000040000C02408D
:1029B0000080020002000000020000000C00000085
:1029C000000000000008004000000240010000007C
:1029D00000000000000000000000000000000000F7
:1029E000000000000004024010000200020000008D
:1029F0000200000000000000000000000004004091
:102A0000000402402000020002000000020000005A
:102A10000400000000000000000400400004024028
:102A20000100020002000000020000000800000097
:102A30000000000000040040000402400200020008
:102A400002000000020000000C0000000000000076
:102A500000040040000002400400020002000000E8
:102A6000010000000800000000000000000000401D
:102A70001B5B33306D000000001B5B33316D0000C9
:102A800000001B5B33326D000000001B5B33336DB5
:102A9000000000001B5B33346D000000001B5B3343
:102AA000356D000000001B5B33366D000000001B1D
:102AB0005B33376D000000001B5B33396D00000095
:102AC000000000001B5B324A000000001B5B480056
:102AD0001B5B3F32356C00001B5B3325646D0000CF
:042AE0001B5A00007D
:102AE40000000000010203040102030406070809B0
:102AF400AC04002000000000000000000000000002
:102B040001000000000000000000000000000000C0
:102B140000000000000000000000000000000000B1
:102B240000000000000000000000000000000000A1
:102B34000000000000000000000000000000000091
:102B44000000000000000000000000000000000081
:102F2400180000200000000000030100007A030ADA
:102F34000000000000000000010203040607080965
:0400000508000000EF
:00000001FF
