:020000040800F2
:1000000098120020610B0008CD0B0008CD0B0008F2
:10001000CD0B0008CD0B0008CD0B00080000000040
:10002000000000000000000000000000CD0B0008F0
:10003000CD0B000800000000CD0B00088D1B000850
:10004000CD0B0008CD0B0008CD0B0008CD0B000830
:10005000CD0B0008CD0B0008CD0B0008CD0B000820
:10006000CD0B0008CD0B0008CD0B0008CD0B000810
:10007000CD0B0008CD0B0008CD0B0008CD0B000800
:10008000CD0B0008CD0B0008CD0B0008CD0B0008F0
:10009000CD0B0008CD0B0008CD0B0008CD0B0008E0
:1000A000CD0B0008CD0B0008CD0B0008CD0B0008D0
:1000B000CD0B0008CD0B0008CD0B0008CD0B0008C0
:1000C000CD0B0008CD0B0008CD0B0008CD0B0008B0
:1000D000CD0B0008CD0B0008CD0B0008CD0B0008A0
:1000E000CD0B0008CD0B0008CD0B0008CD0B000890
:1000F000CD0B0008CD0B0008CD0B0008CD0B000880
:10010000CD0B0008CD0B0008CD0B0008CD0B00086F
:10011000CD0B0008CD0B0008CD0B0008CD0B00085F
:10012000CD0B0008CD0B0008CD0B0008CD0B00084F
:10013000CD0B0008CD0B0008CD0B0008CD0B00083F
:10014000CD0B0008CD0B0008CD0B0008CD0B00082F
:10015000CD0B0008CD0B0008CD0B0008A51400083E
:10016000CD0B0008CD0B0008CD0B0008CD0B00080F
:10017000CD0B0008CD0B0008CD0B0008CD0B0008FF
:10018000CD0B0008CD0B000880B58AB000AF7860B9
:1001900039604FF000037B624FF000033B624FF089
:1001A0000003FB614FF00003BB617B681B8A9BB2BD
:1001B0007B627B6A23F440537B623B68DB887A6A0C
:1001C00013437B627B6A9AB27B681A827B689B8945
:1001D0009BB27B627B6A23F4B05323F00C037B62F7
:1001E0003B689A883B681B8913439AB23B685B89DA
:1001F00013439BB27A6A13437B627B6A9AB27B6831
:100200009A817B689B8A9BB27B627B6A23F44073F2
:100210007B623B689B897A6A13437B627B6A9AB2F2
:100220007B689A8207F10803184600F065FD7A683A
:100230004FF48053C4F201039A4206D07A684FF417
:10024000A053C4F201039A4202D17B693B6201E0F0
:100250003B693B627B689B899BB29BB21BB2002BC4
:100260000FDA3A6A13464FEA83039B184FEA830278
:100270009A183B681B684FEA4303B2FBF3F3FB6138
:100280000EE03A6A13464FEA83039B184FEA830253
:100290009A183B681B684FEA8303B2FBF3F3FB61D8
:1002A000FA6948F21F53C5F2EB13A3FB02134FEA9E
:1002B00053134FEA03137B627B6A4FEA13134FF029
:1002C000640202FB03F3FA69D31ABB617B689B8962
:1002D0009BB29BB21BB2002B12DABB694FEAC3037D
:1002E00003F1320248F21F53C5F2EB13A3FB0213D2
:1002F0004FEA531303F007037A6A13437B6211E05A
:10030000BB694FEA031303F1320248F21F53C5F2EF
:10031000EB13A3FB02134FEA531303F00F037A6AA4
:1003200013437B627B6A9AB27B681A8107F12807C4
:10033000BD4680BD80B483B000AF78600B46FB70D3
:10034000FB78002B08D07B689B899BB243F4005359
:100350009AB27B689A8107E07B689B899BB223F401
:1003600000539AB27B689A8107F10C07BD4680BCA6
:10037000704700BF80B483B000AF78600B467B80CD
:100380007B884FEAC3534FEAD3539AB27B689A8073
:1003900007F10C07BD4680BC704700BF80B483B036
:1003A00000AF78607B689B889BB24FEAC3534FEAEB
:1003B000D3539BB2184607F10C07BD4680BC70476B
:1003C00080B487B000AF786013460A467A807B70AD
:1003D0004FF000033B614FF00003FB604FF0000360
:1003E000BB604FF000037B617B687B617B88DBB285
:1003F0004FEA5313DBB23B617B8803F01F03FB60C2
:10040000FB684FF0010202FA03F3BB603B69012B6A
:1004100004D17B6903F10C037B610BE03B69022B88
:1004200004D17B6903F110037B6103E07B6903F175
:1004300014037B617B78002B06D07B697A69116895
:10044000BA680A431A6007E07B697A691168BA687A
:100450006FEA02020A401A6007F11C07BD4680BC21
:10046000704700BF80B485B000AF78600B467B80DA
:100470004FF00003FB737B681B889AB27B881340A4
:100480009BB2002B03D04FF00103FB7302E04FF04F
:100490000003FB73FB7B184607F11407BD4680BCC5
:1004A000704700BF80B487B000AF78600B467B8098
:1004B0004FF00003FB604FF000037B614FF000033F
:1004C000BB604FF00003FB747B88DBB24FEA531331
:1004D000DBB2BB607B8803F01F037B617B694FF05D
:1004E000010202FA03F37B61BB68012B06D17B6832
:1004F0009B899BB27A6913407B610FE0BB68022B3A
:1005000006D17B681B8A9BB27A6913407B6105E048
:100510007B689B8A9BB27A6913407B617B884FEA38
:1005200013239BB2FB60FB684FF0010202FA03F356
:10053000FB607B681B889BB2FA681340FB607B6999
:10054000002B06D0FB68002B03D04FF00103FB7497
:1005500002E04FF00003FB74FB7C184607F11C0718
:10056000BD4680BC704700BF80B485B000AF7860E6
:100570000B467B804FF00003FB814FF00003BB81F3
:100580007B884FEA1323FB81FB894FF0010202FABB
:1005900003F3BB81BB896FEA03039AB27B681A80BD
:1005A00007F11407BD4680BC704700BF80B500AF9F
:1005B00002F0AAF80346002B1ED040F64613C2F202
:1005C00000031B78002B02D0012B0AD013E000F0AF
:1005D00049F803461A4640F64613C2F200031A7061
:1005E0000AE000F02BF903461A4640F64613C2F221
:1005F00000031A7000E000BF80BD00BF80B500AFEF
:1006000040F64413C2F200031B8803F101039AB2BF
:1006100040F64413C2F200031A8040F64413C2F2BB
:1006200000031B88B3F5FA6F1AD140F62810C2F206
:10063000000001F099FA024640F64013C2F20003AE
:100640001A6040F62810C2F200004FF47A7101F0EF
:1006500057FA40F64413C2F200034FF000021A802A
:1006600080BD00BF90B5ABB000AF4FF00003C7F83E
:10067000A43043F62C63C0F6000307F148011A4684
:100680004FF05A03084611461A4602F043FF4FF056
:100690000003C7F8A43024E043F61063C0F600035B
:1006A000D7F8A42053F8223043F61C60C0F60000AF
:1006B0004FF003011A4601F083FE07F14801D7F815
:1006C000A42013464FEA03139B1A4FEA4303CB18A7
:1006D000184601F075FED7F8A43003F10103C7F8FE
:1006E000A430D7F8A430022BD6D943F61C60C0F64C
:1006F00000004FF004014FF0140201F061FE4FF0D2
:100700000003C7F8A4300BE043F62860C0F60000F1
:1007100001F056FED7F8A43003F10103C7F8A43066
:10072000D7F8A4302C2BEFD94FF00003C7F8A43032
:1007300079E040F20003C2F20003D7F8A4204FF0A2
:100740005C0101FB02F29B1803F158031B78012B9B
:1007500063D107F1040318464FF000014FF0110276
:1007600002F07AFFD7F8A43003F105031A4643F6E6
:100770001063C0F600031B6843F61C60C0F600005F
:1007800011461A4601F01CFED7F8A4304FF05C0267
:1007900002FB03F240F20003C2F20003D318184632
:1007A00001F00EFED7F8A43003F105031A4643F614
:1007B0001063C0F600035B6843F61C60C0F60000DF
:1007C00011461A4601F0FCFD40F20003C2F200039C
:1007D000D7F8A4204FF05C0101FB02F29B1803F153
:1007E00054031C6840F20003C2F20003D7F8A420AF
:1007F0004FF05C0101FB02F29B1803F118039B7997
:100800001A4607F104034FF0000011461A46A047AC
:1008100007F10403184601F0D3FDD7F8A43003F123
:100820000103C7F8A430D7F8A430012B81D94FF0C9
:100830000103184607F1AC07BD4690BD90B591B0D5
:1008400000AF4FF0000387F83F304FF00003BB6369
:100850004FF00003BB63CFE040F20003C2F200039D
:10086000BA6B4FF05C0101FB02F29B1803F15803D5
:100870001B78012B40F0BC803B4618464FF000012E
:100880004FF0320202F0E8FE40F20003C2F2000331
:10089000BA6B4FF05C0101FB02F29B1803F15403A9
:1008A0001C6840F20003C2F20003BA6B4FF05C0117
:1008B00001FB02F29B1803F118039B791A463B4691
:1008C0004FF0010011461A46A047BB6B4FF05C0287
:1008D00002FB03F303F1180240F20003C2F200032B
:1008E000D31803F107043B46184602F061FF0346A4
:1008F0003A46204611461A4602F08AFF0346002B6C
:1009000076D0BB6B4FF05C0202FB03F303F11802DD
:1009100040F20003C2F20003D31803F107043B4680
:10092000184602F045FF03463A46204611461A464D
:1009300002F0FEFF3B46184602F03AFF0446BB6B4E
:100940004FF05C0202FB03F303F1180240F20003D4
:10095000C2F20003D31803F10703184602F028FF80
:100960000346E31A7B637B6B002B2CDA4FF000030A
:1009700087F83F3020E03B46184602F019FF034657
:10098000322B0DD03B46184602F012FF03463A4682
:10099000D21843F68863C0F600031B88138005E075
:1009A0007B6BDBB2C3F1000387F83F3097F83F3031
:1009B00003F1010387F83F3097F83F207B6BC3F1C9
:1009C00000039A42D7DBBB6B03F105031A4643F6DB
:1009D0001063C0F600039B6843F61C60C0F600007D
:1009E00011461A4601F0ECFC3B46184601F0E8FCC3
:1009F000BB6B03F10103BB63BB6B012B7FF62CAF19
:100A00004FF00103184607F14407BD4690BD00BFF3
:100A100080B586B000AF0B463A600246FA71BB71F2
:100A2000FB79002B47D0012B43D101F091F878617D
:100A30007A6940F2E7339A423FD97A6944F6D35350
:100A4000C1F26203A3FB02134FEA93133B613B69BC
:100A50003B2B24D93A6948F68903C8F68803A3FBDF
:100A600002134FEA5313FB603A6948F68903C8F64C
:100A70008803A3FB02134FEA53110B464FEA0313FB
:100A80005B1A4FEA8303D31A3B61FA683B69386803
:100A900043F68C61C0F6000101F0A8FC0DE03B6953
:100AA000386843F69861C0F600011A4601F09EFCD2
:100AB00003E000BF02E000BF00E000BF07F118073D
:100AC000BD4680BD80B582B000AF0B463A6002469D
:100AD000FA71BB71FB79002B3CD0012B38D140F669
:100AE0004013C2F200031A6840F69F739A4215D968
:100AF00040F64013C2F200031A6844F6D353C1F221
:100B00006203A3FB02134FEAD313386843F6A461D0
:100B1000C0F600011A4601F069FC1CE040F64013E3
:100B2000C2F200031B684FF47A7202FB03F244F630
:100B3000D353C1F26203A3FB02134FEAD313386805
:100B400043F6AC61C0F600011A4601F04FFC02E02A
:100B500000BF00E000BF07F10807BD4680BD00BF31
:100B600080B582B000AF44F2F043C0F600037B6072
:100B700040F20003C2F200033B600BE07B681A689E
:100B80003B681A603B6803F104033B607B6803F138
:100B900004037B603A6840F62813C2F200039A42CD
:100BA000ECD3084808494FF000028842B8BF40F82B
:100BB000042BFFF6FAAF00F06DF807F10807BD4609
:100BC00080BD000028090020980A002080B400AFF2
:100BD000FEE700BF80B483B000AF03463960FB710D
:100BE00097F90730002B10DA4FF46D43CEF2000373
:100BF000FA7902F00F02A2F104013A68D2B24FEA88
:100C00000212D2B25B181A760DE04FF46143CEF2B5
:100C1000000397F907103A68D2B24FEA0212D2B233
:100C20005B1883F8002307F10C07BD4680BC7047B2
:100C300080B582B000AF78607A686FF07F439A42E7
:100C400002D94FF001031FE04EF21003CEF2000371
:100C50007A6822F07F4202F1FF325A604FF0FF3093
:100C60004FF00F01FFF7B6FF4EF21003CEF2000374
:100C70004FF000029A604EF21003CEF200034FF0E4
:100C800007021A604FF00003184607F10807BD4637
:100C900080BD00BF80B500AF40F64810C2F2000032
:100CA0004FF0320100F02CFF00F0C6FC40F204537C
:100CB000C2F200031A6844F6D353C1F26203A3FBE5
:100CC00002134FEA93131846FFF7B2FF01F0DEFC60
:100CD00040F64813C2F200035B78032B09D140F6BB
:100CE0004810C2F200004FF0320100F009FFFFF798
:100CF0005DFCFFF783FCE9E780B489B000AF786062
:100D00004FF00003BB614FF000037B614FF0000325
:100D1000FB614FF002033B614FF00003FB604FF0BB
:100D20000203BB604FF46053C4F202039B6803F0FC
:100D30000C03BB61BB69042B0AD0082B0FD0002B1E
:100D400060D17A684FF41053C0F2F403136060E08E
:100D50007A684FF49053C0F27A03136059E04FF46D
:100D60006053C4F202035B6803F480034FEA9353B9
:100D7000FB604FF46053C4F202035B6803F03F036F
:100D8000BB60FB68002B14D04FF49053C0F27A0381
:100D9000BA68B3FBF2F24FF46053C4F2020359682D
:100DA00047F6C0730B404FEA931303FB02F3FB615A
:100DB00013E04FF41053C0F2F403BA68B3FBF2F23D
:100DC0004FF46053C4F20203596847F6C0730B40F6
:100DD0004FEA931303FB02F3FB614FF46053C4F239
:100DE00002035B6803F440334FEA134303F101034A
:100DF0004FEA43033B61FA693B69B2FBF3F27B685C
:100E00001A6006E07A684FF41053C0F2F4031360DE
:100E100000BF4FF46053C4F202039B6803F0F00379
:100E2000BB61BB694FEA1313BB6140F2B803C2F266
:100E30000003BA699B181B78DBB27B617B681A6878
:100E40007B6922FA03F27B685A604FF46053C4F264
:100E500002039B6803F4E053BB61BB694FEA932331
:100E6000BB6140F2B803C2F20003BA699B181B7859
:100E7000DBB27B617B685A687B6922FA03F27B688C
:100E80009A604FF46053C4F202039B6803F460431A
:100E9000BB61BB694FEA5333BB6140F2B803C2F296
:100EA0000003BA699B181B78DBB27B617B685A68C8
:100EB0007B6922FA03F27B68DA6007F12407BD46FA
:100EC00080BC704780B483B000AF78600B46FB7085
:100ED000FB78002B0CD04FF46053C4F202034FF4A4
:100EE0006052C4F20202116B7A680A431A630DE081
:100EF0004FF46053C4F202034FF46052C4F2020292
:100F0000116B7A686FEA02020A401A6307F10C0754
:100F1000BD4680BC704700BF80B483B000AF78602E
:100F20000B46FB70FB78002B0CD04FF46053C4F2DF
:100F300002034FF46052C4F20202516C7A680A4311
:100F40005A640DE04FF46053C4F202034FF4605250
:100F5000C4F20202516C7A686FEA02020A405A64D3
:100F600007F10C07BD4680BC704700BF80B588B054
:100F700000AF0B463A600246FA71BB714FF00003B6
:100F8000FB7707F108034FF000021A6003F1040336
:100F90004FF000021A6003F104034FF000021A60E0
:100FA00003F104034FF000021A6003F104033B68ED
:100FB000BB60F97943F6B462C0F600020B464FEA13
:100FC000C3035B1A4FEA8303D31803F118031A68AB
:100FD0004FF48053C4F201039A4241D0F97943F6A9
:100FE000B462C0F600020B464FEAC3035B1A4FEA35
:100FF0008303D31803F118031A684FF48843C4F22B
:1010000000039A422CD0F97943F6B462C0F600028C
:101010000B464FEAC3035B1A4FEA8303D31803F16D
:1010200018031A684FF49043C4F200039A4217D091
:10103000F97943F6B462C0F600020B464FEAC303E7
:101040005B1A4FEA8303D31803F118031A684FF4AD
:10105000A053C4F201039A4202D04FF0050367E1A6
:10106000F97943F6B462C0F600020B464FEAC303B7
:101070005B1A4FEA8303D31803F118031B68184661
:1010800000F0A0FA0346194640F66012C2F20002D0
:101090000B464FEA83035B184FEAC303D3181B7850
:1010A000012B02D14FF0060342E1FB79002B71D0F6
:1010B000BB79002B6ED04FF00C037B82F97943F69D
:1010C000B462C0F600020B464FEAC3035B1A4FEA54
:1010D0008303D31803F118031868B97943F6B4628F
:1010E000C0F600020B464FEAC3035B1A4FEA8303C4
:1010F000D31803F118031B68984202D04FF0020383
:1011000016E1F97943F6B462C0F600020B464FEAE5
:10111000C3035B1A4FEA8303D31803F118031B6858
:10112000184600F04FFA0346194640F66012C2F224
:1011300000020B464FEA83035B184FEAC303D31840
:1011400003F10803FA799A70B97943F6B462C0F6EC
:1011500000020B464FEAC3035B1A4FEA8303D3181E
:1011600003F118031B68184600F02CFA03461946D1
:1011700040F66012C2F200020B464FEA83035B188E
:101180004FEAC303D31803F10803BA795A70FB7905
:10119000FB7714E0FB79002B05D0FB79FB774FF050
:1011A00008037B820BE0BB79002B05D0BB79FB7772
:1011B0004FF004037B8202E04FF00303B8E0F97FB5
:1011C00043F6B462C0F600020B464FEAC3035B1A53
:1011D0004FEA8303D31803F118031B68184600F085
:1011E000ABF9F97F43F6B462C0F600020B464FEA52
:1011F000C3035B1A4FEA8303D31803F118031B6878
:101200001A4607F1080310461946FEF7BDFFF97F9D
:1012100043F6B462C0F600020B464FEAC3035B1A02
:101220004FEA8303D31803F118031B6818464FF0E5
:101230000101FFF77FF8BB79002B2BD0B97943F67A
:10124000B462C0F600020B464FEAC3035B1A4FEAD2
:101250008303D31803F110031B79012B1AD14FF02C
:1012600047033B764FF00E037B764FF00103BB76CE
:101270004FF00103FB7607F11803184601F0EEFD6D
:101280004FF4A050C4F2010040F225514FF001028A
:10129000FFF796F8F97F43F6B462C0F600020B46FA
:1012A0004FEAC3035B1A4FEA8303D31803F1180311
:1012B0001B68184600F086F90346194640F660128E
:1012C000C2F200020B464FEA83035B184FEAC303E6
:1012D000D3184FF001021A70F97F43F6B462C0F6DA
:1012E00000020B464FEAC3035B1A4FEA8303D3188D
:1012F00003F118031B68184600F064F90346194609
:1013000040F66012C2F200020B464FEA83035B18FC
:101310004FEAC303D31803F104033A681A6007487D
:101320004FF00A014FF0010201F0C6F84FF0000340
:10133000184607F12007BD4680BD00BFE409002024
:1013400080B584B000AF396013460246FA71BB80A5
:101350004FF00003FB8149E048F2A063C0F20103B3
:10136000BB6003E0BB6803F1FF33BB60F97943F670
:10137000B462C0F600020B464FEAC3035B1A4FEAA1
:101380008303D31803F118031B6818464FF080013C
:10139000FFF768F80346012B02D0BB68002BE1D1B0
:1013A000BB68002B02D14FF0040324E0F97943F627
:1013B000B462C0F600020B464FEAC3035B1A4FEA61
:1013C0008303D31803F118031B681A46FB89396895
:1013D000CB181B78F98901F10101F98110461946F2
:1013E000FEF7C8FFBB8803F1FF33BB80BB88002B2F
:1013F000B2D14FF00003184607F11007BD4680BD7B
:1014000080B586B000AFF860B9601346FB804FF03E
:101410000003FB82F86800F0D5F803461A4613462D
:101420004FEA83039B184FEAC30303F1080240F617
:101430006013C2F20003D31803F10403184601F04D
:1014400019F903467B7520E0F86800F0BBF8034605
:101450001A4613464FEA83039B184FEAC30303F16E
:10146000080240F66013C2F20003D31803F104022D
:10147000FB8AB968CB181046194601F053F80346A9
:101480007B75FB8A03F10103FB82FA8AFB889A428F
:1014900002D07B7D002BD7D1FB8A184607F11807B5
:1014A000BD4680BD80B582B000AF4FF000037B60C9
:1014B0004FF4A050C4F2010040F22531FEF7F2FFD4
:1014C0000346012B13D17B6843F4497343F00103B6
:1014D0007B604FF4A050C4F20100FEF75FFF4FF4B1
:1014E000A050C4F2010040F22531FFF73DF84FF45F
:1014F000A050C4F2010040F22551FEF7D3FF03468D
:10150000012B13D14FF4A050C4F20100FEF746FFA7
:101510000346DBB20748194601F05CF84FF4A050CF
:10152000C4F2010040F22551FFF71EF807F1080749
:10153000BD4680BDE409002080B582B000AF786070
:101540007B684FF49042C4F20002934227D04FF4DC
:101550009042C4F20002934206D84FF48842C4F28B
:101560000002934214D028E04FF48052C4F20102EA
:10157000934206D04FF4A052C4F20102934215D018
:101580001BE04FF010004FF00101FFF7C5FC14E025
:101590004FF400304FF00101FFF7BEFC0DE04FF4B7
:1015A00080204FF00101FFF7B7FC06E04FF020006C
:1015B0004FF00101FFF7B0FC00BF07F10807BD467F
:1015C00080BD00BF80B483B000AF78607B684FF40B
:1015D0009042C4F2000293421FD04FF49042C4F2F2
:1015E0000002934206D84FF48842C4F200029342AC
:1015F00010D018E04FF48052C4F20102934206D09A
:101600004FF4A052C4F20102934209D00BE04FF014
:1016100000030AE04FF0010307E04FF0020304E08B
:101620004FF0030301E04FF00503184607F10C07E4
:10163000BD4680BC704700BF90B587B000AF01F0D9
:1016400005FA01F04DFA4FF4407001F0F3FB4FF052
:101650000103FB759DE0F97D44F20402C0F600022F
:101660000B464FEAC3035B1A4FEA8303D3181B6888
:101670003B61F97D44F20402C0F600020B464FEADA
:10168000C3035B1A4FEA8303D3189B887B60F97D01
:1016900044F20402C0F600020B464FEAC3035B1A91
:1016A0004FEA8303D3189B793B72F97D44F204021D
:1016B000C0F600020B464FEAC3035B1A4FEA8303EE
:1016C000D31803F108035B78BB72F97D44F204027E
:1016D000C0F600020B464FEAC3035B1A4FEA8303CE
:1016E000D31803F108039B78FB72F97D44F20402DE
:1016F000C0F600020B464FEAC3035B1A4FEA8303AE
:10170000D31803F108031B787B72386900F04AF89C
:101710003B7A022B33D1F97D44F20402C0F6000279
:101720000B464FEAC3035B1A4FEA8303D3189B8827
:10173000184600F061F9F860F97D44F20402C0F641
:1017400000020B464FEAC3035B1A4FEA8303D31828
:101750001868FB689CB2F97D44F20402C0F60002EE
:101760000B464FEAC3035B1A4FEA8303D31803F116
:101770000C031B68DBB221461A4601F013F907F18E
:1017800004033869194601F06BF8FB7D03F101038E
:10179000FB75FB7D0B2B7FF65EAF07F11C07BD468B
:1017A00090BD00BF80B582B000AF78607B684FF419
:1017B0008052C4F20202934200F0A0804FF48052A3
:1017C000C4F2020293421FD84FF48062C4F20202B4
:1017D000934252D04FF48062C4F20202934206D880
:1017E0004FF00002C4F20202934230D000E14FF405
:1017F0000062C4F20202934255D04FF44062C4F238
:101800000202934265D0F3E04FF4C052C4F20202E8
:10181000934200F09D804FF4C052C4F20202934202
:1018200006D84FF4A052C4F2020293427BD0DFE00C
:101830004FF4E052C4F20202934200F09E804FF453
:101840000052C4F20202934200F0AC80D0E040F6B5
:101850000023C2F200031B78002B40F0B8804FF049
:1018600001004FF00101FFF72DFB40F60023C2F20B
:1018700000034FF001021A70A9E040F60023C2F203
:1018800000035B78002B40F0A4804FF002004FF083
:101890000101FFF717FB40F60023C2F200034FF0EF
:1018A00001025A7095E040F60023C2F200039B78D3
:1018B000002B40F090804FF004004FF00101FFF743
:1018C00001FB40F60023C2F200034FF001029A70C0
:1018D00081E040F60023C2F20003DB78002B7CD1CC
:1018E0004FF008004FF00101FFF7ECFA40F600233B
:1018F000C2F200034FF00102DA706EE040F60023FE
:10190000C2F200031B79002B69D14FF010004FF099
:101910000101FFF7D7FA40F60023C2F200034FF0AF
:1019200001021A715BE040F60023C2F200035B790A
:10193000002B56D14FF020004FF00101FFF7C2FA03
:1019400040F60023C2F200034FF001025A7148E052
:1019500040F60023C2F200039B79002B43D14FF0E5
:1019600040004FF00101FFF7ADFA40F60023C2F24C
:1019700000034FF001029A7135E040F60023C2F2F5
:101980000003DB79002B30D14FF080004FF00101D4
:10199000FFF798FA40F60023C2F200034FF001026D
:1019A000DA7122E040F60023C2F200031B7A002B1A
:1019B0001DD14FF480704FF00101FFF783FA40F61C
:1019C0000023C2F200034FF001021A720FE000BFC1
:1019D0000EE000BF0CE000BF0AE000BF08E000BF5F
:1019E00006E000BF04E000BF02E000BF00E000BF6F
:1019F00007F10807BD4680BD80B485B000AF03463F
:101A0000FB80FB88802B50D0802B11DC082B3CD036
:101A1000082B06DC022B30D0042B32D0012B28D02F
:101A200067E0202B39D0402B3BD0102B31D060E029
:101A3000B3F5006F49D0B3F5006F09DCB3F5007F53
:101A40003BD0B3F5806F3CD0B3F5807F31D050E010
:101A5000B3F5005F41D0B3F5005F03DCB3F5805F01
:101A600037D046E0B3F5804F3BD0B3F5004F3CD0C4
:101A70003FE04FF00003FB603BE04FF00103FB60F1
:101A800037E04FF00203FB6033E04FF00303FB60ED
:101A90002FE04FF00403FB602BE04FF00503FB60E9
:101AA00027E04FF00603FB6023E04FF00703FB60E5
:101AB0001FE04FF00803FB601BE04FF00903FB60E1
:101AC00017E04FF00A03FB6013E04FF00B03FB60DD
:101AD0000FE04FF00C03FB600BE04FF00D03FB60D9
:101AE00007E04FF00E03FB6003E04FF00F03FB60D5
:101AF00000BFFB68184607F11407BD4680BC70475D
:101B000080B582B000AF786039607B685B78022B6B
:101B100002D0786800F0B6F87B684FF001021A70C6
:101B20007B684FF002025A7040F60C23C2F20003A9
:101B30001A683B68D2187B685A6040F60C23C2F2E0
:101B400000031A687B68DA6007F10807BD4680BDAC
:101B500080B400AF40F60C23C2F200031B681846A5
:101B6000BD4680BC704700BF80B483B000AF7860D2
:101B700040F60C23C2F200031A687B68DB68D31AB4
:101B8000184607F10C07BD4680BC704780B500AF12
:101B900072B640F60C23C2F200031B6803F1010287
:101BA00040F60C23C2F200031A6040F60C23C2F286
:101BB00000031B68B3F1FF3F3CD140F60C23C2F297
:101BC00000034FF000021A6034E040F2C803C2F292
:101BD00000031B685A6940F2C803C2F200031A608E
:101BE00040F2C803C2F200031B685A6840F60C2397
:101BF000C2F200031B689A421DD840F2C803C2F229
:101C000000031B684FF003025A7040F2C803C2F28F
:101C100000031B681A4640F61023C2F200039A42E2
:101C200009D040F2C803C2F200031B68184600F056
:101C300015F800E000BF40F2C803C2F200031B68C1
:101C40005B69002BC1D140F2C803C2F2000340F629
:101C50001022C2F200021A6062B680BD80B483B066
:101C600000AF78607B685B697A6812691A617B688B
:101C70001B697A6852695A6107F10C07BD4680BC3E
:101C8000704700BF80B483B000AF786040F6102387
:101C9000C2F200035B69002B10D140F61023C2F2A0
:101CA00000037A685A617B684FF000025A617A68D3
:101CB00040F61023C2F20003136119E040F610232E
:101CC000C2F200035B697A681A6140F61023C2F21F
:101CD00000035A697B685A6140F61023C2F2000380
:101CE0007A685A617A6840F61023C2F200031361E1
:101CF00007F10C07BD4680BC704700BF80B582B0BD
:101D000000AF0346FB7107F107034FF001001946CE
:101D10004FF00102FFF714FB07F10807BD4680BD35
:101D200080B483B000AF78600B46FB707B68FA78B4
:101D30001A704FF00103184607F10C07BD4680BC2E
:101D4000704700BF80B485B000AF786039604FF055
:101D50000003FB600FE03B681A787B681A707B68B1
:101D600003F101037B603B6803F101033B60FB6807
:101D700003F10103FB603B681B78002BEBD1FB6890
:101D8000184607F11407BD4680BC704780B586B081
:101D900000AFF8607A603B600B46FB724FF00003C7
:101DA0007B617B6803F1FF337B603B68092B25D99E
:101DB0003A684CF6CD43CCF6CC43A3FB02134FEA72
:101DC000D303FA7AF86811467A68FFF7DFFF786183
:101DD0007B69FA68D318FB6013E0FB7AF868194650
:101DE000FFF79EFFFB6803F10103FB607B6903F1D2
:101DF00001037B617B6803F1FF337B607B68002B11
:101E0000EBDC39684CF6CD43CCF6CC43A3FB012385
:101E10004FEAD30213464FEA83039B184FEA43036A
:101E2000CA1AD3B203F13003DBB2F8681946FFF7E0
:101E300077FF03467A69D3187B617B69184607F1FF
:101E40001807BD4680BD00BF80B586B000AFF86002
:101E50007A603B600B46FB724FF000037B613B688E
:101E6000002B04DA3B68C3F100033B6101E03B68EF
:101E70003B617B6803F1FF337B603B69092B2AD907
:101E80003B68002B12DA3A694CF6CD43CCF6CC43D2
:101E9000A3FB02134FEAD303C3F10003FA7AF868F5
:101EA00011467A68FFF7D0FF78610FE03A694CF687
:101EB000CD43CCF6CC43A3FB02134FEAD303FA7A0B
:101EC000F86811467A68FFF7BFFF78617B69FA68A6
:101ED000D318FB602BE03B68002B15DA7B6803F11D
:101EE000FF337B6010E0FB7AF8681946FFF718FFB4
:101EF000FB6803F10103FB607B6903F101037B6174
:101F00007B6803F1FF337B607B68002BEBDC3B6875
:101F1000002B0CDAF8684FF02D01FFF701FF0346A4
:101F20007A69D3187B61FB6803F10103FB603969AF
:101F30004CF6CD43CCF6CC43A3FB01234FEAD302AE
:101F400013464FEA83039B184FEA4303CA1AD3B2DE
:101F500003F13003DBB2F8681946FFF7E1FE0346F0
:101F60007A69D3187B617B69184607F11807BD466B
:101F700080BD00BF80B588B002AFF8607A600A46C5
:101F8000FA72BB724FF000037B617B6803F1FF3391
:101F90007B603B6A4FEA1313002B24D03B6A4FEA65
:101FA0001311FA7ABB7A0091F86811467A68FFF744
:101FB000E1FF03467A69D3187B617B69FA68D3181D
:101FC000FB6013E0FB7AF8681946FFF7A9FEFB688F
:101FD00003F10103FB607B6903F101037B617B6813
:101FE00003F1FF337B607B68002BEBDC3B6A03F083
:101FF0000F03092B0CD83B6ADBB203F00F03DBB2F3
:1020000003F13003DBB2F8681946FFF789FE1BE0E5
:10201000BB7A002B0CD03B6ADBB203F00F03DBB2C0
:1020200003F13703DBB2F8681946FFF779FE0BE0DE
:102030003B6ADBB203F00F03DBB203F15703DBB201
:10204000F8681946FFF76CFE7B6903F101037B61B9
:102050007B69184607F11807BD4680BD80B58AB078
:1020600002AFF860B9607A603B604FF00003BB617B
:102070004FF000037B61FB68002B00F01C81FB68C4
:102080004FF000021A7016E17B681B78252B10D0E8
:102090007B681A78FB681A70FB6803F10103FB6028
:1020A0007B6803F101037B607B6903F101037B61C2
:1020B00002E17B6803F101031B78252B10D1FB683B
:1020C0004FF025021A70FB6803F10103FB607B6887
:1020D00003F102037B607B6903F101037B61EBE0A9
:1020E0004FF02003FB774FF00003BB777B6803F1D1
:1020F00001037B607B681B78302B1BD14FF03003D2
:10210000FB777B6803F101037B6013E0BB7F1A461A
:102110004FEA8202D3184FEA4303DAB27B681B7896
:10212000D318DBB2A3F13003BB777B6803F1010363
:102130007B6000E000BF7B681B782F2B03D97B6896
:102140001B78392BE2D9BA7F7B69D3181A46BB6852
:102150009A4205D9BB68DAB27B69DBB2D31ABB7786
:102160007B681B78A3F15803202B00F2948001A216
:1021700052F823F04922000897220008972200080D
:10218000972200089722000897220008972200084B
:10219000972200089722000897220008972200083B
:1021A0007F220008F92100089722000897220008E2
:1021B0009722000897220008F921000897220008BA
:1021C000972200089722000897220008972200080B
:1021D00097220008972200089722000897220008FB
:1021E000692200089722000811220008972200089F
:1021F0009722000829220008BA7F3B6803F10401F6
:1022000039601B68F97FF868FFF71EFEB86145E08A
:10221000BA7F3B6803F1040139601B68F97FF868F5
:10222000FFF7B4FDB86139E0BA7F3B6803F1040100
:1022300039601968FB7F0091F86819464FF0000378
:10224000FFF798FEB86129E0BA7F3B6803F104010B
:1022500039601968FB7F0091F86819464FF0010357
:10226000FFF788FEB86119E03B6803F104023A60A9
:102270001B68F8681946FFF765FDB8610EE03B681A
:1022800003F104023A601B68DBB2F8681946FFF7F5
:1022900047FDB86102E04FF0FF332CE07B6803F1AB
:1022A00001037B60BB69FA68D318FB607A69BB697C
:1022B000D3187B6100E000BF7B681B78002B04D043
:1022C0007A69BB689A42FFF4DFAE7A69BB689A42CA
:1022D00004D2FB684FF000021A700BE0FB6803F1B8
:1022E000FF33FB60FB684FF000021A707B6903F15B
:1022F000FF337B617B69184607F12007BD4680BD2F
:1023000080B584B000AFF860B9607A60F8684FF0CB
:102310006401BA687B68FFF7A1FE0346184607F11F
:102320001007BD4680BD00BFB0B5A6B000AFF860D5
:10233000B9607A6044F20833C0F6000307F1100474
:102340001D460FCD0FC40FCD0FC42B68236007F1BE
:1023500034031846B9687A68FFF7D2FF0346632B47
:102360000CDD40F2F843C2F200031B68DB6807F1A2
:1023700010021046194600F077F8FEE707F1340323
:102380001846F96800F070F80346184607F19807F8
:10239000BD46B0BD80B582B000AF7860396040F214
:1023A000F843C2F200031B689B68184679683A68D4
:1023B000FFF7BAFF0346184607F10807BD4680BD80
:1023C0000FB480B582B000AF07F114033B603869E9
:1023D0003968FFF7DFFF78607B68184607F1080768
:1023E000BD46BDE8804004B0704700BF0EB480B564
:1023F00085B000AF786007F12003BB607868F969A9
:10240000BA68FFF77DFFF860FB68184607F114070C
:10241000BD46BDE8804003B0704700BF80B582B0C4
:1024200000AF7860396040F2F843C2F200031B68E5
:102430009A683B689A4208D040F2F843C2F200031F
:102440001B68DA683B689A4206D17B68DBB21846A3
:10245000FFF754FC7B6801E04FF0FF33184607F1AB
:102460000807BD4680BD00BF80B584B000AF78606E
:1024700039604FF00003FB6014E07B681B7818465E
:102480003968FFF7CBFF0346B3F1FF3F02D14FF0AE
:10249000FF330CE0FB6803F10103FB607B6803F191
:1024A00001037B607B681B78002BE6D1FB68184634
:1024B00007F11007BD4680BD80B584B000AFF8605D
:1024C000B9607A60FB68002B02D14FF0000323E073
:1024D000FB684FF000025A60FB684FF000029A6000
:1024E000FB68BA681A61FB687A685A61FB684FF04A
:1024F00000021A73B868796800F022FD03461A4694
:10250000FB681A60FB681B6818464FF00001BA6848
:1025100001F0A2F84FF00103184607F11007BD467D
:1025200080BD00BF80B485B000AF786039607B6843
:102530001B7B002B02D14FF0000345E04FF000035E
:10254000FB601BE03A68FB68D3187A6811687A6808
:1025500092688A1812781A707B681A687B689B6880
:10256000D3184FF000021A707B689B6803F10102D8
:102570007B689A60FB6803F10103FB607B685A6922
:10258000FB689A42DED87B689A687B681B69796829
:10259000496901FB03F39A4203D37B684FF00002C1
:1025A0009A607B685A687B689B689A4206D17B6810
:1025B0004FF000021A734FF0010305E07B684FF003
:1025C00002021A737B681B7B184607F11407BD468D
:1025D00080BC70470FB490B482B000AF07F1140410
:1025E0003C603B691B7B032B02D14FF003033AE0B5
:1025F0004FF000037B6010E03B6919683B695A6843
:1026000089183C68786820180078087002F1010287
:102610005A607B6803F101037B603B695A697B6800
:102620009A42E9D83B695A683B691B69396949692B
:1026300001FB03F39A4203D33B694FF000025A6057
:102640003B695A683B699B689A4206D13B694FF0E7
:1026500003021A734FF0010305E03B694FF00202D9
:102660001A733B691B7B184607F10807BD4690BCEF
:1026700004B0704780B483B000AF78607B681B7B88
:10268000184607F10C07BD4680BC704780B500AF07
:1026900040F65823C2F200031B78032B32D801A264
:1026A00052F823F0B5260008C9260008DD260008E8
:1026B000F126000800F034F803461A4640F6582385
:1026C000C2F200031A701EE000F05AF803461A46E0
:1026D00040F65823C2F200031A7014E000F06CF8C0
:1026E00003461A4640F65823C2F200031A700AE065
:1026F00000F0A4F803461A4640F65823C2F200033D
:102700001A7000E000BF80BD80B400AF40F20053FB
:10271000C2F200031B781846BD4680BC704700BF5C
:1027200080B500AF40F20053C2F200039A7840F245
:102730000053C2F20003DB78104619464FF4E13231
:10274000FEF714FC44F2D040C0F60000FFF738FE5C
:1027500044F2D840C0F60000FFF732FE44F2DC40FD
:10276000C0F60000FFF72CFE44F2E440C0F6000083
:102770004FF00701FFF724FE4FF00103184680BD1C
:1027800080B500AF40F62820C2F200004FF064018F
:10279000FFF7B6F940F64020C2F200004FF0010109
:1027A000FFF7AEF944F2EC40C0F60000FFF708FE78
:1027B0004FF00203184680BD80B582B000AF4FF0E5
:1027C0000003FB7107F107034FF4A050C4F20100AE
:1027D00019464FF00102FEF713FE0346002B14D0FA
:1027E000FB791B2B07D140F20053C2F200034FF0DC
:1027F00001021A7006E040F20053C2F200034FF0EB
:1028000000021A704FF0030312E040F64023C2F2B8
:1028100000035B78032B02D14FF0030308E040F282
:102820000053C2F200034FF000021A704FF002038F
:10283000184607F10807BD4680BD00BF80B400AF51
:1028400040F62823C2F200035B78032B02D14FF03D
:10285000010301E04FF003031846BD4680BC7047FA
:1028600080B487B000AF786039604FF000037B61BF
:102870004FF000033B614FF00003FB604FF000039B
:102880007B6186E07B694FF0010202FA03F33B6152
:102890003B681A683B691340FB60FA683B699A42DF
:1028A00073D17B681A687B694FEA43034FF00301D9
:1028B00001FA03F36FEA03031A407B681A607B682E
:1028C0001A683B681B7919467B694FEA430301FA92
:1028D00003F31A437B681A603B681B79012B03D012
:1028E0003B681B79022B34D17B689A687B694FEA7D
:1028F00043034FF0030101FA03F36FEA03031A40A5
:102900007B689A607B689A683B685B7919467B694B
:102910004FEA430301FA03F31A437B689A607B682A
:102920005A687B699BB24FF0010101FA03F36FEA29
:1029300003031A407B685A607B685A683B689B793E
:1029400019467B699BB201FA03F39BB21A437B6879
:102950005A607B68DA687B699BB24FEA43034FF0A9
:10296000030101FA03F36FEA03031A407B68DA609C
:102970007B68DA683B68DB7919467B694FEA430379
:1029800001FA03F31A437B68DA607B6903F1010300
:102990007B617B690F2B7FF675AF07F11C07BD4686
:1029A00080BC704780B485B000AF786013460A469B
:1029B0007A807B704FF00003FB604FF00003BB6038
:1029C0007A787B8803F007034FEA830302FA03F364
:1029D000FB607B884FEAD3039BB21A467B884FEAA1
:1029E000D3039BB219467B6801F1080153F821100B
:1029F0007B8803F007034FEA83034FF00F0000FAD0
:102A000003F36FEA030319407B6802F1080243F8FD
:102A100022107B884FEAD3039BB21A467B6802F1EF
:102A2000080253F82220FB681343BB607B884FEAFF
:102A3000D3039BB21A467B6802F10802B96843F8D7
:102A4000221007F11407BD4680BC704780B500AF67
:102A50004FF46053C4F202034FF46052C4F2020216
:102A6000126842F001021A604FF46053C4F202038C
:102A70004FF000029A604FF46053C4F202034FF427
:102A80006052C4F20202126822F0847222F4803290
:102A90001A604FF46053C4F2020343F21002C2F210
:102AA00000425A604FF46053C4F202034FF4605284
:102AB000C4F20202126822F480221A604FF46053BA
:102AC000C4F202034FF00002DA6000F0C1F84FF4E4
:102AD0006D43CEF200034FF000629A6080BD00BFEC
:102AE00080B487B000AF4FF000033B614FF00003AC
:102AF0007B614FF00203FB604FF00003BB604FF0BF
:102B000002037B604FF46053C4F202039B6803F03E
:102B10000C033B613B69042B0DD0082B15D0002B17
:102B200069D140F20453C2F200034FF41052C0F2D4
:102B3000F4021A6069E040F20453C2F200034FF459
:102B40009052C0F27A021A605FE04FF46053C4F210
:102B500002035B6803F480034FEA9353BB604FF4B6
:102B60006053C4F202035B6803F03F037B60BB6801
:102B7000002B14D04FF49053C0F27A037A68B3FB61
:102B8000F2F24FF46053C4F20203596847F6C0737F
:102B90000B404FEA931303FB02F37B6113E04FF406
:102BA0001053C0F2F4037A68B3FBF2F24FF46053AF
:102BB000C4F20203596847F6C0730B404FEA9313FF
:102BC00003FB02F37B614FF46053C4F202035B68C2
:102BD00003F440334FEA134303F101034FEA430385
:102BE000FB607A69FB68B2FBF3F240F20453C2F275
:102BF00000031A6009E040F20453C2F200034FF4EC
:102C00001052C0F2F4021A6000BF4FF46053C4F2D5
:102C100002039B6803F0F0034FEA131240F20853DB
:102C2000C2F200039B5CDBB23B6140F20453C2F290
:102C300000031A683B6922FA03F240F20453C2F21D
:102C400000031A6007F11C07BD4680BC704700BF37
:102C500080B483B000AF4FF000037B604FF00003FF
:102C60003B604FF46053C4F202034FF46052C4F26D
:102C70000202126842F480321A604FF46053C4F2C8
:102C800002031B6803F400333B607B6803F101031C
:102C90007B603B68002B03D17B68B3F5A06FECD160
:102CA0004FF46053C4F202031B6803F40033002B9B
:102CB00003D04FF001033B6002E04FF000033B60A4
:102CC0003B68012B40F082804FF46053C4F2020352
:102CD0004FF46052C4F20202126C42F080521A6445
:102CE0004FF4E043C4F200034FF4E042C4F20002A8
:102CF000126842F480421A604FF46053C4F2020337
:102D00004FF46052C4F2020292689A604FF460532A
:102D1000C4F202034FF46052C4F20202926842F419
:102D200000429A604FF46053C4F202034FF46052C1
:102D3000C4F20202926842F4A0529A604FF46053C7
:102D4000C4F2020345F20842C0F240725A604FF4E6
:102D50006053C4F202034FF46052C4F202021268DC
:102D600042F080721A6000BF4FF46053C4F2020355
:102D70001B6803F00073002BF6D04FF47053C4F2BD
:102D8000020340F205621A604FF46053C4F202037A
:102D90004FF46052C4F20202926822F003029A6079
:102DA0004FF46053C4F202034FF46052C4F20202C3
:102DB000926842F002029A6000BF4FF46053C4F27E
:102DC00002039B6803F00C03082BF6D107F10C07F4
:102DD000BD4680BC704700BF80B485B000AF78604E
:102DE00040F65C23C2F200031B68002B08D140F6BA
:102DF0005C23C2F2000341F29822C2F200021A6080
:102E000040F65C23C2F200031B68FB6040F65C23C3
:102E1000C2F200031A687B68D21840F65C23C2F243
:102E200000031A60FB68184607F11407BD4680BC12
:102E3000704700BF80B483B000AF78604FF46D433B
:102E4000CEF200037A6842F0BF6242F40032DA60E8
:102E500007F10C07BD4680BC704700BF80B485B049
:102E600000AF78604FF00003FB734FF00003BB73BB
:102E70004FF00F037B737B68DB78002B45D04FF45A
:102E80006D43CEF20003DB686FEA030303F4E063F3
:102E90004FEA1323FB73FB7BC3F10403BB737A7B01
:102EA000FB7B42FA03F37B737B685B781A46BB7B40
:102EB00002FA03F3FB737B689A787B7B1340DAB2E8
:102EC000FB7B1343FB73FB7B4FEA0313FB734FF452
:102ED0006143CEF200037A6812789B18FA7B83F87C
:102EE00000234FF46143CEF200037A6812784FEA70
:102EF0005212D2B27968097801F01F014FF0010037
:102F000000FA01F143F8221014E04FF46143CEF2CD
:102F100000037A6812784FEA5212D2B279680978BF
:102F200001F01F014FF0010000FA01F102F120024F
:102F300043F8221007F11407BD4680BC704700BF5C
:102F400010B440F2F843C2F20003044618680A467F
:102F5000214610BC00F000B810B501FB02F100F0F2
:102F60002BF8044668B150F8042C22F003010A1F24
:102F7000242A18D8132A06D803460020186058605F
:102F80009860204610BD00231B2A036043600FD9C0
:102F9000242A8360C36005BF0361436100F110030D
:102FA00000F11803E9E7002100F056FB204610BDB0
:102FB00000F10803E1E700BF2DE9F04F01F10B0537
:102FC000162D83B0064627D935F0070527D4A94228
:102FD00025D8304600F0D6FBB5F5FC7F23D2BA4F9A
:102FE0004FEAD50C07EBCC02D468944200F0DE81A6
:102FF0006368E268A16823F003002318CA60586878
:10300000916040F001025A60304600F0BDFB083488
:10301000204603B0BDE8F08F1025A942D9D90C2471
:1030200034600024F4E75FEA552C00F08B80BCF19B
:10303000040F00F255814FEA951707F1380E4FEA59
:103040004E01A14F07EB8101CC68A14205D10CE0F4
:10305000002A7CDAE468A14207D0636823F0030009
:10306000421B0F2AF4DD0EF1FF3E0EF1010C964BD0
:103070003C6903F1080E744500F07581616821F028
:1030800003014A1B0F2A00F35B81002AC3F814E0F6
:10309000C3F810E069DAB1F5007F80F02F81CA082B
:1030A00003EBC2014FF00109921009FA02F95A68C4
:1030B0008868E16049EA0209A060C3F804908C6066
:1030C000C46001204FEAAC0400FA04F0484556D829
:1030D00019EA000F07D12CF0030C400019EA000F89
:1030E0000CF1040CF9D007EBCC094C46E046E36840
:1030F0009C4207D13AE1002A80F26281DB689C425F
:1031000000F03481596821F003014A1B0F2AF2DDD7
:103110001C465919D86854F808CF8A5045F0010563
:1031200042F00102CCF80C00C0F808C05D60796183
:103130003961C1F80CE0C1F808E04A60304600F09F
:1031400023FB65E74FEAD50E4FEA4E0179E72218D7
:10315000E3685068A16840F001005060CB6099605E
:10316000304600F011FB083452E7611830464B68D6
:1031700043F001024A6000F007FB083448E7BC68EE
:10318000606820F00309A94504D3C5EB09030F2BA0
:1031900000F38D804D4A4E4B11681868013104EBE5
:1031A000090B05EB000300F05A8103F580500F3046
:1031B00020F47F6121F00F0C614630468DE8041049
:1031C00000F0E4FAB0F1FF3F80469DE8041000F003
:1031D0005281834500F20F81DFF800A1DAF8003058
:1031E000C3456344CAF8003000F04A8112680132D6
:1031F00000F05781CBEB080B5B44CAF8003018F0A5
:10320000070100F00B81C1F10800C1F58053804433
:1032100003F1080208EB0C010805030DC3EB020BD8
:103220003046594600F0B2FA431C00F04681C8EB24
:1032300000020BEB020141F00100DAF80030C7F8A0
:1032400008805B44BC42CAF80030C8F8040015D0BE
:10325000B9F10F0F40F2F2806168A9F10C0222F07F
:103260000702A01801F0010C42EA0C0E05210F2AFA
:10327000C4F804E04160816000F21781154ABC681F
:103280001068834288BF1360134A11688B4288BF5D
:103290001360636823F00300A842C5EB000301D369
:1032A0000F2B04DC304600F06FFA0024B0E6621900
:1032B00043F0010145F00105656030465160BA6098
:1032C00000F062FA0834A3E6180500202409002063
:1032D000680A0020640A0020600A00206C0A0020AE
:1032E000BCF1140F7BD9BCF1540F00F28D804FEA72
:1032F000153404F16E0E4FEA4E01A2E6480A042886
:1033000072D9142800F2AE8000F15B094FEA49023D
:1033100007EB8200DFF8F0818368834200F0818050
:103320005A6822F00302914202D29B689842F7D178
:10333000DA68D7F80490E260A360DC609460C0E6CD
:10334000611942F0010045F001056560596119619C
:103350004860C1F80CE0C1F808E08A50304600F03F
:1033600013FA083454E6D3F80490AAE608F10108E9
:10337000083418F0030F7FF4BAAE49461CF0030F6F
:10338000A1F108040CF1FF3C00F0B0800968A142F3
:10339000F4D07C684000A0423FF6F1AE00283FF434
:1033A000EEAE044200F0A780C4469CE604F1080398
:1033B0006469A34208BF0CF1020C3FF458AE17E653
:1033C00059181C464868DB6854F8082F40F0010083
:1033D0004860D3609A60304600F0D6F918E60CF1E8
:1033E0005B0E4FEA4E012CE64FEA911808F13809BE
:1033F0004FEA49028CE7BC423FF4EEAE424CA4686F
:10340000626822F0030047E7BCF5AA7F1CD84FEAA8
:10341000D53202F1770E4FEA4E0112E64FF4805298
:10342000F8E6D8F804004FEAA902012101FA02F2F5
:1034300042EA0009C8F804901A467CE70122C8F85D
:1034400004204446002027E740F254539C4524D8EA
:103450004FEA954000F17C0E4FEA4E01F1E503F191
:10346000100CA9E654282CD84FEA113202F16E094B
:103470004FEA49024CE7BC68616821F003000BE7A2
:103480004FEA0B50010D00297FF4B0AEB8680CEB89
:10349000090141F001044460F0E6FC214FF07E0E8A
:1034A000CFE51A48C0F80080A9E604F10801184CDD
:1034B000304600F011FB2368E0E601204FF0000BDE
:1034C000BBE6B0F5AA7F06D84FEAD13303F17709FE
:1034D0004FEA49021CE740F2545398420FD84FEA92
:1034E000914000F17C094FEA490211E77C6824EA27
:1034F00000047C604EE7400008F1040851E7FC221C
:103500004FF07E0904E700BF1805002024090020C1
:103510006C0A00200F2A2DE9F00340F2958041EA61
:1035200000039B0740F092800C6804604D68456082
:103530008E68A2F110038660CC681D460F2DC46012
:10354000C3F3001601F1100400F1100322D966B193
:1035500026681E6066685E60A6689E60E668103D2C
:10356000DE60103410330F2D14D926681E60666893
:103570005E60A6689E60E668DE6026691E61666918
:103580005E61A6699E61E669203DDE6120342033DC
:103590000F2DEAD8A2F1100323F00F0402F00F035D
:1035A0001034032B00EB0408214451D9A3F1040982
:1035B0000B464FEA990901EB890C53F8046BC1EBF8
:1035C0000C0544460CF1040C634544F8046BC5F348
:1035D000800512D02DB153F8045B634544F8045BB9
:1035E0000BD01E46254656F8047B45F8047B5F68E1
:1035F000331D67602C1D6345F3D109F101039C0065
:10360000091902F003024444DAB123460D7803F8A5
:10361000015BA218E4431419934204F0010410D092
:103620002CB111F8014F03F8014B934209D04D78AA
:103630001C4604F8015B8D785D70631C0231934277
:10364000F5D1BDE8F00370470446DDE70446DCE74A
:1036500044461A46D8E700BFF0B48407034600F09A
:103660008E80541E002A00F08880E507CEB211D467
:103670001A46671E02F8016B1346154692070FD0D3
:10368000002C7AD003F8016B9A073C461D4607D000
:10369000013CEDE7034603F8016B9A071D46F7D19D
:1036A000032C52D9CEB246EA06270F2C47EA07432D
:1036B0002DD9A4F1100217460F2FC2F300162B606C
:1036C0006B60AB60EB6005F1100216D93EB1103FA4
:1036D000136053609360D36010320F2F0DD9203FD9
:1036E00002F11006136053609360D360136153615D
:1036F0009361D36120320F2FF1D8A4F1100222F090
:103700000F0204F00F041032032C15441DD9271F9B
:103710003E462A46032E42F8043BC7F380070DD9E4
:1037200027B1043E032E42F8043B07D91746083E52
:1037300047F8043B53603A1D032EF7D8231F23F0AC
:103740000302131D04F00304ED18B4B12B46C9B2F3
:1037500003F8011B2C19ED436219A34202F0010585
:103760000BD01DB103F8011BA34206D01A4602F884
:10377000011B5970531CA342F8D1F0BC7047054699
:1037800014468DE7704700BF704700BF38B5074C3F
:103790000023054608462360FFF71EFB431C00D0AC
:1037A00038BD21680029FBD0296038BD940A00206B
:1037B00020F0030110F00300C0F1000051F8043BB9
:1037C00000F1040C4FEACC0C6FF000021CBF22FA8F
:1037D0000CF213434FF0010C4CEA0C2C4CEA0C4C4D
:1037E000A3EB0C0222EA030212EACC1204BF51F846
:1037F000043B0430F4D013F0FF0F1FBF013013F46B
:103800007F4F013013F47F0F18BF0130704700BFA6
:10381000F0B4002A00F0838041EA000313F00305AE
:103820002ED0551E03780A78934226D1002D7AD0E7
:10383000002B7AD001358C1C4D192B1BDB0716D5BC
:1038400010F8013F14F8012C934216D1CC1C73B927
:1038500036E0AC4234D00134002B31D010F8013FB7
:1038600014F8012C934208D10134002B28D014F80D
:10387000012C10F8013F9342EBD0981AF0BC70472E
:10388000032ACED904680B689C42CAD1131F4CD0BE
:10389000A4F1013222EA040414F0803F43D15A0714
:1038A0002FD54C68426804310430A24239D1043B20
:1038B00006D0A2F1013424EA020212F0803F20D0A7
:1038C0000020DBE772686468A2F10135A24225EAB4
:1038D000020526D1043B00F1040001F10401EFD000
:1038E00015F0803FECD1DCF804207C68A2F10135B2
:1038F000A24225EA020514D1043BE1D015F0803F35
:10390000DED10C46064604310430032B84460F46B4
:10391000D8D85D1E002B85D133792279ADE71046CA
:10392000ACE75D1E7EE72846A8E71846A6E700BF7D
:1039300041EA00039B07F0B475D1032A73D90B4603
:10394000161F53F8045BA5F1013727EA050717F0A6
:10395000803F0446C6F3800C31D10446032E324624
:1039600044F8045B2AD9BCF1000F0AD0194653F879
:10397000045BA5F1013626EA050616F0803F18D053
:103980001DE01E46194656F8045BA5F1013727EAEB
:10399000050717F0803F12D144F8045B5D68A5F17C
:1039A0000133314623EA0506043A0B1D16F0803F29
:1039B00005D1043A032A44F8045BE2D8194682B3DD
:1039C0000D78013A04F8015B9DB112F0010F234616
:1039D0002BD11C462AB311F8015F013A04F8015BB0
:1039E0003DB111F8015F5D70631C013A1C46002D6A
:1039F000EFD1B2B12346002103F8011BA518E4431F
:103A00002A19AB4202F001040BD01CB103F8011BD0
:103A1000AB4206D01A4602F8011B5970531CAB4248
:103A2000F8D1F0BC70470446C9E7234611F8015F9E
:103A300003F8015B013A1C46002DCAD1D9E700BF4B
:103A4000F8B5224D0F460446FFF79CFEAB685E6852
:103A500026F0030606F6EF70C11B0A0B571E3F0344
:103A6000B7F5805F07DB00212046FFF78FFEAB68CC
:103A70009919884204D02046FFF786FE0020F8BD41
:103A800079422046FFF782FE01300DD0104BA86826
:103A90001A68F61B46F00106D71B466020461F60D9
:103AA000FFF772FE0120F8BD00212046FFF76EFEF1
:103AB000AB68C21A0F2ADEDD06490968401A0449BC
:103AC00042F0010208605A60D5E700BF18050020E7
:103AD0006C0A0020240900202DE9F0410D4606461D
:103AE000002955D0FFF74EFE55F8041CDFF86CC1D5
:103AF000A5F1080421F00103E218DCF8080057687A
:103B0000904227F0030765D011F00101576032D0D1
:103B10000021D0194068C00706D4DB19906800293D
:103B20004AD0D268C260906043F001006060E35008
:103B3000E1B9B3F5007F2DD35A0A042A66D8980953
:103B4000383042000CEB820E4449DEF80820724502
:103B500062D0506820F003018B4202D292689645F1
:103B6000F7D1D068E060A260D46084603046BDE8E0
:103B7000F041FFF709BE55F8085C641B0CF108081A
:103B8000A06840452B443FD0E568C560A860C0E709
:103B9000BDE8F081DD080CEBC502DCF8040091689B
:103BA000E260AB10012505FA03F31843A160CCF8DD
:103BB00004009460CC60D9E7294DA842B1D143F00C
:103BC0000102CCF81440CCF81040E060A0606260C4
:103BD000E350CBE7FF18CB0707D455F8081C641A4D
:103BE0007F18E368A068C36098601E4ACCF808405C
:103BF000116847F001038F426360B7D31A4A304619
:103C00001168FFF71DFFB1E7012182E7142A0CD8E4
:103C100002F15B00420095E74B688010012505FA30
:103C200000F003434B6010469CE7542A03D8180B5E
:103C30006E30420086E7B2F5AA7F03D8D80B773002
:103C400042007FE740F254518A4203D8980C7C30FE
:103C5000420077E7FC227E2074E700BF18050020B1
:103C60002005002020090020680A00200000000034
:103C70000000000000000000000000000000000044
:103C800000000000000000000008024040000200A8
:103C9000020000000800000000000000000000001A
:103CA00000140140000802408000020002000000F1
:103CB00008000000000000000100000000140140A6
:103CC00000040240000801000000020000000000A3
:103CD00000000000000000000000000000000240A2
:103CE0000800020002000000010000000C000000BB
:103CF0000000000000000040000C024000800200B4
:103D000002000000020000000C00000000000000A3
:103D10000008004000000240010000000000000018
:103D20000000000000000000000000000000000093
:103D30000004024010000200020000000200000027
:103D400000000000000000000004004000040240E9
:103D50002000020002000000020000000400000039
:103D600000000000000400400004024001000200C6
:103D70000200000002000000080000000000000037
:103D800000040040000402400200020002000000A3
:103D9000020000000C0000000000000000040040D1
:103DA00000000240040002000200000001000000C8
:103DB0000800000000000000000000401B5B3330E2
:103DC0006D000000001B5B33316D000000001B5BC9
:103DD00033326D000000001B5B33336D00000000C8
:103DE0001B5B33346D000000001B5B33356D00003E
:103DF00000001B5B33366D000000001B5B33376D2A
:103E0000000000001B5B33396D0000000000000063
:103E10001E0000003C000000500000001B5B2564F9
:103E20003B256466000000002E2E00004E6F6D00E2
:103E30000000000000000000000000000000000082
:103E40000000000000000000000050696E0000004B
:103E50000000000000000000000000000000000062
:103E6000000000000000000056616C6575720000E3
:103E70000000000000000000000000000000000042
:103E80000000000000000000200000002564206DFC
:103E9000696E20256420730030206D696E202564D2
:103EA000207300002564206D7300000025642075D8
:103EB000730000000000000000000000000000008F
:103EC00000000000000000000000000000000000F2
:103ED000000802404000020002000000080000004C
:103EE0000000000000000000001401400008024033
:103EF0008000020002000000080000000000000036
:103F0000010000000014014000040240000801000C
:103F1000000002000000000000000000000000009F
:103F20000000000000000240080002000200000043
:103F3000010000000C000000000000000000004034
:103F4000000C02400080020002000000020000009D
:103F50000C000000000000000008004000000240CB
:103F60000100000000000000000000000000000050
:103F700000000000000000000004024010000200E9
:103F8000020000000200000000000000000000002D
:103F90000004004000040240200002000200000073
:103FA00002000000040000000000000000040040C7
:103FB00000040240010002000200000002000000B4
:103FC000080000000000000000040040000402405F
:103FD0000200020002000000020000000C000000CD
:103FE0000000000000040040000002400400020045
:103FF00002000000010000000800000000000000B6
:104000000000004000000000000000000000000070
:1040100000000000000000000000000000000000A0
:1040200000080240400002000200000008000000FA
:1040300000000000000000000014014000080240E1
:1040400080000200020000000800000000000000E4
:1040500001000000001401400004024000080100BB
:10406000000002000000000000000000000000004E
:1040700000000000000002400800020002000000F2
:10408000010000000C0000000000000000000040E3
:10409000000C02400080020002000000020000004C
:1040A0000C0000000000000000080040000002407A
:1040B00001000000000000000000000000000000FF
:1040C0000000000000000000000402401000020098
:1040D00002000000020000000000000000000000DC
:1040E0000004004000040240200002000200000022
:1040F0000200000004000000000000000004004076
:104100000004024001000200020000000200000062
:10411000080000000000000000040040000402400D
:104120000200020002000000020000000C0000007B
:1041300000000000000400400000024004000200F3
:104140000200000001000000080000000000000064
:10415000000000405054410050544200505443006D
:1041600050544400505445005054460050544700A9
:104170005054480050544900300000003100000005
:104180003200000033000000340000003500000061
:104190003600000037000000380000003900000041
:1041A0003130000031310000313200003133000085
:1041B0003134000031350000000000000000000034
:1041C00000000000000000000000000000000000EF
:1041D0000000000000080240400002000200000051
:1041E0000800000000000000000000000014014072
:1041F00000080240800002000200000008000000E9
:104200000000000001000000001401400004024012
:104210000008010000000200000000000000000093
:104220000000000000000000000002400800020042
:1042300002000000010000000C000000000000006F
:1042400000000040000C024000800200020000005C
:10425000020000000C000000000000000008004008
:10426000000002400100000000000000000000000B
:1042700000000000000000000000000000040240F8
:104280001000020002000000020000000000000018
:104290000000000000040040000402402000020072
:1042A0000200000002000000040000000000000006
:1042B000000400400004024001000200020000006F
:1042C00002000000080000000000000000040040A0
:1042D0000004024002000200020000000200000090
:1042E0000C0000000000000000040040000002403C
:1042F00004000200020000000100000008000000AD
:104300000000000000000040737464696F2E633A7F
:1043100020696E637265617365204D41585F535427
:1043200052494E475F53495A450A0D0000000000AC
:10433000000000000000000000000000000000007D
:1043400000000000000000000008024040000200E1
:104350000200000008000000000000000000000053
:10436000001401400008024080000200020000002A
:1043700008000000000000000100000000140140DF
:1043800000040240000801000000020000000000DC
:1043900000000000000000000000000000000240DB
:1043A0000800020002000000010000000C000000F4
:1043B0000000000000000040000C024000800200ED
:1043C00002000000020000000C00000000000000DD
:1043D0000008004000000240010000000000000052
:1043E00000000000000000000000000000000000CD
:1043F0000004024010000200020000000200000061
:104400000000000000000000000400400004024022
:104410002000020002000000020000000400000072
:1044200000000000000400400004024001000200FF
:104430000200000002000000080000000000000070
:1044400000040040000402400200020002000000DC
:10445000020000000C00000000000000000400400A
:104460000000024004000200020000000100000001
:104470000800000000000000000000401B5B33301B
:104480006D000000001B5B33316D000000001B5B02
:1044900033326D000000001B5B33336D0000000001
:1044A0001B5B33346D000000001B5B33356D000077
:1044B00000001B5B33366D000000001B5B33376D63
:1044C000000000001B5B33396D000000000000009D
:1044D0001B5B324A000000001B5B48001B5B3F3245
:1044E000356C00001B5B3325646D00001B5A000017
:1044F00054696D657374616D700000000000000008
:1045000000000000000000000000000000000000AB
:10451000000000000000000000000000000000009B
:10452000000000000000000000000000000000008B
:10453000000000000000000000000000000000007B
:1045400000000000110A00080100000054656D70B1
:104550007320646520426F75636C65204D6F7965CB
:104560006E000000000000000000000000000000DD
:10457000000000000000000000000000000000003B
:10458000000000000000000000000000000000002B
:10459000000000000000000000000000000000001B
:1045A000C50A000801000000000000000102030429
:1045B0000102030406070809100A00200000000099
:1045C00000000000000000000100000000000000EA
:1045D00000000000000000000000000000000000DB
:1045E00000000000000000000000000000000000CB
:1045F00000000000000000000000000000000000BB
:1046000000000000000000000000000000000000AA
:1049E0000000000000000000D000002000000000D7
:1049F00000030102007A030A00000000000000002A
:104A0000010203040607080900000000000000007E
:104A10001805002018050020200500202005002092
:104A20002805002028050020300500203005002042
:104A300038050020380500204005002040050020F2
:104A400048050020480500205005002050050020A2
:104A50005805002058050020600500206005002052
:104A60006805002068050020700500207005002002
:104A700078050020780500208005002080050020B2
:104A80008805002088050020900500209005002062
:104A90009805002098050020A0050020A005002012
:104AA000A8050020A8050020B0050020B0050020C2
:104AB000B8050020B8050020C0050020C005002072
:104AC000C8050020C8050020D0050020D005002022
:104AD000D8050020D8050020E0050020E0050020D2
:104AE000E8050020E8050020F0050020F005002082
:104AF000F8050020F8050020000600200006002030
:104B000008060020080600201006002010060020DD
:104B1000180600201806002020060020200600208D
:104B2000280600202806002030060020300600203D
:104B300038060020380600204006002040060020ED
:104B4000480600204806002050060020500600209D
:104B5000580600205806002060060020600600204D
:104B600068060020680600207006002070060020FD
:104B700078060020780600208006002080060020AD
:104B8000880600208806002090060020900600205D
:104B90009806002098060020A0060020A00600200D
:104BA000A8060020A8060020B0060020B0060020BD
:104BB000B8060020B8060020C0060020C00600206D
:104BC000C8060020C8060020D0060020D00600201D
:104BD000D8060020D8060020E0060020E0060020CD
:104BE000E8060020E8060020F0060020F00600207D
:104BF000F8060020F806002000070020000700202B
:104C000008070020080700201007002010070020D8
:104C10001807002018070020200700202007002088
:104C20002807002028070020300700203007002038
:104C300038070020380700204007002040070020E8
:104C40004807002048070020500700205007002098
:104C50005807002058070020600700206007002048
:104C600068070020680700207007002070070020F8
:104C700078070020780700208007002080070020A8
:104C80008807002088070020900700209007002058
:104C90009807002098070020A0070020A007002008
:104CA000A8070020A8070020B0070020B0070020B8
:104CB000B8070020B8070020C0070020C007002068
:104CC000C8070020C8070020D0070020D007002018
:104CD000D8070020D8070020E0070020E0070020C8
:104CE000E8070020E8070020F0070020F007002078
:104CF000F8070020F8070020000800200008002026
:104D000008080020080800201008002010080020D3
:104D10001808002018080020200800202008002083
:104D20002808002028080020300800203008002033
:104D300038080020380800204008002040080020E3
:104D40004808002048080020500800205008002093
:104D50005808002058080020600800206008002043
:104D600068080020680800207008002070080020F3
:104D700078080020780800208008002080080020A3
:104D80008808002088080020900800209008002053
:104D90009808002098080020A0080020A008002003
:104DA000A8080020A8080020B0080020B0080020B3
:104DB000B8080020B8080020C0080020C008002063
:104DC000C8080020C8080020D0080020D008002013
:104DD000D8080020D8080020E0080020E0080020C3
:104DE000E8080020E8080020F0080020F008002073
:104DF000F8080020F8080020000900200009002021
:104E000008090020080900201009002010090020CE
:084E100000000200FFFFFFFF9C
:0400000508000000EF
:00000001FF
